:020000040000FA
:10000000A0030010E5000000E9000000EB00000084
:10001000ED000000EF000000F10000000000000013
:10002000000000000000000000000000F3000000DD
:10003000F500000000000000F700000001030000D0
:10004000FB0000005D1E0000811E0000FB000000A0
:10005000FB000000751D0000FB000000FB0000001D
:10006000FB000000FB000000FB000000FB000000A4
:10007000FB000000FB000000FB000000FB00000094
:10008000FB000000FB000000511B0000711B000082
:10009000911B0000B11B0000FB000000FB000000F2
:1000A000FB000000FB000000FB000000FB00000064
:1000B000FB000000FB000000FB000000FB00000054
:1000C000FB000000FB000000FB000000DFF80CD08C
:1000D00002F02CF90048004759020000A00300106C
:1000E00000BF704705480047FEE7FEE7FEE7FEE772
:1000F000FEE7FEE7FEE7FEE7FEE7FEE7CD000000D5
:1001000030B54D492020C1F8A001D1F8A00140062A
:10011000FBD501F180010325C1F884504FF00002A6
:10012000C1F82821C1F82C214FF00100C1F88C0042
:10013000424B4B6008604FF0AA03CB604FF0550470
:10014000CC60A1F18001D1F888004001FBD541F8D5
:10015000805FCB60CC60C1F8882039484864C1F822
:100160004821886880396FEA10608007354AD1F8E5
:100170000C0100F0030007D0E8B3012845D00228A5
:1001800049D0032850D13AE028B1012813D00228E1
:1001900022D0032848D151F8880FC0F30740CB6F15
:1001A000401CDBB25B1C584351F88839264CC3F322
:1001B0000E035B1C0EE051F8880FC0F30740CB6FB5
:1001C000401CDBB25B1C584351F888391F4CC3F309
:1001D0000E035B1C634324E051F8880FC0F3074013
:1001E000CB6F401CDBB25B1C584351F88839C3F31A
:1001F0000E035B1C00E002E04FF47A44EAE7D1F81A
:100200000401134BC0B2401C0BE0D1F80401114BA8
:10021000C0B2401C05E0D1F804014FF4FA43C0B26B
:10022000401CB3FBF0F01060086820F4704040F40C
:100230008040086030BD000000C00F406300050032
:10024000DE8728040000001000127A0000366E01DC
:1002500000093D00001BB7001CB5142002F044F952
:10026000FFF74EFF00F081F80F2000F0CDFC0F20CB
:1002700000F0C7FC03214FF47840CDE90001C8230A
:100280001A4612213C2001F04AF813A20A21142038
:1002900000F05DFD01F050FD01F0E2FC002001F0F6
:1002A00095FD4FF47A61002001F00EFE002001F070
:1002B000F1FD0C48016941F08061016101F012FB20
:1002C00009480168083101604FF0E0204FF4001147
:1002D000C0F80011FEE70000546963546163546F75
:1002E0006500000000C0024048C10F4002E008C89D
:1002F000121F08C1002AFAD170477047FFFFFFFFA5
:100300000C4901224868401C48600A280ED006DCCF
:1003100003280DD0052809D0082808D108E00D28A9
:1003200006D00F2803D1002048608A700A707047F9
:100330004A707047040000108004401EFDD27047D0
:10034000401EFDD27047FE490A6C42F0FF020A646B
:100350004FF400128A619210CA61486552008A61A6
:10036000CA61000A4865012070472DE9F05FF44832
:10037000016841F07E7101604FF07E71816105205E
:10038000FFF7DAFF002000F019FFEE4CA0F58A41DC
:100390004FF48075A08041F2300940F2022A4FF4F8
:1003A000837B40F23F1640F2023731397DD1012183
:1003B000002000F0F6FE4FF4C561102000F0F1FEC1
:1003C0000621122000F0EDFE40F63221132000F04D
:1003D000E8FE4021112000F0E4FE5021152000F03D
:1003E000E0FE1621122000F0DCFE0F20FFF7A4FF34
:1003F00045F26061102000F0D4FE0F20FFF79CFF53
:1004000042F64E21132000F0CCFE2946012000F0D8
:10041000C8FEB91E022000F0C4FE4946032000F0C9
:10042000C0FE5146082000F0BCFE00210A2000F06A
:10043000B8FE0021302000F0B4FE40F2024131202D
:1004400000F0AFFE5946322000F0ABFE4FF4E06101
:10045000332000F0A6FE291D342000F0A2FE791EF4
:10046000352000F09EFE40F20771362000F099FE24
:10047000F91C372000F095FE4FF40271382000F08F
:1004800090FE40F60B71392000F08BFE0F20FFF735
:1004900053FF0221412000F084FE4FF41C516020E4
:1004A00000F07FFE0121612000E01EE000F079FEF7
:1004B00040F21911902000F074FE4FF485719220E3
:1004C00000F06FFE0421932000F06BFE2946A0206F
:1004D00000F067FE0F20FFF72FFF0021A02000F0A3
:1004E00060FE1420FFF728FFF8E1A0F513414FF458
:1004F000887825397ED11021E72000F052FE0121B5
:10050000002000F04EFE2946012000F04AFE4FF484
:10051000E061022000F045FE4946032000F041FE64
:100520000021042000F03DFE40F20721082000F0E9
:1005300038FE0021092000F034FE00210A2000F0DE
:1005400030FE01210C2000F02CFE00210D2000F0D7
:1005500028FE00210F2000F024FE0021102000F0D2
:1005600020FE0721112000F01CFE0021122000F0C7
:1005700018FE0021132000F014FE0F20FFF7DCFE10
:1005800041F29051102000F00CFE40F22721112082
:1005900000F007FE0F20FFF7CFFE9C21122000F095
:1005A00000FE0F20FFF7C8FE4FF4C851132000F0E3
:1005B000F8FD2321292000F0F4FD0E212B2000F06E
:1005C000F0FD0F20FFF7B8FE0021202000F0E9FD2C
:1005D0000021212000F0E5FD0F20FFF7ADFE0721EF
:1005E000302000F0DEFD40F20771312000F0D9FD2F
:1005F000062100E07EE0322000F0D3FD40F20471DD
:10060000352000F0CEFD41F60471362000F0C9FD22
:100610000421372000F0C5FD0021382000F0C1FD85
:1006200040F20671392000F0BCFD40F201713C201F
:1006300000F0B7FD0F213D2000F0B3FD0F20FFF7C4
:100640007BFE0021502000F0ACFDEF21512000F096
:10065000A8FD0021522000F0A4FD3146532000F0F7
:10066000A0FD4FF42741602000F09BFD0121612097
:1006700000F097FD00216A2000F093FD002180200A
:1006800000F08FFD0021812000F08BFD00218220F1
:1006900000F087FD0021832000F083FD00218420ED
:1006A00000F07FFD0021852000F07BFD10219020CF
:1006B00000F077FD0021922000F073FD03219320CC
:1006C00000F06FFD4146952000F06BFD0021972062
:1006D00000F067FD0021982000F063FD40F2331127
:1006E000072000F05EFD0021202000F05AFD0021CF
:1006F0002120F1E0A0F5134120397DD14FF40041D4
:10070000E52000F04EFD0121002000F04AFD2946C1
:10071000012000F046FD4FF4E061022000F041FDB1
:100720004946032000F03DFD0021042000F039FD82
:100730005146082000F035FD0021092004E00000AA
:1007400000C009200C00001000F02BFD00210A2041
:1007500000F027FD00210C2000F023FD00210D20DA
:1007600000F01FFD00210F2000F01BFD00211020D4
:1007700000F017FD0021112000F013FD00211220D0
:1007800000F00FFD0021132000F00BFD1420FFF7F7
:10079000D3FD41F2B071102000F003FD40F237119B
:1007A000112000F0FEFC0520FFF7C6FD40F23911D4
:1007B000122000F0F6FC0520FFF7BEFD4FF4E851D3
:1007C000132000F0EEFC1321292000F0EAFC0520A4
:1007D000FFF7B2FD0021202000F0E3FC00212120E2
:1007E00000F0DFFC0621302000F0DBFC40F20111BC
:1007F000312000F0D6FC00E070E00321322000F050
:10080000D0FC5946352000F0CCFC40F602313620B1
:1008100000F0C7FC3946372000F0C3FC40F20771F6
:10082000382000F0BEFC0721392000F0BAFC4FF45C
:10083000C0613C2000F0B5FC40F20B213D2000F0EF
:10084000B0FC0021502000F0ACFCEF21512000F062
:10085000A8FC0021522000F0A4FC3146532000F0F7
:10086000A0FC4FF41C51602000F09BFC0121612092
:1008700000F097FC00216A2000F093FC002180200A
:1008800000F08FFC0021812000F08BFC00218220F1
:1008900000F087FC0021832000F083FC00218420ED
:1008A00000F07FFC0021852000F07BFC10219020CF
:1008B00000F077FC0021922000F073FC03219320CC
:1008C00000F06FFC4146952000F06BFC0021972062
:1008D00000F067FC0021982000F063FC41F2380131
:1008E000032000F05EFC40F27311072000F059FC79
:1008F000A088A0F5094189397DD10121002000F0AF
:1009000050FC0520FFF718FD4AF6A401032000F073
:1009100048FC0520FFF710FD00210C2000F041FCF1
:100920000520FFF709FD40F60C010D2000F039FC11
:100930000520FFF701FD4FF42C510E2000F031FC93
:100940000520FFF7F9FCB0211E2000F02AFC05204D
:10095000FFF7F2FC42F63F31012000F022FC0520B7
:10096000FFF7EAFC4FF4C061022000F01AFC0520FA
:10097000FFF7E2FC0021102000F013FC0520FFF738
:10098000DBFC46F27801112000F00BFC0520FFF79C
:10099000D3FC0021052000F004FC0520FFF7CCFC6F
:1009A0000021062000F0FDFB0520FFF7C5FC4EF6F8
:1009B0001C71162000F0F5FB0520FFF7BDFC03219C
:1009C000172000F0EEFB0520FFF7B6FC40F23321C4
:1009D000072000F0E6FB0520FFF7AEFC00210B200E
:1009E00000F0DFFB0520FFF7A7FC00210F2000F03F
:1009F000D8FB052000E0ACE0FFF79EFC0021412081
:100A000000F0CFFB0520FFF797FC0021422000F00B
:100A1000C8FB0520FFF790FC0021482000F0C1FB37
:100A20000520FFF789FC3146492000F0BAFB05207C
:100A3000FFF782FC00214A2000F0B3FB0520FFF7FE
:100A40007BFC00214B2000F0ACFB0520FFF774FC81
:100A50004FF46F41442000F0A4FB0520FFF76CFC2D
:100A60000021452000F09DFB0520FFF765FC314685
:100A7000462000F096FB0520FFF75EFC40F2077170
:100A8000302000F08EFB0520FFF756FC4FF4017478
:100A90002146312000F085FB0520FFF74DFC214663
:100AA000322000F07EFB0520FFF746FC40F20255A5
:100AB0002946332000F075FB0520FFF73DFC691D3A
:100AC000342000F06EFB0520FFF736FC2146352070
:100AD00000F067FB0520FFF72FFC2146362000F0D1
:100AE00060FB0520FFF728FC2946372000F059FB62
:100AF0000520FFF721FC39463A2000F052FB052083
:100B0000FFF71AFC39463B2000F04BFB0520FFF7AE
:100B100013FC0021232000F044FB0520FFF70CFC10
:100B20000021242000F03DFB0520FFF705FC4FF4D9
:100B30000041252000F035FB0520FFF7FDFB0021DB
:100B40004F2000F02EFBBDE8F05F00214E2000F0AA
:100B500028BBBDE8F09FF94810B5808840F23F14EB
:100B6000A0F50942893A4FF000010ED1442000F06F
:100B700018FB4FF46F41442000F013FB0021452087
:100B800000F00FFB214646200CE0502000F009FB4E
:100B9000EF21512000F005FB0021522000F001FB65
:100BA00021465320BDE8104000F0FBBA70B50D4659
:100BB0000446FFF7D0FFE14EA4F23F146442B1882F
:100BC000A1F509408938A9B205D14E2000F0E9FA13
:100BD000A1B24F2004E0202000F0E3FAA1B22120CE
:100BE00000F0DFFAD64D4FF48004EC61222000F0D3
:100BF000ADFA308800F0BAFAAC6170BDCF49088018
:100C00007047CE49488070472DE9F0418046FFF794
:100C1000A2FFCA488088A0F5094189394FF0000138
:100C200005D14E2000F0BDFA00214F2004E0202025
:100C300000F0B7FA0021212000F0B3FAC04D4FF4C4
:100C40008006EE61222000F081FA7000A861002485
:100C50004FF49637404600F099FA641CBC42F9D331
:100C6000AE61BDE8F0812DE9F05FB44EC0F5987734
:100C70000C46B0881546A0F5094189394FF00008A7
:100C8000A1B21CD1442000F08CFA4FF4B85000EB14
:100C90000420204381B2442000F083FAB9B24520F9
:100CA00000F07FFA07F10F0081B2462000F079FAD8
:100CB000A1B24E2000F075FAB9B24F2018E05020D2
:100CC00000F06FFA04F1170081B2512000F069FAC8
:100CD000B9B2522000F065FA07F10F0081B253203B
:100CE00000F05FFAA1B2202000F05BFAB9B2212037
:100CF00000F057FADFF848B24FF4800A5C46CBF8B0
:100D00001CA0222000F022FA4FF40000A06100276E
:100D10004FF001090F2435F8181009FA04F00142C8
:100D20000BD0308800F032FA641EF4D5AD1C7F1C65
:100D3000182FEFDBCBF818A00BE77088F2E7203A0A
:100D4000D2B2804B02EB420203EB02128BE770B58A
:100D500014460546A1F11806FFF7FDFE06E006F170
:100D60001801641C0E462846FFF7E9FF2278002A86
:100D7000F5D170BD70B514460D46A0F11006FFF711
:100D8000EAFE06E006F11000641C06462946FFF75D
:100D9000D6FF2278002AF5D170BD10B50446FFF7C2
:100DA000DAFE2046BDE8104067A20021E2E72DE907
:100DB000F05F624F0D461646C0F5A070B988841BDF
:100DC00048F6891ADDF8288051459946A9B214D110
:100DD000442000F0E6F94FF4B85000EB052028431A
:100DE00081B2442000F0DDF9A1B2452000F0D9F92C
:100DF000A019401E81B2462010E0502000F0D1F929
:100E000005F1170081B2512000F0CBF9A1B25220B8
:100E100000F0C7F9A019401E81B2532000F0C1F9BB
:100E2000B98808FB06F051454FEA9028A9B205D1D0
:100E30004E2000F0B6F9A1B24F2004E0202000F0CF
:100E4000B0F9A1B2212000F0ACF9DFF8F4A04FF422
:100E5000800B5446CAF81CB0222000F077F94FF4FA
:100E60000000A06100250BE0741E08D4444501D3A6
:100E7000788800E0388800F089F9641EF6D56D1C8A
:100E80004D45F1D3CAF818B063E62DE9F047164690
:100E9000C0F5A070841B29480F4699468188089D9B
:100EA000A1F5094207EB0908893AB9B21CD14420DF
:100EB00000F077F96FF0FF0101EB0820384381B2B1
:100EC000442000F06EF9A1B2452000F06AF9A019A3
:100ED000401E81B2462000F064F9B9B24E2000F005
:100EE00060F9A1B24F2018E0502000F05AF9A8F1A3
:100EF000010081B2512000F054F9A1B2522000F05B
:100F000050F9A019401E81B2532000F04AF9B9B23D
:100F1000202000F046F9A1B2212000F042F9DFF8CC
:100F200020804FF4800A4446C8F81CA0222000F01C
:100F30000DF94FF40000A061002721E00C00001023
:100F400000C009205425000020202020202020203F
:100F50002020202020202020202020200000000011
:100F600005EB4604A41E002504E034F8020900F055
:100F70000DF96D1CB542F8D304EB4605AD1C7F1C82
:100F80004F45EDD3C8F818A0BDE8F0872DE9F05F14
:100F90001646C0F5A070841B9B480D469846818874
:100FA000DDF82890A1F5094205EB0807893AA9B2B6
:100FB0001CD1442000F0F5F86FF0FF0000EB072093
:100FC000284381B2442000F0ECF8A1B2452000F0A3
:100FD000E8F8A019401E81B2462000F0E2F8A9B25C
:100FE0004E2000F0DEF8A1B24F2017E0502000F0B4
:100FF000D8F87F1EB9B2512000F0D3F8A1B2522028
:1010000000F0CFF8A019401E81B2532000F0C9F8BB
:10101000A9B2202000F0C5F8A1B2212000F0C1F84B
:10102000DFF8E8A14FF4800B5446CAF81CB0222028
:1010300000F08CF84FF40000A06108FB06F009EB0B
:101040004005AD1E002709E0002404E035F8020940
:1010500000F09CF8641CB442F8D37F1C4745F3D3DE
:10106000CAF818B075E52DE9F05F0E468046DDE957
:101070000A0565499946924608806D1ED04510D1F3
:10108000A8EB550708EB550B09E0344604E0214670
:101090003846FFF78BFD641C4C45F8D97F1CBB45D7
:1010A000F3D84E4511D1A6EB5507444606EB55063D
:1010B00009E03D4604E029462046FFF777FD6D1C18
:1010C000AE42F8D8641C5445F3D942E52DE9F04707
:1010D00082464D48089E88460380761E0D4601EBE9
:1010E000020910E00AEB0501A1EB0800A0EB560491
:1010F00000EB560704E029462046FFF757FD641C25
:10110000A742F8D26D1CA945ECD23DE72DE9F04786
:1011100082463D48089E88460380761E0D4601EBB8
:10112000020910E0AAEB050101EB0800A0EB560450
:1011300000EB560704E029462046FFF737FD641C04
:10114000A742F8D26D1CA945ECD21DE770B52F4C13
:101150004FF40001E1618900A161FFF7F4F84FF05D
:101160008075E561FEF7BCFFA56170BD70B5274CC9
:101170004FF40001A1618900A161FFF7E4F84FF08D
:101180008075E561FEF7ACFFA56170BD70B5FFF736
:10119000DAF81E4C4FF08075E561FEF7A1FFA561FE
:1011A00070BD70B5194C4FF480050E46E561FFF730
:1011B000CDFF3046FFF7DAFFA56170BD70B5134C67
:1011C0004FF48005E561C0B2FFF7C0FF6800A06181
:1011D0004000A0614100E161206C20F0FF0020642C
:1011E0000A11E2618E11E6615020401EFDD2606D51
:1011F000A661C3B25020401EFDD2606DA26163F3B0
:101200001F20A161A56170BD0C00001000C0092065
:10121000002100E0491C8142FCDB704730B5FE4CE8
:101220002568A36902FB0352A2EB53036568E269D8
:10123000083B01FB0251A1EB52010C39C0E900311E
:1012400030BDFCB507ACB4E8E050F34C84E8EF5097
:10125000012211466846FFF7E1FFDDE90001C4E91C
:101260000901202584F82C50022201216846FFF74D
:10127000D5FFDDE90001C4E90C0184F838500322F0
:1012800001216846FFF7CAFFDDE90001C4E90F014B
:1012900084F84450012202216846FFF7BFFFDDE9D0
:1012A0000001C4E91201022284F850501146684638
:1012B000FFF7B4FFDDE90001C4E9150184F85C50D3
:1012C000032202216846FFF7A9FFDDE90001C4E916
:1012D000180184F86850012203216846FFF79EFF39
:1012E000DDE90001C4E91B0184F8745002220321E6
:1012F0006846FFF793FFDDE90001C4E91E01032200
:1013000084F8805011466846FFF788FFDDE9001237
:1013100004F18000C0E9011284F88C50FCBD2DE975
:10132000FF4F0E4685B0032181460798B3FBF1FAC3
:10133000B0FBF1F7DDE912450A20CDE903A08DE805
:10134000B000984631464846079AFFF77AFF06F103
:101350000A030094CDE90153B044A8F10A0B09EB4C
:10136000070019465B460246FFF77DFE09EB470082
:101370005B46CDE9004502460299FFF774FE079AE5
:1013800006EB0A0109EB0207A7F10A0209F10A00BC
:10139000CDE9004593460B460290FFF764FE06EB4D
:1013A0004A015A46CDE900450B460298FFF75BFE1D
:1013B000AD1C4A46434631461046CDE90045FFF78D
:1013C00052FE3A46434610463146CDE90045FFF706
:1013D0004AFE33463A4619464846CDE90045FFF7EE
:1013E00042FE3A46414643464846CDE90045FFF7AE
:1013F0003AFE09B0BDE8F08F2DE9FC5F144689463E
:1014000084460026012202216846FFF707FF834831
:10141000DDE900754168DFF80082491C41600CEB92
:10142000CC0108EB810090F82C300CB14F2200E089
:1014300058224FF0050B4FF6E07A09EB4909934229
:1014400035D190F838200CB14F2100E058218A4264
:101450002DD190F844200CB14F2100E058218A4250
:1014600025D1CDE900AB00EB8901C26B896A406AE6
:101470000C31183208380B46FFF7F5FD5046FFF7E0
:10148000BDFB294607F1100065A2FFF773FC15208C
:1014900000F005FA6548FFF7BBFED8F81C0064A20F
:1014A0002918D8F80000401DFFF764FC012608EB5E
:1014B000890090F82C200CB14F2100E058218A427D
:1014C00033D190F850200CB14F2100E058218A42CE
:1014D0002BD190F874200CB14F2100E058218A42A2
:1014E00023D1CDE900AB426A036F816A083224330D
:1014F0000C391046FFF7B7FD5046FFF77FFB294632
:1015000007F1100046A2FFF735FC152000F0C7F9DF
:101510004648FFF77DFED8F81C0045A22918D8F8E8
:101520000000401DFFF726FC761C98F82C100CB12B
:101530004F2000E058204FF02409814238D198F81C
:101540005C2041460CB14F2000E0582082422FD150
:1015500091F88C200CB14F2000E05820824227D116
:10156000CDF800B0D8F81C10D8F8240009EB4102DF
:10157000D8F8281010380C395346FFF7A7FD50460D
:10158000FFF73CFB294607F1100025A2FFF7F2FB0D
:10159000152000F084F92548FFF73AFED8F81C0022
:1015A00023A22918D8F80000401DFFF7E3FB761CA2
:1015B00098F874100CB14F2000E0582081424DD1B2
:1015C00098F85C100CB14F2000E05820814245D1C2
:1015D00098F844100CB14F2000E0582081423DD1D2
:1015E000CDF800B0D8F81C10D8F83C0009EB410247
:1015F000D8F8401018300C395346FFF787FD504695
:10160000FFF7FCFA294607F1100005A2FFF7B2FB2D
:10161000152000F044F913E04400001014000010FD
:10162000594F552057494E210000000000A24A049E
:1016300050726573732052455345542100000000D9
:101640009D48FFF7E5FDD8F81C002918D8F80000E0
:10165000401DAFF22402FFF78DFB761C97484068CF
:1016600009281DD1002E1BD15046FFF7C7FAD8F824
:10167000000029464446401D91A2FFF77BFB152040
:1016800000F00DF98C48FFF7C3FDE06929182068C8
:10169000401DAFF2640202B0BDE8F05FFFF76ABB25
:1016A000BDE8FC9F2DE9F0410E46074600EBC7015F
:1016B00087481D4600EB810006EB460100EB8104E4
:1016C00094F82C0020281BD190B2FFF797FA0DB1A7
:1016D0004F2200E05822794984F82C200868401CE9
:1016E00000EBD07323F00103C01A0860D4E90901AC
:1016F000FFF725FB2A4631463846BDE8F0417BE638
:10170000BDE8F081F0B5724A0C46054600681168E4
:101710009DB088427ED39368194481427AD3206871
:101720005168884276D3D2681144814272D3012233
:1017300011461BA8FFF772FDDDE91B01CDE9000191
:101740000830009001F10C000190022201211BA839
:10175000FFF764FDDDE91B01CDE9020108300290CD
:1017600001F10C000390032201211BA8FFF756FD95
:10177000DDE91B01CDE904010830049001F10C0002
:101780000590012202211BA8FFF748FDDDE91B019E
:10179000CDE906010830069001F10C000222079005
:1017A00011461BA8FFF73AFDDDE91B01CDE9080151
:1017B0000830089001F10C000990032202211BA8B7
:1017C000FFF72CFDDDE91B01CDE90A0108300A9085
:1017D00001F10C000B90012203211BA8FFF71EFD55
:1017E000DDE91B01CDE90C0108300C9001F10C0082
:1017F0000D90022203211BA8FFF710FDDDE91B015C
:10180000CDE90E0108300E9001F10C0003221146C3
:101810000F9000E033E01BA8FFF700FDDDE91B019E
:10182000CDE910010830109001F10C0011902F68E3
:1018300023680022EC4612AE5CF83200391A0CEB39
:10184000C20049434068181A00FB001046F8220005
:10185000521C092AF0DB002012992860012203277C
:10186000206056F822308B4206DA92FBF7F02860AF
:1018700007FB102019462060521C092AF1DB1DB01D
:10188000F0BD13B501A96846FFF73CFF0B484FF4C4
:1018900078420368DDE90001FFF704FF1CBD00F09A
:1018A0001F020121914040094FF0E02202EB80002D
:1018B000C0F880117047000000A24A041400001014
:1018C0004954275320412044524157210000000031
:1018D0004400001000F0FE00022800D202209149CE
:1018E000086170479048016841F040010160016C57
:1018F00001644021816100F0CBB88A49CA68D206F0
:10190000FCD48860C868C006FCD4C8684007FCD511
:101910008868C0B2704770B5834D4024EC610520E3
:1019200000F0E1F89020FFF7E8FF052000F0DBF879
:1019300000F0E6F8AC6170BD70B57B4D4024EC6101
:10194000012000F0D0F8D020FFF7D7FF012000F0F1
:10195000CAF800F0D5F8AC6170BD70B50D4606460A
:10196000FFF7D9FF0446012000F0BDF8FFF7E4FFC0
:101970003460286070BD70B56C4D04460088A9883D
:10198000401A00F002FC6A4A6A4B00F08FFB00220A
:10199000694B00F088FB00F009FC208060886988B2
:1019A000401A00F0F2FB654A654B00F07FFB002215
:1019B000644B00F0D4FA00F0F9FB608070BD2DE9B3
:1019C000F04F4FF00008ABB0474646464546444608
:1019D000A021684600F0AFFADFF84CA1E94629A93A
:1019E00028A8FFF7BAFF289949F8241009EB8400CA
:1019F0002999641C0165E4B20120FEF79DFCDAF828
:101A00005400800401D4142CE9D3DFF820A14FF056
:101A1000000BAAF1040A5846AAF800B0AAF802B0CE
:101A200040F6AC5C4B4611E053F82010A1F1FA02ED
:101A3000624501D88844761C03EB8001096DA1F151
:101A4000FA02624501D80F446D1C401CA042EBDB3A
:101A500046B13DB198FBF6F1AAF8001097FBF5F1FD
:101A6000AAF802103148001FFFF785FFBAF80010EE
:101A70005046B1F5A07F02D84188F02903D9A0F8DB
:101A800000B0AAF802B029482BB0001FBDE8F08FC3
:101A90002D4808B550F8681C41F4806140F8681C76
:101AA0002A490A6822F47C220A600A6842F4282241
:101AB0000A60C16F21F44011C167C16F41F4801108
:101AC000C167184A0720106002205060B420FFF759
:101AD00001FFD068C006FCD401E090680090D06897
:101AE0004007FAD408BD002207E064210B00A1F1F1
:101AF000010189B2FAD1521C92B28242F5D37047E9
:101B000010B50020FFF7F9FE4FF6FF7101EA00243F
:101B10000520FFF7E8FF0020FFF7EFFE0443C4F3C2
:101B2000CB0010BD0000034000C0092020000010C1
:101B30001BA77C6363632540000074400392F28B13
:101B4000F9D42D400000F03F2CC10F4000C00240EE
:101B500010B52AA12D4800F0F9F92C480178002091
:101B600000F063F92A48016841F00101016010BDED
:101B700010B528A1254800F0E9F924480178002093
:101B800000F053F92248016841F00201016010BDE4
:101B900010B524A11D4800F0D9F91C480178002097
:101BA00000F043F91A48016841F00401016010BDDA
:101BB00010B520A1154800F0C9F91448017800209B
:101BC00000F033F9FFF7FBFE028804462AB1638870
:101BD0001BB11FA1214800F0BBFB0D48016841F07B
:101BE000080101602088002806D06188002903D000
:101BF000BDE81040FFF745BE10BD00000A0D494E7C
:101C0000543020707265737365640A0038010010E7
:101C100040C10F400A0D4B455931207072657373F6
:101C200065640A000A0D4B45593220707265737362
:101C300065640A000A0D544F5543482053435245EA
:101C4000454E2070726573736564200A00000000C1
:101C5000783D256420793D2564000000D400001003
:101C60001A4810B5016941F48011016118490A6CE4
:101C700022F480620A64026942F4800202610A6C02
:101C800022F400620A64026942F080720261086C08
:101C900020F4805008640F4907200860142000F0E9
:101CA00008F8132000F005F8BDE810401220AFF34B
:101CB000008000F01F020121914040094FF0E02216
:101CC00002EB8000C0F800117047000000C0024025
:101CD00000C0092048C10F4014494A6D144B53F805
:101CE000200002434A65486D1249087070470F4949
:101CF0004A6D0F4B53F8200082434A65486D0D49E9
:101D00000870704770B500240546012606FA04F0F5
:101D10002842204602D0FFF7DFFF01E0FFF7E7FF90
:101D2000641C082CF2DB0348057070BD00C009205C
:101D3000543A0000300000100B4801696FF30F01A6
:101D400001610A48016C41F0FF010164FF218165D6
:101D5000C16507490020087070470448016C21F0F4
:101D6000FF0101647047000000C0024000C009206C
:101D70003000001070B5124CA06800F0FE00022880
:101D800009D0032815D0042804D125782846FFF768
:101D9000B9FF257070BD0C490A4A0868135C23B16D
:101DA000401C0860105C207070BD0020086010703E
:101DB00070BD40202070BDE87040FF20FFF7A2BF3B
:101DC00000C000403801001034000010204910B558
:101DD000002808681DD040F400700860086840F4CE
:101DE00000600860072000F026F81A4803210173FC
:101DF000027B42F0800202730D2202700022027107
:101E0000102280F82820027B02F07F0202734160DA
:101E100010BD40F010000860086840F04000086005
:101E2000052000F008F80C48E0E710B109480170FF
:101E300070470948FBE700F01F020121914040096B
:101E40004FF0E02202EB8000C0F800117047000064
:101E500000C002400080094000C000404FF0402018
:101E60000121016008480168084821B1816941F0F9
:101E7000806181617047C16941F08061C1617047D3
:101E800003490120086070473800001000C0092095
:101E900000800040012110B12048416070474FF0A0
:101EA0004020FAE7002110B11C48416070474FF014
:101EB0004020FAE728B11949486840F0020048601C
:101EC00070474FF04021F7E710B5032218B1012801
:101ED00010D0002010BD4FF04020816142611048B9
:101EE0004168002141600F48016841F08061016054
:101EF000012003E0094881614261022000F002F8FC
:101F0000012010BD00F01F020121914040094FF057
:101F1000E02202EB8000C0F8001170470080004012
:101F200000C0024000C00920D2B201E000F8012B3D
:101F3000491EFBD270470022F6E710B513460A4649
:101F400004461946FFF7F0FF204610BD034611F87E
:101F5000012B00F8012B002AF9D1184670472DE912
:101F6000FE4F804681EA0300C00F0C46009021F02E
:101F7000004123F00045B8EB0200A94105D24046DC
:101F8000214690461C460B46024623F00040104373
:101F900004D14046214603B0BDE8F08F270DC7F3BA
:101FA0000A00C3F30A510290401A0190402866DAF1
:101FB000C3F3130040F4801B0098924620B1002325
:101FC000D2EB030A63EB0B0B01985946C0F14002B8
:101FD000504600F01AF906460D4650465946019AF9
:101FE00000F032F910EB08006141002487EA115239
:101FF00084EAE7731A433BD0009A3AB3019A012A64
:102000004FEA075210DC001B61EB02014FF0004267
:1020100002EA0752CDE90042001C41F58011324628
:102020002B4600F030F9B6E7001B61EB0201001C03
:1020300041F5801300185B412018A2F5001747EB0B
:10204000030140EAD570B6196D4111E06D084FEA01
:10205000360645EAC0754FEA0752001B61EB0201E4
:10206000001C41F5801149084FEA30000019514128
:1020700032462B4603B0BDE8F04F00F0F7B80098A9
:10208000012240000023D0EB020263EBE0730098D2
:1020900021464FEAE074B8EB000061EB0401E9E788
:1020A00083F000435BE781F0004158E72DE9F04DF4
:1020B00081EA030404F0004B21F0004514464FF080
:1020C000000A23F0004150EA050220D054EA010240
:1020D0001DD0C5F30A570246C5F31303C1F313001D
:1020E000C1F30A5640F4801543F48013A7EB0608A9
:1020F000101BD64608F2FD3873EB050002D308F139
:10210000010801E092185B41B8F1000F03DA0020EA
:102110000146BDE8F08D00204FF48011064684464C
:102120000EE0171B73EB050705D3121B63EB0503CA
:1021300006434CEA010C49084FEA300092185B4113
:1021400050EA0107EDD152EA030012D082EA0400FE
:1021500083EA0501084303D100224FF0004308E061
:10216000101BAB4102D20122002302E06FF00102FA
:1021700053101AEB06004CEB085110EB0A0041EB30
:102180000B01BDE8F04D00F071B80EB5C10F80EA4B
:10219000E0700844CA07002140F233438DE80E0086
:1021A0000A460B4600F06FF803B000BDC1F30A52B7
:1021B00010B5C1F3130140F2FF3341F480119A428C
:1021C00001DA002010BD40F233439A42A2F23342BA
:1021D00003DC524200F028F810BD904010BD30B52D
:1021E0000B46014600202022012409E021FA02F5D5
:1021F0009D4205D303FA02F5491B04FA02F528446F
:10220000151EA2F10102F1DC30BD202A04DB203AC8
:1022100000FA02F1002070479140C2F1200320FA39
:1022200003F3194390407047202A04DB203A21FA37
:1022300002F00021704721FA02F3D040C2F12002DF
:102240009140084319467047202A06DBCB17203AF5
:1022500041FA02F043EAE07306E041FA02F3D040AB
:10226000C2F12002914008431946704710B5002B77
:1022700008DA401C41F1000192185B411A4301D178
:1022800020F0010010BD2DE9F04D92469B4611B1A2
:10229000B1FA81F202E0B0FA80F220329046FFF704
:1022A000B4FF04460F4640EA0A0041EA0B015346D8
:1022B0005A46084303D120463946BDE8F08D114601
:1022C00053EA010015D0C8F140025046FFF7ACFFB9
:1022D00005460E46504659464246FFF796FF0843CC
:1022E00001D0012000E00020054346EAE0762C43BF
:1022F00037430A984FEA4453A0EB08004FEAD4242E
:102300000A304FF0000244EA47544FEAD72502D57D
:1023100000200146D1E7010510196941DDE90845B2
:1023200000196941BDE8F04DA0E70000064C074DDB
:1023300006E0E06840F0010394E807009847103495
:10234000AC42F6D3FDF7C6FE743A0000943A0000A2
:102350000FB4084B10B504A902AA039800F014F8B2
:10236000044602A9002000F0B9F8204610BC5DF830
:1023700014FB0000DD240000002001E001C1121F59
:10238000002AFBD1704700002DE9FF4F89B09B4622
:102390000446002597E0252833D10027641C4E49C8
:1023A000B84601222378203B02FA03F0084202D00B
:1023B0000743641CF6E720782E2819D114F8010F82
:1023C00047F004072A280ED06FF02F022078A0F1E2
:1023D000300109290CD808EB880102EB410100EB20
:1023E0000108641CF2E70A98641C50F8048B0A90F8
:1023F000207800286BD0642808D0692806D075287A
:1024000020D05A460B9990476D1C5BE00A994FF01B
:102410000A0901C90A91002804DAC0F100004FF04E
:102420002D0102E0390504D52B218DF82010012162
:1024300003E0F90704D02021F7E78A4608AE0EE052
:102440000021FAE70A994FF00A0901C90A91F7E752
:102450004946FFF7C4FE01F1300106F8011D0028CE
:10246000F6D1ADEB060000F12009780701D44FF05A
:102470000108C84502DDA8EB090000E00020804605
:10248000002706E008A85A46C05D0B9990476D1CCE
:102490007F1C5745F6DB04E030205A460B999047E5
:1024A0006D1CB8F10001A8F10108F5DC05E016F893
:1024B000010B5A460B9990476D1CB9F10001A9F127
:1024C0000109F4DC641C207800287FF464AF0DB0AF
:1024D0002846BDE8F08F0000092801000A68531C57
:1024E0000B60107070470000F0B50B30154D20F0F8
:1024F00007010024144A0FE003688B420BD38B4280
:1025000005D95E1A43184768C3E9006700E04368CD
:10251000136002C004E0021D10680028ECD12046C0
:10252000002802D1286808B10020F0BD064A0748FB
:102530001060074A121A22F00702C0E900240120A5
:102540002860D7E7400000103C000010A4010010F4
:10255000A0010010000000000000000000000000CA
:10256000000000000000000000000000000000006B
:10257000000000000000000000000000000000005B
:1025800000000000000080018001800180018001C6
:102590008001800180018001800180018001800133
:1025A0000000000080018001000000000000000029
:1025B0000000000000000000CC00CC00CC00CC00EB
:1025C000CC00CC0000000000000000000000000073
:1025D00000000000000000000000000000000000FB
:1025E00000000000000000000000000000000000EB
:1025F000600C600C600C30063006FE1FFE1F3006BB
:1026000038071803FE1FFE1F180318038C018C01E6
:102610008C01000000008000E003F80F9C0E8C1C71
:102620008C188C009800F801E007800E801C8C1834
:102630008C189C18B80CF00FE0038000800000009C
:10264000000000000000000000000E181B0C110C20
:1026500011061106110311039B018E01C038C06CD5
:1026600060446044304430441844186C0C38000016
:10267000000000000000E001F0033807180618060B
:102680003003F001F000F8009C310E33061E061CEA
:10269000061C063FFC73F021000000000000000053
:1026A00000000000000000000C000C000C000C00FA
:1026B0000C000C0000000000000000000000000002
:1026C000000000000000000000000000000000000A
:1026D000000000000000000200038001C000C000F4
:1026E000600060003000300030003000300030000A
:1026F0003000300060006000C000C00080010003B6
:1027000000020000000020006000C0008001800185
:10271000000300030006000600060006000600068F
:10272000000600060003000380018001C000600075
:102730002000000000000000000000000000000079
:10274000C000C000D806F807E001300338070000D9
:102750000000000000000000000000000000000079
:102760000000000000000000000000000000000069
:1027700080018001800180018001FC3FFC3F8001DD
:102780008001800180018001000000000000000045
:102790000000000000000000000000000000000039
:1027A0000000000000000000000000000000000029
:1027B0000000000000008001800100010001800095
:1027C0000000000000000000000000000000000009
:1027D000000000000000000000000000E007E0072B
:1027E00000000000000000000000000000000000E9
:1027F00000000000000000000000000000000000D9
:1028000000000000000000000000000000000000C8
:10281000000000000000C000C00000000000000038
:10282000000000000000000C000C0006000600067E
:102830000003000300038003800180018001C000C9
:10284000C000C00060006000000000000000000048
:10285000000000000000E003F007380E180C0C1810
:102860000C180C180C180C180C180C180C180C1848
:10287000180C380EF007E003000000000000000014
:1028800000000000000000018001C001F00198017B
:102890008801800180018001800180018001800128
:1028A0008001800180018001000000000000000024
:1028B000000000000000E003F80F180C0C180C18C2
:1028C00000180018000C000600038001C000600022
:1028D00030001800FC1FFC1F00000000000000007A
:1028E000000000000000E001F807180E0C0C0C0CB2
:1028F000000C0006C003C007000C001800180C18DC
:102900000C18180CF807E00300000000000000009D
:10291000000000000000000C000E000F000F800DF2
:10292000C00C600C600C300C180C0C0CFC3FFC3F15
:10293000000C000C000C000C000000000000000067
:10294000000000000000F80FF80F180018000C003D
:10295000EC03FC071C0E001C0018001800180C18D3
:102960001C0C180EF807E003000000000000000037
:10297000000000000000C007F00F381C18181800F5
:102980000C00CC03EC0F3C0E1C1C0C180C180C1883
:10299000181C380EF007E0030000000000000000E3
:1029A000000000000000FC1FFC1F000C00060006D9
:1029B000000380038001C001C000E00060006000EF
:1029C0007000300030003000000000000000000007
:1029D000000000000000E003F007380E180C180C8F
:1029E000180C3806F007F007180C0C180C180C1807
:1029F0000C18380CF80FE003000000000000000085
:102A0000000000000000E003F007380E1C0C0C185A
:102A10000C180C181C1C381EF81BE0190018000CB0
:102A2000000C1C0EF807F001000000000000000080
:102A30000000000000000000000000000000000096
:102A40008001800100000000000000000000000084
:102A50000000000080018001000000000000000074
:102A60000000000000000000000000000000000066
:102A70008001800100000000000000000000000054
:102A800000000000800180010001000180000000C2
:102A90000000000000000000000000000000000036
:102AA000000000000010001C800FE003F800180078
:102AB000F800E003800F001C001000000000000080
:102AC0000000000000000000000000000000000006
:102AD00000000000F81F000000000000F81F0000C8
:102AE00000000000000000000000000000000000E6
:102AF00000000000000000000000000000000000D6
:102B00000000000008003800F001C007001F001896
:102B1000001FC007F001380008000000000000009E
:102B2000000000000000E003F80F180C0C180C184F
:102B30000018000C000600038001C000C000C000A7
:102B400000000000C000C000000000000000000005
:102B50000000000000000000E00718180420C2294F
:102B6000224A114409440944094409221113E20C80
:102B7000024004201818E0070000000000000000D8
:102B800000000000000080038003C006C006C006ED
:102B9000600C600C301830183018F83FF83F1C708B
:102BA0000C600C6006C006C00000000000000000C1
:102BB000000000000000FC03FC0F0C0C0C180C18AB
:102BC0000C180C0CFC07FC0F0C180C300C300C30E3
:102BD0000C300C18FC1FFC07000000000000000077
:102BE000000000000000C007F01F38381C300C70D7
:102BF00006600600060006000600060006000660E5
:102C00000C701C30F01FE007000000000000000006
:102C1000000000000000FE03FE0F060E0618061856
:102C2000063006300630063006300630063006180C
:102C30000618060EFE0FFE03000000000000000054
:102C4000000000000000FC3FFC3F0C000C000C00EA
:102C50000C000C00FC1FFC1F0C000C000C000C00F6
:102C60000C000C00FC3FFC3F0000000000000000D6
:102C7000000000000000F83FF83F1800180018009E
:102C800018001800F81FF81F180018001800180086
:102C900018001800180018000000000000000000D4
:102CA000000000000000E00FF83F3C780E6006E0F6
:102CB00007C00300030003FE03FE03C007C006C0F5
:102CC0000EC03CF0F83FE00F0000000000000000E4
:102CD0000000000000000C300C300C300C300C30C8
:102CE0000C300C30FC3FFC3F0C300C300C300C3006
:102CF0000C300C300C300C300000000000000000E4
:102D0000000000000000800180018001800180013E
:102D100080018001800180018001800180018001AB
:102D2000800180018001800100000000000000009F
:102D30000000000000000006000600060006000675
:102D4000000600060006000600060006000618063B
:102D500018063807F003E001000000000000000042
:102D600000000000000006300618060C06060603E8
:102D70008601C60066007600DE008E0106030606A8
:102D8000060C061806300660000000000000000077
:102D900000000000000018001800180018001800BB
:102DA0001800180018001800180018001800180063
:102DB00018001800F81FF81F0000000000000000B5
:102DC0000000000000000EE01EF01EF01EF036D8DD
:102DD00036D836D836D866CC66CC66CCC6C6C6C61B
:102DE000C6C6C6C686C386C3000000000000000039
:102DF0000000000000000C301C303C303C306C30D7
:102E00006C30CC30CC308C310C330C330C360C366F
:102E10000C3C0C3C0C380C300000000000000000A2
:102E2000000000000000E007F81F1C380E7006606C
:102E300003C003C003C003C003C003C003C00660D7
:102E40000E701C38F81FE0070000000000000000B2
:102E5000000000000000FC0FFC1F0C380C300C3090
:102E60000C300C300C18FC1FFC070C000C000C0084
:102E70000C000C000C000C00000000000000000022
:102E8000000000000000E007F81F1C380E7006600C
:102E900003E003C003C003C003C003C007E0066330
:102EA0000E3F1C3CF83FE0F700C0000000000000AF
:102EB000000000000000FE0FFE1F0638063006303E
:102EC00006300638FE1FFE0706030606060C061827
:102ED0000618063006300660000000000000000002
:102EE000000000000000E003F80F1C0C0C180C1888
:102EF0000C001C00F803E00F001E003806300630FE
:102F00000E301C1CF80FE00700000000000000005D
:102F1000000000000000FE7FFE7F80018001800134
:102F20008001800180018001800180018001800199
:102F3000800180018001800100000000000000008D
:102F40000000000000000C300C300C300C300C3055
:102F50000C300C300C300C300C300C300C300C3091
:102F60000C301818F81FE0070000000000000000F7
:102F700000000000000003600630063006300C1828
:102F80000C180C18180C180C380E30063006700788
:102F900060036003C001C0010000000000000000E9
:102FA0000000000000000360C361C361C3616633B9
:102FB000663366336633663366336C1B6C1B6C1B7F
:102FC0002C1A3C1E380E380E0000000000000000D5
:102FD0000000000000000FE00C7018303018700C7A
:102FE000600EC00780038003C003E006700C301C35
:102FF00018180C300E6007E0000000000000000010
:1030000000000000000003C006600C301C383818B7
:10301000300C6006E007C003800180018001800160
:10302000800180018001800100000000000000009C
:10303000000000000000FC7FFC7F006000300018F2
:10304000000C000600038001C00060003000180082
:103050000C000600FE7FFE7F000000000000000064
:10306000000000000000E003E0036000600060007A
:103070006000600060006000600060006000600050
:103080006000600060006000600060006000E003BD
:10309000E0030000000030003000600060006000CD
:1030A000C000C000C000C001800180018001000399
:1030B00000030003000600060000000000000000FE
:1030C000000000000000E003E00300030003000331
:1030D00000030003000300030003000300030003D8
:1030E0000003000300030003000300030003E003E8
:1030F000E003000000000000C001C00160036003A5
:10310000600330063006180C180C000000000000A8
:1031100000000000000000000000000000000000AF
:10312000000000000000000000000000000000009F
:10313000000000000000000000000000000000008F
:10314000000000000000FFFFFFFF00000000000083
:103150000000000000000C000C000C000C000C0033
:103160000C00000000000000000000000000000053
:10317000000000000000000000000000000000004F
:10318000000000000000000000000000000000003F
:10319000F003F8071C0C0C0C000FF00FF80C0C0CD3
:1031A0000C0C1C0FF80FF0180000000000000000CD
:1031B0000000000000001800180018001800180097
:1031C000D803F80F380C18181818181818181818E9
:1031D0001818380CF80FD803000000000000000099
:1031E00000000000000000000000000000000000DF
:1031F000C003F007300E180C180018001800180053
:10320000180C300EF007C0030000000000000000A2
:103210000000000000000018001800180018001836
:10322000C01BF01F301C1818181818181818181878
:103230001818301CF01FC01B000000000000000028
:10324000000000000000000000000000000000007E
:10325000C003F00F300C1818F81FF81F18001800E2
:103260003818301CF00FC0070000000000000000FC
:10327000000000000000800FC00FC000C000C000B0
:10328000F007F007C000C000C000C000C000C000D0
:10329000C000C000C000C00000000000000000002E
:1032A000000000000000000000000000000000001E
:1032B000E00DF80F180E0C0C0C0C0C0C0C0C0C0C7C
:1032C0000C0C180EF80FE00D000C0C0C1C06F80787
:1032D000F001000000001800180018001800180085
:1032E000D807F80F381C18181818181818181818B4
:1032F000181818181818181800000000000000000E
:10330000000000000000C000C0000000000000003D
:10331000C000C000C000C000C000C000C000C000AD
:10332000C000C000C000C00000000000000000009D
:10333000000000000000C000C0000000000000000D
:10334000C000C000C000C000C000C000C000C0007D
:10335000C000C000C000C000C000C000C000F80035
:103360007800000000000C000C000C000C000C00A9
:103370000C0C0C060C038C01CC006C00FC009C01B6
:103380008C030C030C060C0C000000000000000075
:10339000000000000000C000C000C000C000C0006D
:1033A000C000C000C000C000C000C000C000C0001D
:1033B000C000C000C000C00000000000000000000D
:1033C00000000000000000000000000000000000FD
:1033D0007C3CFF7EC7E383C183C183C183C183C1BA
:1033E00083C183C183C183C10000000000000000CD
:1033F00000000000000000000000000000000000CD
:103400009807F80F381C18181818181818181818D2
:1034100018181818181818180000000000000000EC
:10342000000000000000000000000000000000009C
:10343000C003F00F300C181818181818181818189E
:103440001818300CF00FC00300000000000000004E
:10345000000000000000000000000000000000006C
:10346000D803F80F380C1818181818181818181846
:103470001818380CF80FD803180018001800180096
:103480001800000000000000000000000000000024
:10349000C01BF01F301C1818181818181818181806
:1034A0001818301CF01FC01B001800180018001856
:1034B00000180000000000000000000000000000F4
:1034C000B007F003700030003000300030003000F2
:1034D000300030003000300000000000000000002C
:1034E00000000000000000000000000000000000DC
:1034F000E003F003380E180C3800F003C007000C8E
:10350000180C380EF007E003000000000000000077
:1035100000000000000000008000C000C000C000EB
:10352000F007F007C000C000C000C000C000C0002D
:10353000C000C000C00780070000000000000000BD
:10354000000000000000000000000000000000007B
:1035500018181818181818181818181818181818EB
:103560001818381CF01FE0190000000000000000CF
:10357000000000000000000000000000000000004B
:103580000C18180C180C180C3006300630066003A6
:1035900060036003C001C0010000000000000000E3
:1035A000000000000000000000000000000000001B
:1035B000C141C141C36163636363636336363636B9
:1035C00036361C1C1C1C1C1C0000000000000000E7
:1035D00000000000000000000000000000000000EB
:1035E0001C38381C300C6006C003C003C003C00385
:1035F0006006300C381C1C38000000000000000081
:1036000000000000000000000000000000000000BA
:103610001830301830187018600C600CE00CC006C0
:10362000C00680038003800380018001C001F00098
:10363000700000000000000000000000000000001A
:10364000FC1FFC1F000C000600038001C00060008E
:1036500030001800FC1FFC1F0000000000000000EC
:1036600000000000000000038001C000C000C00096
:10367000C000C000C000600060003000600040007A
:10368000C000C000C000C000C000C0008001000336
:1036900000000000000080018001800180018001A5
:1036A0008001800180018001800180018001800112
:1036B0008001800180018001800180018001800102
:1036C0008001000000006000C000C0018001800196
:1036D0008001800180010003000300060003000157
:1036E000800180018001800180018001C0006000B4
:1036F00000000000000000000000000000000000CA
:1037000000000000F010F81F080F0000000000008B
:1037100000000000000000000000000000000000A9
:103720000000000000000000000000000000000099
:103730000000000000000000000000000000000089
:103740000000000000000000000000000000000079
:103750000000000000000000000000000000C003A6
:10376000300C0810042004200240024002400240B5
:103770000240042004200810300CC00300000000A8
:103780000000000000000000000000000000C00376
:10379000F00FF81FFC3FFC3FFE7FFE7FFE7FFE7FA9
:1037A000FE7FFC3FFC3FF81FF00FC003000000004D
:1037B0000000000000000000000000000000000009
:1037C0000000E007F00F1818181818181818181823
:1037D0001818F00FE00700000000000000000000D3
:1037E00000000000000000000000000000000000D9
:1037F0000000E007F00FF81FF81FF81FF81FF81F70
:10380000F81FF00FE00700000000000000000000BB
:1038100000000000000000000000000000000000A8
:103820000000000000000000000000008001C00354
:103830006006300C18181818F81FF81F0000000058
:103840000000000000000000000000000000000078
:103850000000000000000000000000008001C00324
:10386000E007F00FF81FF81FF81FF81F0000000016
:10387000000000000000000000000000F81FF81F1A
:1038800018181818300C6006C003800100000000F2
:103890000000000000000000000000000000000028
:1038A000000000000000000000000000F81FF81FEA
:1038B000F81FF81FF00FE007C003800100000000B0
:1038C00000000000000000000000000000000000F8
:1038D00000000000000000000000000000000000E8
:1038E0000000E001F00198018C01860186018C0145
:1038F0009801F001E001000000000000000000005D
:1039000000000000000000000000000000000000B7
:103910000000E001F001F801FC01FE01FE01FC01E4
:10392000F801F001E00100000000000000000000CC
:103930000000000000000000000000000000000087
:1039400000008007800F80198031806180618031A4
:103950008019800F800700000000000000000000B8
:103960000000000000000000000000000000000057
:1039700000008007800F801F803F807F807F803F16
:10398000801F800F80070000000000000000000082
:10399000000000000000C0012002200240013006AB
:1039A0000808080808080808080808080808200285
:1039B00020022002200220022002200220022002F7
:1039C000200200000000C001E003E003C001F00796
:1039D000D80DD80DD80DD80DD80DD80DD80D600341
:1039E00060036003600360036003600360036003BF
:1039F000600300000000C0012002200240013006E8
:103A000008080808080804100220022040012002CB
:103A100020021004080808080410041004200440C0
:103A2000000000000000C001E003E003C001F00757
:103A3000D80DD80DD80DCC19C631C261C0016003B4
:103A400060037006380C180C0C180C180C300C6045
:103A5000000000000100000002000000040000005F
:103A600008000000100000002000000040000000DE
:103A700080000000943A00000000001044000000A4
:103A8000EC020000D83A0000440000105C03000083
:103A90007823000000093D00000000000000000045
:103AA0000000FFFF00000000000000000000000018
:103AB00000000000A60EFA00FA00FA00A60ED80ECA
:103AC000FA00D80E00000000000000000100000015
:083AD0000000000000000000EE
:04000005000000CD2A
:00000001FF
