:020000040000FA
:1000000088030010E5000000E9000000EB0000009C
:10001000ED000000EF000000F10000000000000013
:10002000000000000000000000000000F3000000DD
:10003000F500000000000000F7000000F9000000DB
:10004000FB000000D9130000FD130000FB000000BE
:10005000FB000000F1120000FB000000FB000000AC
:10006000FB000000FB000000FB000000FB000000A4
:10007000FB000000FB000000FB000000FB00000094
:10008000FB000000FB000000A5140000C5140000E8
:10009000E514000005150000FB000000FB00000057
:1000A000FB000000FB000000FB000000FB00000064
:1000B000FB000000FB000000FB000000FB00000054
:1000C000FB000000FB000000FB000000DFF80CD08C
:1000D00001F068FC00480047590200008803001046
:1000E00000BF704705480047FEE7FEE7FEE7FEE772
:1000F000FEE7FEE7FEE7FEE7FEE7FEE7CD000000D5
:1001000030B54D492020C1F8A001D1F8A00140062A
:10011000FBD501F180010325C1F884504FF00002A6
:10012000C1F82821C1F82C214FF00100C1F88C0042
:10013000424B4B6008604FF0AA03CB604FF0550470
:10014000CC60A1F18001D1F888004001FBD541F8D5
:10015000805FCB60CC60C1F8882039484864C1F822
:100160004821886880396FEA10608007354AD1F8E5
:100170000C0100F0030007D0E8B3012845D00228A5
:1001800049D0032850D13AE028B1012813D00228E1
:1001900022D0032848D151F8880FC0F30740CB6F15
:1001A000401CDBB25B1C584351F88839264CC3F322
:1001B0000E035B1C0EE051F8880FC0F30740CB6FB5
:1001C000401CDBB25B1C584351F888391F4CC3F309
:1001D0000E035B1C634324E051F8880FC0F3074013
:1001E000CB6F401CDBB25B1C584351F88839C3F31A
:1001F0000E035B1C00E002E04FF47A44EAE7D1F81A
:100200000401134BC0B2401C0BE0D1F80401114BA8
:10021000C0B2401C05E0D1F804014FF4FA43C0B26B
:10022000401CB3FBF0F01060086820F4704040F40C
:100230008040086030BD000000C00F406300050032
:10024000DE8728040000001000127A0000366E01DC
:1002500000093D00001BB7001CB5FFF751FF00F07F
:1002600068F80F2000F0B6F90F2000F0B0F94FF455
:100270007844204600F0A8F913A26C21482000F031
:1002800031FA144800F0F8FA0F2000F0A3F9032126
:10029000CDE90041C8231A4612213C2000F073FB2F
:1002A0000DA20A21142000F00AFA01F003F800F070
:1002B00095FF4FF47A61002001F0C4F8002001F0AE
:1002C000A7F800F043FEFEE75469632D5461632DE7
:1002D000546F6500005A6202546963546163546F3D
:1002E00065000000034611F8012B00F8012B002ADD
:1002F000F9D118467047704700000000FFFFFFFF6C
:100300008004401EFDD27047401EFDD27047F9495F
:100310000A6C42F0FF020A644FF400128A619210E4
:10032000CA61486552008A61CA61000A48650120B5
:100330007047F04810B5016841F07E7101604FF0E0
:100340007E7181610520FFF7DBFF1021E72000F0BF
:1003500081FA0121002000F07DFA4FF48071012024
:1003600000F078FA4FF4E061022000F073FA41F2F5
:100370003001032000F06EFA0021042000F06AFA38
:1003800040F20721082000F065FA0021092000F062
:1003900061FA00210A2000F05DFA01210C2000F032
:1003A00059FA00210D2000F055FA00210F2000F02D
:1003B00051FA0021102000F04DFA0721112000F021
:1003C00049FA0021122000F045FA0021132000F024
:1003D00041FA0F20FFF794FF41F29051102000F0F6
:1003E00039FA40F22721112000F034FA0F20FFF7EC
:1003F00087FF9C21122000F02DFA0F20FFF780FFCD
:100400004FF4C851132000F025FA2321292000F0D1
:1004100021FA0E212B2000F01DFA0F20FFF770FFAC
:100420000021202000F016FA0021212000F012FA0D
:100430000F20FFF765FF0721302000F00BFA40F294
:100440000771312000F006FA0621322000F002FA8E
:1004500040F20471352000F0FDF941F604713620B8
:1004600000F0F8F90421372000F0F4F900213820D9
:1004700000F0F0F940F20671392000F0EBF940F29B
:1004800001713C2000F0E6F90F213D2000F0E2F977
:100490000F20FFF735FF0021502000F0DBF9EF219E
:1004A000512000F0D7F90021522000F0D3F940F29A
:1004B0003F11532000F0CEF94FF42741602000F0A7
:1004C000C9F90121612000F0C5F900216A2000F07E
:1004D000C1F90021802000F0BDF90021812000F049
:1004E000B9F90021822000F0B5F90021832000F045
:1004F000B1F90021842000F0ADF90021852000F041
:10050000A9F91021902000F0A5F90021922000F017
:10051000A1F90321932000F09DF94FF488719520F3
:1005200000F098F90021972000F094F9002198201C
:1005300000F090F940F23311072000F08BF9002110
:10054000202000F087F90021212000F083F941F2FA
:100550003801032000F07EF9BDE8104040F273112D
:10056000072000F077B910B50021502000F072F993
:10057000EF21512000F06EF90021522000F06AF9BD
:10058000BDE8104040F23F11532000F063B970B550
:100590000D460446FFF7E7FFA9B2202000F05AF904
:1005A000A4F23F14604281B2212000F053F9514D72
:1005B0004FF48004EC61222000F021F94E480088BD
:1005C00000F02DF9AC6170BD4B49088070474A4975
:1005D000488070472DE9F0418046FFF7C4FF0021B5
:1005E000202000F037F90021212000F033F9414D9F
:1005F0004FF48006EE61222000F001F97000A8613E
:1006000000244FF49637404600F019F9641CBC42B0
:10061000F9D3AE61BDE8F0812DE9F05F0D46C0F57C
:10062000987416464FF0000889B2502000F012F975
:1006300005F1170081B2512000F00CF9A1B252204F
:1006400000F008F904F10F0081B2532000F002F924
:10065000A9B2202000F0FEF8A1B2212000F0FAF8A3
:10066000DFF890A04FF4800B5446CAF81CB022204B
:1006700000F0C5F84FF40000A0611F4F00254FF0B7
:1006800001090F2436F8181009FA04F001420CD0C1
:10069000388800F0D4F8641EF4D5B61C6D1C182DF3
:1006A000EFDBCAF818B0BDE8F09F7888F1E7203A90
:1006B000D2B2124B02EB420203EB0212ACE770B56E
:1006C00014460546A1F11806FFF74DFF06E006F1B6
:1006D0001801641C0E462846FFF7E9FF2278002A1D
:1006E000F5D170BD70B514460D46A0F11006FFF7A8
:1006F0003AFF0CE000C00920040000106A1B000053
:1007000006F11000641C06462946FFF7D0FF227848
:10071000002AF5D170BD2DE9F05F0E468046DDE977
:100720000A0553499946924608806D1ED04510D15E
:10073000A8EB550708EB550B09E0344604E02146C9
:100740003846FFF724FF641C4C45F8D97F1CBB4595
:10075000F3D84E45A7D1A6EB5507444606EB550600
:1007600009E03D4604E029462046FFF710FF6D1CD6
:10077000AE42F8D8641C5445F3D994E72DE9F0470C
:1007800082463B48089E88460380761E0D4601EB54
:10079000020910E00AEB0501A1EB0800A0EB5604EA
:1007A00000EB560704E029462046FFF7F0FE641CE4
:1007B000A742F8D26D1CA945ECD2BDE8F0872DE91F
:1007C000F04782462A48089E88460380761E0D46DA
:1007D00001EB020910E0AAEB050101EB0800A0EB18
:1007E000560400EB560704E029462046FFF7CFFEEB
:1007F000641CA742F8D26D1CA945ECD2DDE770B5A8
:100800001C4C4FF40001E1618900A161FFF77FFDFD
:100810004FF08075E561FFF763FCA56170BD70B5B1
:10082000144C4FF40001A1618900A161FFF76FFD35
:100830004FF08075E561FFF753FCA56170BD70B5A1
:10084000FFF765FD0B4C4FF08075E561FFF748FC45
:10085000A56170BD70B5074C4FF480050E46E5618B
:10086000FFF7CDFF3046FFF7DAFFA56170BD00004E
:100870000400001000C00920002100E0491C814252
:10088000FCDB704730B5FE4C2568A36902FB0352C0
:10089000A2EB53036568E269083B01FB0251A1EB3F
:1008A00052010C39C0E9003130BDFCB507ACB4E8E9
:1008B000E050F34C84E8EF50012211466846FFF700
:1008C000E1FFDDE90001C4E90901202584F82C508D
:1008D000022201216846FFF7D5FFDDE90001C4E9E6
:1008E0000C0184F83850032201216846FFF7CAFF43
:1008F000DDE90001C4E90F0184F84450012202211E
:100900006846FFF7BFFFDDE90001C4E912010222DA
:1009100084F8505011466846FFF7B4FFDDE9000146
:10092000C4E9150184F85C50032202216846FFF7F0
:10093000A9FFDDE90001C4E9180184F8685001222B
:1009400003216846FFF79EFFDDE90001C4E91B01B2
:1009500084F87450022203216846FFF793FFDDE913
:100960000001C4E91E01032284F880501146684644
:10097000FFF788FFDDE9001204F18000C0E90112F1
:1009800084F88C50FCBD2DE9FF4F0E4685B0032145
:1009900081460798B3FBF1FAB0FBF1F7DDE91245A8
:1009A0000A20CDE903A08DE8B000984631464846BC
:1009B000079AFFF77AFF06F10A030094CDE9015385
:1009C000B044A8F10A0B09EB070019465B46024642
:1009D000FFF7A1FE09EB47005B46CDE90045024663
:1009E0000299FFF798FE079A06EB0A0109EB020746
:1009F000A7F10A0209F10A00CDE9004593460B462A
:100A00000290FFF788FE06EB4A015A46CDE9004501
:100A10000B460298FFF77FFEAD1C4A46434631461F
:100A20001046CDE90045FFF776FE3A4643461046AC
:100A30003146CDE90045FFF76EFE33463A4619468A
:100A40004846CDE90045FFF766FE3A464146434633
:100A50004846CDE90045FFF75EFE09B0BDE8F08FDE
:100A60002DE9FC5F144689468446002601220221B6
:100A70006846FFF707FF8348DDE900754168DFF846
:100A80000082491C41600CEBCC0108EB810090F81E
:100A90002C300CB14F2200E058224FF0050B4FF6DE
:100AA000E07A09EB4909934235D190F838200CB12E
:100AB0004F2100E058218A422DD190F844200CB1FA
:100AC0004F2100E058218A4225D1CDE900AB00EB4F
:100AD0008901C26B896A406A0C31183208380B46AA
:100AE000FFF719FE5046FFF76FFD294607F110008A
:100AF00065A2FFF7F7FD152000F005FA6548FFF73E
:100B0000BBFED8F81C0064A22918D8F80000401DCC
:100B1000FFF7E8FD012608EB890090F82C200CB1C6
:100B20004F2100E058218A4233D190F850200CB177
:100B30004F2100E058218A422BD190F874200CB14B
:100B40004F2100E058218A4223D1CDE900AB426A0F
:100B5000036F816A083224330C391046FFF7DBFD3E
:100B60005046FFF731FD294607F1100046A2FFF776
:100B7000B9FD152000F0C7F94648FFF77DFED8F80B
:100B80001C0045A22918D8F80000401DFFF7AAFD57
:100B9000761C98F82C100CB14F2000E058204FF034
:100BA0002409814238D198F85C2041460CB14F208D
:100BB00000E0582082422FD191F88C200CB14F20B8
:100BC00000E05820824227D1CDF800B0D8F81C10A0
:100BD000D8F8240009EB4102D8F8281010380C3955
:100BE0005346FFF7CBFD5046FFF7EEFC294607F1D1
:100BF000100025A2FFF776FD152000F084F92548A6
:100C0000FFF73AFED8F81C0023A22918D8F80000F4
:100C1000401DFFF767FD761C98F874100CB14F204B
:100C200000E0582081424DD198F85C100CB14F2063
:100C300000E05820814245D198F844100CB14F2073
:100C400000E0582081423DD1CDF800B0D8F81C100A
:100C5000D8F83C0009EB4102D8F8401018300C39A4
:100C60005346FFF7ACFD5046FFF7AEFC294607F1AF
:100C7000100005A2FFF736FD152000F044F913E03F
:100C80003000001008000010594F552057494E21E0
:100C90000000000000A24A045072657373205245A0
:100CA00053455421000000009D48FFF7E5FDD8F8AA
:100CB0001C002918D8F80000401DAFF22402FFF7ED
:100CC00011FD761C9748406809281DD1002E1BD1C4
:100CD0005046FFF779FCD8F8000029464446401DED
:100CE00091A2FFF7FFFC152000F00DF98C48FFF7EB
:100CF000C3FDE06929182068401DAFF2640202B00C
:100D0000BDE8F05FFFF7EEBCBDE8FC9F2DE9F041C8
:100D10000E46074600EBC70187481D4600EB8100E1
:100D200006EB460100EB810494F82C0020281BD12F
:100D300090B2FFF749FC0DB14F2200E058227949EB
:100D400084F82C200868401C00EBD07323F00103CA
:100D5000C01A0860D4E90901FFF7A9FC2A46314608
:100D60003846BDE8F0417BE6BDE8F081F0B5724A57
:100D70000C460546006811689DB088427ED3936892
:100D8000194481427AD320685168884276D3D26868
:100D90001144814272D3012211461BA8FFF772FD54
:100DA000DDE91B01CDE900010830009001F10C00E4
:100DB0000190022201211BA8FFF764FDDDE91B0160
:100DC000CDE902010830029001F10C0003900322EA
:100DD00001211BA8FFF756FDDDE91B01CDE9040148
:100DE0000830049001F10C000590012202211BA89B
:100DF000FFF748FDDDE91B01CDE90601083006904B
:100E000001F10C000222079011461BA8FFF73AFDE2
:100E1000DDE91B01CDE908010830089001F10C0063
:100E20000990032202211BA8FFF72CFDDDE91B011D
:100E3000CDE90A0108300A9001F10C000B90012263
:100E400003211BA8FFF71EFDDDE91B01CDE90C0105
:100E500008300C9001F10C000D90022203211BA818
:100E6000FFF710FDDDE91B01CDE90E0108300E9002
:100E700001F10C00032211460F9000E033E01BA8A3
:100E8000FFF700FDDDE91B01CDE9100108301090EE
:100E900001F10C0011902F6823680022EC4612AE7D
:100EA0005CF83200391A0CEBC20049434068181A4A
:100EB00000FB001046F82200521C092AF0DB00203B
:100EC0001299286001220327206056F822308B42B5
:100ED00006DA92FBF7F0286007FB10201946206025
:100EE000521C092AF1DB1DB0F0BD13B501A96846FB
:100EF000FFF73CFF0B484FF478420368DDE900013F
:100F0000FFF704FF1CBD00F01F02012191404009C2
:100F10004FF0E02202EB8000C0F880117047000023
:100F200000A24A04080000104954275320412044DD
:100F300052415721000000003000001000F0FE0078
:100F4000022800D202209A4908617047994810B5DA
:100F5000016941F0806101619748016841F04001F9
:100F60000160016C01644021816100F0D6F8934872
:100F70000168083101604FF0E0204FF40011C0F823
:100F8000001110BD8A49CA68D206FCD48860C868BE
:100F9000C006FCD4C8684007FCD58868C0B270475A
:100FA00070B5854D4024EC61052000F0E2F89020FA
:100FB000FFF7E8FF052000F0DCF800F0E7F8AC618F
:100FC00070BD70B57C4D4024EC61012000F0D1F87B
:100FD000D020FFF7D7FF012000F0CBF800F0D6F8C3
:100FE000AC6170BD70B50D460646FFF7D9FF0446EB
:100FF000012000F0BEF8FFF7E4FF3460286070BD08
:1010000070B56F4D04460088A988401A00F0FAFBBD
:101010006C4A6D4B00F087FB00226C4B00F080FBAC
:1010200000F001FC208060886988401A00F0EAFB2B
:10103000674A684B00F077FB0022674B00F0CCFA60
:1010400000F0F1FB608070BD2DE9F04F4FF000081B
:10105000ABB04746464645464446A021684600F0A8
:10106000B0FADFF854A1E94629A928A8FFF7BAFF8A
:10107000289949F8241009EB84002999641C01651A
:10108000E4B20120FFF73CF9DAF85400800401D4FF
:10109000142CE9D3DFF828A14FF0000BAAF1040AC1
:1010A0005846AAF800B0AAF802B040F6AC5C4B462D
:1010B00011E053F82010A1F1FA02624501D88844EA
:1010C000761C03EB8001096DA1F1FA02624501D89B
:1010D0000F446D1C401CA042EBDB46B13DB198FBB8
:1010E000F6F1AAF8001097FBF5F1AAF802103448BF
:1010F000001FFFF785FFBAF800105046B1F5A07F3A
:1011000002D84188F02903D9A0F800B0AAF802B0AB
:101110002B482BB0001FBDE8F08F284808B51C38BD
:1011200050F8681C41F4806140F8681C21490A6845
:1011300022F47C220A600A6842F428220A60C16F05
:1011400021F44011C167C16F41F48011C167184A91
:101150000720106002205060B420FFF7EFFED06837
:10116000C006FCD401E090680090D0684007FAD433
:1011700008BD002207E064210B00A1F1010189B242
:10118000FAD1521C92B28242F5D3704710B50020BA
:10119000FFF7F8FE4FF6FF7101EA00240520FFF784
:1011A000E8FF0020FFF7EEFE0443C4F3CB0010BDC0
:1011B0000000034000C0024000C0092048C10F40A9
:1011C000140000101BA77C6363632540000074407B
:1011D0000392F28BF9D42D400000F03F1A4810B56D
:1011E000016941F48011016118490A6C22F480629E
:1011F0000A64026942F4800202610A6C22F400620D
:101200000A64026942F080720261086C20F4805026
:1012100008640F4907200860142000F008F8132024
:1012200000F005F8BDE810401220AFF3008000F098
:101230001F020121914040094FF0E02202EB8000A3
:10124000C0F800117047000000C0024000C0092033
:1012500048C10F4014494A6D144B53F82000024313
:101260004A65486D1249087070470F494A6D0F4B27
:1012700053F8200082434A65486D0D490870704755
:1012800070B500240546012606FA04F028422046DF
:1012900002D0FFF7DFFF01E0FFF7E7FF641C082C37
:1012A000F2DB0348057070BD00C009206C300000FF
:1012B000240000100B4801696FF30F0101610A4817
:1012C000016C41F0FF010164FF218165C16507499F
:1012D0000020087070470448016C21F0FF01016490
:1012E0007047000000C0024000C009202400001028
:1012F00070B5124CA06800F0FE00022809D0032847
:1013000015D0042804D125782846FFF7B9FF2570A9
:1013100070BD0C490A4A0868135C23B1401C086080
:10132000105C207070BD00200860107070BD4020FF
:101330002070BDE87040FF20FFF7A2BF00C0004052
:10134000C000001028000010204910B500280868CF
:101350001DD040F400700860086840F40060086028
:10136000072000F026F81A4803210173027B42F09F
:10137000800202730D22027000220271102280F896
:101380002820027B02F07F020273416010BD40F012
:1013900010000860086840F040000860052000F078
:1013A00008F80C48E0E710B1094801707047094897
:1013B000FBE700F01F020121914040094FF0E022BD
:1013C00002EB8000C0F800117047000000C002402E
:1013D0000080094000C000404FF040200121016022
:1013E00008480168084821B1816941F08061816144
:1013F0007047C16941F08061C161704703490120B4
:10140000086070472C00001000C0092000800040D8
:10141000012110B12048416070474FF04020FAE7A9
:10142000002110B11C48416070474FF04020FAE79E
:1014300028B11949486840F00200486070474FF0F1
:101440004021F7E710B5032218B1012810D0002081
:1014500010BD4FF040208161426110484168002179
:1014600041600F48016841F080610160012003E0A4
:10147000094881614261022000F002F8012010BD9C
:1014800000F01F020121914040094FF0E02202EBE1
:101490008000C0F8001170470080004000C002408A
:1014A00000C0092010B52AA12D48FEF71BFF2C48CB
:1014B00001780020FFF777FF2A48016841F0010119
:1014C000016010BD10B528A12548FEF70BFF244888
:1014D00001780020FFF767FF2248016841F0020110
:1014E000016010BD10B524A11D48FEF7FBFE1C488D
:1014F00001780020FFF757FF1A48016841F0040106
:10150000016010BD10B520A11548FEF7EBFE144890
:1015100001780020FFF747FFFFF796FD0288044699
:101520002AB163881BB11FA1214800F04DFA0D4874
:10153000016841F0080101602088002806D0618818
:10154000002903D0BDE81040FFF7CFBC10BD00005C
:101550000A0D494E543020707265737365640A0039
:10156000C000001040C10F400A0D4B45593120709A
:101570007265737365640A000A0D4B455932207019
:101580007265737365640A000A0D544F5543482011
:1015900053435245454E2070726573736564200A4B
:1015A00000000000783D256420793D25640000009E
:1015B00024010010D2B201E000F8012B491EFBD239
:1015C00070470022F6E710B513460A46044619464E
:1015D000FFF7F0FF204610BD2DE9FE4F804681EA5F
:1015E0000300C00F0C46009021F0004123F000459D
:1015F000B8EB0200A94105D24046214690461C4660
:101600000B46024623F00040104304D140462146D9
:1016100003B0BDE8F08F270DC7F30A00C3F30A51EA
:101620000290401A0190402866DAC3F3130040F498
:10163000801B0098924620B10023D2EB030A63EB93
:101640000B0B01985946C0F14002504600F01AF9C0
:1016500006460D4650465946019A00F032F910EB05
:1016600008006141002487EA115284EAE7731A43B3
:101670003BD0009A3AB3019A012A4FEA075210DC94
:10168000001B61EB02014FF0004202EA0752CDE974
:101690000042001C41F5801132462B4600F030F923
:1016A000B6E7001B61EB0201001C41F58013001836
:1016B0005B412018A2F5001747EB030140EAD57003
:1016C000B6196D4111E06D084FEA360645EAC0755E
:1016D0004FEA0752001B61EB0201001C41F580112B
:1016E00049084FEA30000019514132462B4603B0F9
:1016F000BDE8F04F00F0F7B8009801224000002349
:10170000D0EB020263EBE073009821464FEAE074ED
:10171000B8EB000061EB0401E9E783F000435BE70D
:1017200081F0004158E72DE9F04D81EA030404F00F
:10173000004B21F0004514464FF0000A23F0004111
:1017400050EA050220D054EA01021DD0C5F30A5721
:101750000246C5F31303C1F31300C1F30A5640F464
:10176000801543F48013A7EB0608101BD64608F239
:10177000FD3873EB050002D308F1010801E092186F
:101780005B41B8F1000F03DA00200146BDE8F08D9F
:1017900000204FF48011064684460EE0171B73EBC1
:1017A000050705D3121B63EB050306434CEA010C46
:1017B00049084FEA300092185B4150EA0107EDD129
:1017C00052EA030012D082EA040083EA05010843CA
:1017D00003D100224FF0004308E0101BAB4102D2BE
:1017E0000122002302E06FF0010253101AEB060001
:1017F0004CEB085110EB0A0041EB0B01BDE8F04D3A
:1018000000F071B80EB5C10F80EAE0700844CA0755
:10181000002140F233438DE80E000A460B4600F0EB
:101820006FF803B000BDC1F30A5210B5C1F3130144
:1018300040F2FF3341F480119A4201DA002010BDDA
:1018400040F233439A42A2F2334203DC524200F0A8
:1018500028F810BD904010BD30B50B460146002061
:101860002022012409E021FA02F59D4205D303FA62
:1018700002F5491B04FA02F52844151EA2F10102E3
:10188000F1DC30BD202A04DB203A00FA02F100200E
:1018900070479140C2F1200320FA03F319439040AE
:1018A0007047202A04DB203A21FA02F00021704719
:1018B00021FA02F3D040C2F12002914008431946B8
:1018C0007047202A06DBCB17203A41FA02F043EAA0
:1018D000E07306E041FA02F3D040C2F120029140E9
:1018E00008431946704710B5002B08DA401C41F137
:1018F000000192185B411A4301D120F0010010BD94
:101900002DE9F04D92469B4611B1B1FA81F202E009
:10191000B0FA80F220329046FFF7B4FF04460F463B
:1019200040EA0A0041EA0B0153465A46084303D1F4
:1019300020463946BDE8F08D114653EA010015D026
:10194000C8F140025046FFF7ACFF05460E46504630
:1019500059464246FFF796FF084301D0012000E0B8
:101960000020054346EAE0762C4337430A984FEAC5
:101970004453A0EB08004FEAD4240A304FF0000291
:1019800044EA47544FEAD72502D500200146D1E763
:10199000010510196941DDE9084500196941BDE8F3
:1019A000F04DA0E7064C074D06E0E06840F001036B
:1019B00094E8070098471034AC42F6D3FEF78AFB50
:1019C0008C300000AC3000000FB4084B10B504A9F7
:1019D00002AA039800F01AF8044602A9002000F0B9
:1019E000BFF8204610BC5DF814FB0000611B00002E
:1019F00002E008C8121F08C1002AFAD1704700206F
:101A000001E001C1121F002AFBD170472DE9FF4FF1
:101A100089B09B460446002597E0252833D100274E
:101A2000641C4E49B84601222378203B02FA03F099
:101A3000084202D00743641CF6E720782E2819D10B
:101A400014F8010F47F004072A280ED06FF02F0278
:101A50002078A0F1300109290CD808EB880102EBAD
:101A6000410100EB0108641CF2E70A98641C50F87D
:101A7000048B0A90207800286BD0642808D069284D
:101A800006D0752820D05A460B9990476D1C5BE014
:101A90000A994FF00A0901C90A91002804DAC0F135
:101AA00000004FF02D0102E0390504D52B218DF8FF
:101AB0002010012103E0F90704D02021F7E78A462E
:101AC00008AE0EE00021FAE70A994FF00A0901C9B1
:101AD0000A91F7E74946FFF7BFFE01F1300106F82A
:101AE000011D0028F6D1ADEB060000F120097807B2
:101AF00001D44FF00108C84502DDA8EB090000E061
:101B000000208046002706E008A85A46C05D0B99D1
:101B100090476D1C7F1C5745F6DB04E030205A4689
:101B20000B9990476D1CB8F10001A8F10108F5DC94
:101B300005E016F8010B5A460B9990476D1CB9F158
:101B40000001A9F10109F4DC641C207800287FF46D
:101B500064AF0DB02846BDE8F08F000009280100F1
:101B60000A68531C0B6010707047000000000000F2
:101B70000000000000000000000000000000000065
:101B80000000000000000000000000000000000055
:101B90000000000000000000000000008001800143
:101BA000800180018001800180018001800180012D
:101BB00080018001800100000000800180010000A0
:101BC0000000000000000000000000000000CC0049
:101BD000CC00CC00CC00CC00CC0000000000000009
:101BE00000000000000000000000000000000000F5
:101BF00000000000000000000000000000000000E5
:101C0000000000000000600C600C600C3006300624
:101C1000FE1FFE1F300638071803FE1FFE1F1803A5
:101C200018038C018C018C01000000008000E0038F
:101C3000F80F9C0E8C1C8C188C009800F801E007A3
:101C4000800E801C8C188C189C18B80CF00FE003C8
:101C50008000800000000000000000000000000084
:101C60000E181B0C110C11061106110311039B0118
:101C70008E01C038C06C6044604430443044184425
:101C8000186C0C380000000000000000E001F003B8
:101C90003807180618063003F001F000F8009C31F0
:101CA0000E33061E061C061C063FFC73F0210000C6
:101CB00000000000000000000000000000000C0018
:101CC0000C000C000C000C000C00000000000000D8
:101CD0000000000000000000000000000000000004
:101CE00000000000000000000000000000020003EF
:101CF0008001C000C0006000600030003000300093
:101D00003000300030003000300060006000C00063
:101D1000C0008001000300020000000020006000FD
:101D2000C0008001800100030003000600060006D9
:101D300000060006000600060006000300038001FE
:101D40008001C000600020000000000000000000D2
:101D5000000000000000C000C000D806F807E00145
:101D60003003380700000000000000000000000001
:101D70000000000000000000000000000000000063
:101D800000000000000080018001800180018001CE
:101D9000FC3FFC3F80018001800180018001000048
:101DA0000000000000000000000000000000000033
:101DB0000000000000000000000000000000000023
:101DC0000000000000000000000000008001800111
:101DD0000001000180000000000000000000000081
:101DE00000000000000000000000000000000000F3
:101DF0000000E007E0070000000000000000000015
:101E000000000000000000000000000000000000D2
:101E100000000000000000000000000000000000C2
:101E2000000000000000000000000000C000C00032
:101E3000000000000000000000000000000C000C8A
:101E40000006000600060003000300038003800173
:101E500080018001C000C000C00060006000000080
:101E6000000000000000000000000000E003F00798
:101E7000380E180C0C180C180C180C180C180C1820
:101E80000C180C180C18180C380EF007E0030000A2
:101E900000000000000000000000000000018001C0
:101EA000C001F0019801880180018001800180015A
:101EB000800180018001800180018001800100009B
:101EC000000000000000000000000000E003F80F28
:101ED000180C0C180C1800180018000C0006000351
:101EE0008001C000600030001800FC1FFC1F0000D3
:101EF000000000000000000000000000E001F80702
:101F0000180E0C0C0C0C000C0006C003C007000CD3
:101F1000001800180C180C18180CF807E003000043
:101F2000000000000000000000000000000C000E97
:101F3000000F000F800DC00C600C600C300C180CF2
:101F40000C0CFC3FFC3F000C000C000C000C0000D3
:101F5000000000000000000000000000F80FF80F73
:101F6000180018000C00EC03FC071C0E001C0018E5
:101F7000001800180C181C0C180EF807E0030000DD
:101F8000000000000000000000000000C007F00F8B
:101F9000381C181818000C00CC03EC0F3C0E1C1C4D
:101FA0000C180C180C18181C380EF007E003000071
:101FB000000000000000000000000000FC1FFC1FEB
:101FC000000C00060006000380038001C001C00071
:101FD000E000600060007000300030003000000061
:101FE000000000000000000000000000E003F00717
:101FF000380E180C180C180C3806F007F007180CDF
:102000000C180C180C180C18380CF80FE003000012
:10201000000000000000000000000000E003F007E6
:10202000380E1C0C0C180C180C181C1C381EF81B35
:10203000E0190018000C000C1C0EF807F00100005D
:102040000000000000000000000000000000000090
:10205000000000000000800180010000000000007E
:10206000000000000000000000008001800100006E
:102070000000000000000000000000000000000060
:10208000000000000000800180010000000000004E
:10209000000000000000000000008001800100013D
:1020A00000018000000000000000000000000000AF
:1020B000000000000000000000000010001C800F65
:1020C000E003F8001800F800E003800F001C001087
:1020D0000000000000000000000000000000000000
:1020E00000000000000000000000F81F00000000D9
:1020F0000000F81F000000000000000000000000C9
:1021000000000000000000000000000000000000CF
:102110000000000000000000000008003800F0018E
:10212000C007001F0018001FC007F001380008009A
:10213000000000000000000000000000E003F80FB5
:10214000180C0C180C180018000C00060003800175
:10215000C000C000C00000000000C000C0000000BF
:102160000000000000000000000000000000E00788
:1021700018180420C229224A114409440944094478
:1021800009221113E20C024004201818E007000095
:102190000000000000000000000000008003800339
:1021A000C006C006C006600C600C3018301830182D
:1021B000F83FF83F1C700C600C6006C006C00000C1
:1021C000000000000000000000000000FC03FC0F05
:1021D0000C0C0C180C180C180C0CFC07FC0F0C1831
:1021E0000C300C300C300C300C18FC1FFC070000BD
:1021F000000000000000000000000000C007F01F09
:1022000038381C300C700660060006000600060018
:102210000600060006600C701C30F01FE00700008E
:10222000000000000000000000000000FE03FE0FA0
:10223000060E061806180630063006300630063040
:102240000630063006180618060EFE0FFE030000C4
:10225000000000000000000000000000FC3FFC3F08
:102260000C000C000C000C000C00FC1FFC1F0C00F0
:102270000C000C000C000C000C00FC3FFC3F0000AC
:10228000000000000000000000000000F83FF83FE0
:1022900018001800180018001800F81FF81F180080
:1022A0001800180018001800180018001800000086
:1022B000000000000000000000000000E00FF83FF8
:1022C0003C780E6006E007C00300030003FE03FE37
:1022D00003C007C006C00EC03CF0F83FE00F00008E
:1022E0000000000000000000000000000C300C3076
:1022F0000C300C300C300C300C30FC3FFC3F0C3000
:102300000C300C300C300C300C300C300C30000029
:1023100000000000000000000000000080018001BB
:1023200080018001800180018001800180018001A5
:102330008001800180018001800180018001000016
:102340000000000000000000000000000006000681
:10235000000600060006000600060006000600064D
:1023600000060006180618063807F003E001000012
:102370000000000000000000000000000630061809
:10238000060C060606038601C60066007600DE001F
:102390008E0106030606060C0618063006600000CD
:1023A00000000000000000000000000018001800FD
:1023B000180018001800180018001800180018005D
:1023C00018001800180018001800F81FF81F000067
:1023D0000000000000000000000000000EE01EF001
:1023E0001EF01EF036D836D836D836D866CC66CC35
:1023F00066CCC6C6C6C6C6C6C6C686C386C30000E9
:102400000000000000000000000000000C301C3044
:102410003C303C306C306C30CC30CC308C310C33B8
:102420000C330C360C360C3C0C3C0C380C300000D9
:10243000000000000000000000000000E007F81F9E
:102440001C380E70066003C003C003C003C003C085
:1024500003C003C006600E701C38F81FE0070000C0
:10246000000000000000000000000000FC0FFC1F46
:102470000C380C300C300C300C300C18FC1FFC07E6
:102480000C000C000C000C000C000C000C000000F8
:10249000000000000000000000000000E007F81F3E
:1024A0001C380E70066003E003C003C003C003C005
:1024B00003C007E006630E3F1C3CF83FE0F700C096
:1024C000000000000000000000000000FE0FFE1FE2
:1024D00006380630063006300638FE1FFE070603B3
:1024E0000606060C061806180630063006600000C0
:1024F000000000000000000000000000E003F80FF2
:102500001C0C0C180C180C001C00F803E00F001E2B
:102510000038063006300E301C1CF80FE0070000B3
:10252000000000000000000000000000FE7FFE7FB1
:102530008001800180018001800180018001800193
:102540008001800180018001800180018001000004
:102550000000000000000000000000000C300C3003
:102560000C300C300C300C300C300C300C300C308B
:102570000C300C300C300C301818F81FE00700003D
:1025800000000000000000000000000003600630B2
:10259000063006300C180C180C18180C180C380ED5
:1025A00030063006700760036003C001C001000000
:1025B0000000000000000000000000000360C36194
:1025C000C361C3616633663366336633663366332D
:1025D0006C1B6C1B6C1B2C1A3C1E380E380E00003A
:1025E0000000000000000000000000000FE00C7080
:1025F00018303018700C600EC00780038003C003D1
:10260000E006700C301C18180C300E6007E000005B
:1026100000000000000000000000000003C0066091
:102620000C301C383818300C6006E007C0038001FD
:102630008001800180018001800180018001000013
:10264000000000000000000000000000FC7FFC7F94
:10265000006000300018000C000600038001C0007C
:102660006000300018000C000600FE7FFE7F0000B6
:10267000000000000000000000000000E003E00394
:10268000600060006000600060006000600060004A
:10269000600060006000600060006000600060003A
:1026A00060006000E003E003000000003000300044
:1026B000600060006000C000C000C000C001800178
:1026C00080018001000300030003000600060000F3
:1026D000000000000000000000000000E003E00334
:1026E00000030003000300030003000300030003D2
:1026F00000030003000300030003000300030003C2
:1027000000030003E003E003000000000000C0013C
:10271000C00160036003600330063006180C180C1B
:1027200000000000000000000000000000000000A9
:102730000000000000000000000000000000000099
:102740000000000000000000000000000000000089
:10275000000000000000000000000000FFFFFFFF7D
:102760000000000000000000000000000C000C0051
:102770000C000C000C000C00000000000000000029
:102780000000000000000000000000000000000049
:102790000000000000000000000000000000000039
:1027A000000000000000F003F8071C0C0C0C000FE8
:1027B000F00FF80C0C0C0C0C1C0FF80FF0180000AC
:1027C00000000000000000000000000018001800D9
:1027D000180018001800D803F80F380C181818182B
:1027E0001818181818181818380CF80FD803000003
:1027F00000000000000000000000000000000000D9
:10280000000000000000C003F007300E180C180094
:10281000180018001800180C300EF007C003000054
:102820000000000000000000000000000018001878
:10283000001800180018C01BF01F301C18181818BA
:102840001818181818181818301CF01FC01B000092
:102850000000000000000000000000000000000078
:10286000000000000000C003F00F300C1818F81F23
:10287000F81F180018003818301CF00FC0070000AF
:10288000000000000000000000000000800FC00FEA
:10289000C000C000C000F007F007C000C000C000CA
:1028A000C000C000C000C000C000C000C0000000E8
:1028B0000000000000000000000000000000000018
:1028C000000000000000E00DF80F180E0C0C0C0CBE
:1028D0000C0C0C0C0C0C0C0C180EF80FE00D000C72
:1028E0000C0C1C06F807F00100000000180018008E
:1028F000180018001800D807F80F381C18181818F6
:102900001818181818181818181818181818000077
:10291000000000000000000000000000C000C00037
:10292000000000000000C000C000C000C000C000E7
:10293000C000C000C000C000C000C000C000000057
:10294000000000000000000000000000C000C00007
:10295000000000000000C000C000C000C000C000B7
:10296000C000C000C000C000C000C000C000C00067
:10297000C000C000F8007800000000000C000C004F
:102980000C000C000C000C0C0C060C038C01CC0091
:102990006C00FC009C018C030C030C060C0C00006A
:1029A000000000000000000000000000C000C000A7
:1029B000C000C000C000C000C000C000C000C00017
:1029C000C000C000C000C000C000C000C0000000C7
:1029D00000000000000000000000000000000000F7
:1029E0000000000000007C3CFF7EC7E383C183C180
:1029F00083C183C183C183C183C183C183C10000FB
:102A000000000000000000000000000000000000C6
:102A10000000000000009807F80F381C181818185C
:102A20001818181818181818181818181818000056
:102A30000000000000000000000000000000000096
:102A4000000000000000C003F00F300C1818181828
:102A50001818181818181818300CF00FC0030000B8
:102A60000000000000000000000000000000000066
:102A7000000000000000D803F80F380C18181818D0
:102A80001818181818181818380CF80FD803180048
:102A900018001800180018000000000000000000D6
:102AA000000000000000C01BF01F301C1818181890
:102AB0001818181818181818301CF01FC01B001808
:102AC00000180018001800180000000000000000A6
:102AD000000000000000B007F0037000300030007C
:102AE0003000300030003000300030003000000096
:102AF00000000000000000000000000000000000D6
:102B0000000000000000E003F003380E180C38004D
:102B1000F003C007000C180C380EF007E0030000AB
:102B20000000000000000000000000000000800025
:102B3000C000C000C000F007F007C000C000C00027
:102B4000C000C000C000C000C000C0078007000077
:102B50000000000000000000000000000000000075
:102B60000000000000001818181818181818181875
:102B70001818181818181818381CF01FE019000039
:102B80000000000000000000000000000000000045
:102B90000000000000000C18180C180C180C30066F
:102BA00030063006600360036003C001C00100000E
:102BB0000000000000000000000000000000000015
:102BC000000000000000C141C141C3616363636351
:102BD00063633636363636361C1C1C1C1C1C000043
:102BE00000000000000000000000000000000000E5
:102BF0000000000000001C38381C300C6006C003C8
:102C0000C003C003C0036006300C381C1C38000031
:102C100000000000000000000000000000000000B4
:102C20000000000000001830301830187018600CD8
:102C3000600CE00CC006C0068003800380038001A6
:102C40008001C001F00070000000000000000000E2
:102C5000000000000000FC1FFC1F000C0006000329
:102C60008001C000600030001800FC1FFC1F000045
:102C700000000000000000000000000000038001D0
:102C8000C000C000C000C000C000C0006000600004
:102C9000300060004000C000C000C000C000C000A4
:102CA000C0008001000300000000000080018001DE
:102CB000800180018001800180018001800180010C
:102CC00080018001800180018001800180018001FC
:102CD0008001800180018001000000006000C000D0
:102CE000C001800180018001800180010003000398
:102CF0000006000300018001800180018001800145
:102D00008001C00060000000000000000000000022
:102D100000000000000000000000F010F81F080F85
:102D200000000000000000000000000000000000A3
:102D30000000000000000000000000000000000093
:102D40000000000000000000000000000000000083
:102D50000000000000000000000000000000000073
:102D60000000000000000000000000000000000063
:102D700000000000C003300C0810042004200240B2
:102D80000240024002400240042004200810300C9F
:102D9000C003000000000000000000000000000070
:102DA00000000000C003F00FF81FFC3FFC3FFE7F57
:102DB000FE7FFE7FFE7FFE7FFC3FFC3FF81FF00F93
:102DC000C003000000000000000000000000000040
:102DD0000000000000000000E007F00F18181818AD
:102DE0001818181818181818F00FE007000000003D
:102DF00000000000000000000000000000000000D3
:102E00000000000000000000E007F00FF81FF81FAE
:102E1000F81FF81FF81FF81FF00FE0070000000070
:102E200000000000000000000000000000000000A2
:102E30000000000000000000000000000000000092
:102E400000008001C0036006300C18181818F81F25
:102E5000F81F00000000000000000000000000005B
:102E60000000000000000000000000000000000062
:102E700000008001C003E007F00FF81FF81FF81FE3
:102E8000F81F00000000000000000000000000002B
:102E90000000F81FF81F18181818300C6006C0033F
:102EA00080010000000000000000000000000000A1
:102EB0000000000000000000000000000000000012
:102EC0000000F81FF81FF81FF81FF00FE007C003FD
:102ED0008001000000000000000000000000000071
:102EE00000000000000000000000000000000000E2
:102EF0000000000000000000E001F00198018C01DA
:102F0000860186018C019801F001E00100000000BB
:102F100000000000000000000000000000000000B1
:102F20000000000000000000E001F001F801FC01D9
:102F3000FE01FE01FC01F801F001E00100000000CB
:102F40000000000000000000000000000000000081
:102F500000000000000000008007800F8019803111
:102F60008061806180318019800F8007000000003F
:102F70000000000000000000000000000000000051
:102F800000000000000000008007800F801F803FCD
:102F9000807F807F803F801F800F800700000000BF
:102FA000000000000000000000000000C00120023E
:102FB0002002400130060808080808080808080828
:102FC0000808080820022002200220022002200215
:102FD000200220022002200200000000C001E003C5
:102FE000E003C001F007D80DD80DD80DD80DD80DCD
:102FF000D80DD80D600360036003600360036003B5
:10300000600360036003600300000000C001200251
:1030100020024001300608080808080804100220B1
:1030200002204001200220021004080808080410B1
:10303000041004200440000000000000C001E00370
:10304000E003C001F007D80DD80DD80DCC19C6315A
:10305000C261C001600360037006380C180C0C18C4
:103060000C180C300C600000000000000100000093
:103070000200000004000000080000001000000032
:10308000200000004000000080000000AC30000084
:103090000000001030000000F0190000DC300000DB
:1030A0003000001058030000FE19000000093D0028
:1030B0000000FFFF00000000000000000000000012
:1030C000A60EFA00FA00FA00A60ED80EFA00D80EE4
:0C30D000000000000000000001000000F3
:04000005000000CD2A
:00000001FF
