:020000040000FA
:1000000018020010ED000000F1000000F3000000F5
:10001000F5000000F7000000F900000000000000FB
:10002000000000000000000000000000FB000000D5
:10003000FD00000000000000FF00000001030000C0
:1000400003010000030100000301000003010000A0
:100050000301000003010000030100000301000090
:100060000301000003010000030100000301000080
:100070000301000003010000030100000301000070
:100080000301000003010000030100000301000060
:100090000301000003010000030100000301000050
:1000A0000301000003010000030100000301000040
:1000B0000301000003010000030100000301000030
:1000C000030100000301000003010000DFF80CD071
:1000D00001F0DCF80048004761020000180200103F
:1000E00040BA7047C0BA704700BF70470548004724
:1000F000FEE7FEE7FEE7FEE7FEE7FEE7FEE7FEE7D8
:10010000FEE7FEE7CD00000030B54D492020C1F8E4
:10011000A001D1F8A0014006FBD501F18001032523
:10012000C1F884504FF00002C1F82821C1F82C21F9
:100130004FF00100C1F88C00424B4B6008604FF05B
:10014000AA03CB604FF05504CC60A1F18001D1F837
:1001500088004001FBD541F8805FCB60CC60C1F8DE
:10016000882039484864C1F848218868A1F1800195
:100170006FEA10608007354AD1F80C0100F00300E7
:1001800007D0E8B3012845D0022849D0032850D130
:100190003AE028B1012813D0022822D0032848D100
:1001A00051F8880FC0F30740CB6F401CDBB25B1CDB
:1001B000584351F88839264CC3F30E035B1C0EE0FC
:1001C00051F8880FC0F30740CB6F401CDBB25B1CBB
:1001D000584351F888391F4CC3F30E035B1C63432B
:1001E00024E051F8880FC0F30740CB6F401CDBB20E
:1001F0005B1C584351F88839C3F30E035B1C00E0C5
:1002000002E04FF47A44EAE7D1F80401124BC0B29D
:10021000401C0BE0D1F80401104BC0B2401C05E0BB
:10022000D1F804014FF4FA43C0B2401CB3FBF0F024
:100230001060086820F4704040F48040086030BDD1
:1002400000C00F4063000500DE8728040000001096
:1002500000127A0000366E0100093D00001BB70055
:100260001CB5FFF751FF00F07CF80F2000F0C8FC30
:100270000F2000F0C2FC03234FF47844CDE9004383
:10028000C8231A4612213C2000F02EFF16A22D2171
:10029000552000F06EFD14A26921552000F069FD83
:1002A00011A2AA21552000F064FD10A2AF21D72091
:1002B00000F05FFD0DA26C21952000F05AFD052392
:1002C0004FF6E072CDE900235D22C82323211046BA
:1002D00000F0D7FE204600F08DFC05A20A21142074
:1002E00000F034FD00201CBD580000004F0000004D
:1002F000546963546163546F65000000FFFFFFFFA2
:100300000C4901224868401C48600A280ED006DCCF
:1003100003280DD0052809D0082808D108E00D28A9
:1003200006D00F2803D1002048608A700A707047F9
:100330004A70704704000010401EFDD27047FF490C
:100340000A6C42F0FF020A644FF400128A619210B4
:10035000CA61486552008A61CA61000A4865012085
:1003600070472DE9F05FF548016841F07E7101604A
:100370004FF07E718161052000F020FF002000F029
:1003800059FFEF4CA0F58A414FF48075A08041F2EF
:10039000300940F2022A4FF4837B40F23F1640F2CC
:1003A000023731397DD10121002000F036FF4FF4B2
:1003B000C561102000F031FF0621122000F02DFF52
:1003C00040F63221132000F028FF4021112000F0D8
:1003D00024FF5021152000F020FF1621122000F0EC
:1003E0001CFF0F2000F0EAFE45F26061102000F0D3
:1003F00014FF0F2000F0E2FE42F64E21132000F021
:100400000CFF2946012000F008FFB91E022000F071
:1004100004FF4946032000F000FF5146082000F089
:10042000FCFE00210A2000F0F8FE0021302000F040
:10043000F4FE40F20241312000F0EFFE5946322036
:1004400000F0EBFE4FF4E061332000F0E6FE291DE2
:10045000342000F0E2FE791E352000F0DEFE40F28E
:100460000771362000F0D9FEF91C372000F0D5FEC8
:100470004FF40271382000F0D0FE40F60B713920A5
:1004800000F0CBFE0F2000F099FE0221412000F089
:10049000C4FE4FF41C51602000F0BFFE012161201A
:1004A00000E01EE000F0B9FE40F21911902000F0CB
:1004B000B4FE4FF48571922000F0AFFE042193202A
:1004C00000F0ABFE2946A02000F0A7FE0F2000F0B0
:1004D00075FE0021A02000F0A0FE142000F06EFEAA
:1004E000F7E1A0F513414FF4887825397ED110212A
:1004F000E72000F092FE0121002000F08EFE294648
:10050000012000F08AFE4FF4E061022000F085FE39
:100510004946032000F081FE0021042000F07DFE0A
:1005200040F20721082000F078FE0021092000F0A9
:1005300074FE00210A2000F070FE01210C2000F062
:100540006CFE00210D2000F068FE00210F2000F05D
:1005500064FE0021102000F060FE0721112000F051
:100560005CFE0021122000F058FE0021132000F054
:1005700054FE0F2000F022FE41F29051102000F0B6
:100580004CFE40F22721112000F047FE0F2000F022
:1005900015FE9C21122000F040FE0F2000F00EFE00
:1005A0004FF4C851132000F038FE2321292000F019
:1005B00034FE0E212B2000F030FE0F2000F0FEFD57
:1005C0000021202000F029FE0021212000F025FE3E
:1005D0000F2000F0F3FD0721302000F01EFE40F256
:1005E0000771312000F019FE062100E07EE0322084
:1005F00000F013FE40F20471352000F00EFE41F6CB
:100600000471362000F009FE0421372000F005FEB9
:100610000021382000F001FE40F20671392000F080
:10062000FCFD40F201713C2000F0F7FD0F213D2060
:1006300000F0F3FD0F2000F0C1FD0021502000F07C
:10064000ECFDEF21512000F0E8FD0021522000F0E8
:10065000E4FD3146532000F0E0FD4FF427416020D7
:1006600000F0DBFD0121612000F0D7FD00216A20B0
:1006700000F0D3FD0021802000F0CFFD002181207B
:1006800000F0CBFD0021822000F0C7FD0021832077
:1006900000F0C3FD0021842000F0BFFD0021852073
:1006A00000F0BBFD1021902000F0B7FD002192204A
:1006B00000F0B3FD0321932000F0AFFD41469520EB
:1006C00000F0ABFD0021972000F0A7FD002198204D
:1006D00000F0A3FD40F23311072000F09EFD002141
:1006E000202000F09AFD00212120F0E0A0F5134128
:1006F00020397ED14FF40041E52000F08EFD01212C
:10070000002000F08AFD2946012000F086FD4FF40C
:10071000E061022000F081FD4946032000F07DFDEC
:100720000021042000F079FD5146082000F075FDFD
:100730000021092000F071FD002103E000C0092024
:100740000C0000100A2000F068FD00210C2000F0D1
:1007500064FD00210D2000F060FD00210F2000F05D
:100760005CFD0021102000F058FD0021112000F058
:1007700054FD0021122000F050FD0021132000F054
:100780004CFD142000F01AFD41F2B071102000F071
:1007900044FD40F23711112000F03FFD052000F02C
:1007A0000DFD40F23911122000F037FD052000F058
:1007B00005FD4FF4E851132000F02FFD13212920EF
:1007C00000F02BFD052000F0F9FC0021202000F0B6
:1007D00024FD0021212000F020FD0621302000F022
:1007E0001CFD40F20111312000F017FD03213220E1
:1007F00000E06EE000F011FD5946352000F00DFDDF
:1008000040F60231362000F008FD3946372000F06E
:1008100004FD40F20771382000F0FFFC0721392069
:1008200000F0FBFC4FF4C0613C2000F0F6FC40F20D
:100830000B213D2000F0F1FC0021502000F0EDFCE8
:10084000EF21512000F0E9FC0021522000F0E5FCEE
:100850003146532000F0E1FC4FF41C51602000F0C1
:10086000DCFC0121612000F0D8FC00216A2000F0AE
:10087000D4FC0021802000F0D0FC0021812000F079
:10088000CCFC0021822000F0C8FC0021832000F075
:10089000C4FC0021842000F0C0FC0021852000F071
:1008A000BCFC1021902000F0B8FC0021922000F048
:1008B000B4FC0321932000F0B0FC4146952000F0E9
:1008C000ACFC0021972000F0A8FC0021982000F04B
:1008D000A4FC41F23801032000F09FFC40F27311A8
:1008E000072000F09AFCA088A0F5094189397DD144
:1008F0000121002000F091FC052000F05FFC4AF689
:10090000A401032000F089FC052000F057FC002121
:100910000C2000F082FC052000F050FC40F60C0199
:100920000D2000F07AFC052000F048FC4FF42C511B
:100930000E2000F072FC052000F040FCB0211E20CB
:1009400000F06BFC052000F039FC42F63F3101203D
:1009500000F063FC052000F031FC4FF4C061022080
:1009600000F05BFC052000F029FC0021102000F0C5
:1009700054FC052000F022FC46F27801112000F022
:100980004CFC052000F01AFC0021052000F045FC7D
:10099000052000F013FC0021062000F03EFC05209D
:1009A00000F00CFC4EF61C71162000F036FC052001
:1009B00000F004FC0321172000F02FFC052000F0BC
:1009C000FDFB40F23321072000F027FC052000F05A
:1009D000F5FB00210B2000F020FC052000F0EEFBD1
:1009E00000210F2000F019FC052000E0ACE000F031
:1009F000E5FB0021412000F010FC052000F0DEFBAB
:100A00000021422000F009FC052000F0D7FB002166
:100A1000482000F002FC052000F0D0FB31464920C0
:100A200000F0FBFB052000F0C9FB00214A2000F08C
:100A3000F4FB052000F0C2FB00214B2000F0EDFB91
:100A4000052000F0BBFB4FF46F41442000F0E5FBB4
:100A5000052000F0B3FB0021452000F0DEFB05205F
:100A600000F0ACFB3146462000F0D7FB052000F03B
:100A7000A5FB40F20771302000F0CFFB052000F00D
:100A80009DFB4FF401742146312000F0C6FB052088
:100A900000F094FB2146322000F0BFFB052000F05F
:100AA0008DFB40F202552946332000F0B6FB0520AD
:100AB00000F084FB691D342000F0AFFB052000F03E
:100AC0007DFB2146352000F0A8FB052000F076FBD9
:100AD0002146362000F0A1FB052000F06FFB2946DF
:100AE000372000F09AFB052000F068FB39463A20D9
:100AF00000F093FB052000F061FB39463B2000F03D
:100B00008CFB052000F05AFB0021232000F085FB20
:100B1000052000F053FB0021242000F07EFB05207F
:100B200000F04CFB4FF40041252000F076FB05203F
:100B300000F044FB00214F2000F06FFBBDE8F05FA8
:100B400000214E2000F069BBBDE8F09FFF4810B5C2
:100B5000808840F23F14A0F50942893A4FF0000125
:100B60000ED1442000F059FB4FF46F41442000F0B7
:100B700054FB0021452000F050FB214646200CE0AC
:100B8000502000F04AFBEF21512000F046FB0021ED
:100B9000522000F042FB21465320BDE8104000F0F7
:100BA0003CBB70B504460E46FFF7D0FFE74DA4F2FC
:100BB0003F146342AA88B1B2A2F509409CB28938B9
:100BC00005D14E2000F029FB21464F2004E02020D3
:100BD00000F023FB2146212000F01FFBDC4E4FF4E8
:100BE0008004F461222000F0EDFA288800F0FAFA7F
:100BF000B46170BDD54908807047D44948807047BA
:100C00002DE9F0418046FFF7A1FFD0488088A0F58C
:100C1000094189394FF0000105D14E2000F0FDFA5D
:100C200000214F2004E0202000F0F7FA00212120CD
:100C300000F0F3FAC64D4FF48006EE61222000F07A
:100C4000C1FA7000A86100244FF49637404600F0C6
:100C5000D9FA641CBC42F9D3AE61BDE8F0812DE93C
:100C6000F05FDFF8E892C0F598740F46B9F8040019
:100C7000BEB2A0F50941893915464FF0000831464A
:100C80001CD1442000F0C9FA4FF4B85000EB072003
:100C9000384381B2442000F0C0FAA1B20F4645208B
:100CA00000F0BBFA0F34A1B2462000F0B6FA31468C
:100CB0004E2000F0B2FA39464F2017E0502000F0E5
:100CC000ACFA1737B9B2512000F0A7FAA1B20F461B
:100CD000522000F0A2FA0F34A1B2532000F09DFA86
:100CE0003146202000F099FA3946212000F095FA8B
:100CF000DFF85CA24FF4800B5446CAF81CB02220E7
:100D000000F060FA4FF40000A06100264F460F2467
:100D10004FF0010935F8181009FA04F001420BD020
:100D2000388800F06FFA641EF4D5AD1C761C182EBE
:100D3000EDDBCAF818B007E77888F2E7203AD2B2BC
:100D4000844B02EB420203EB021288E770B50546C2
:100D50001446A1F11806FFF7F9FE06E006F11801A6
:100D6000641C0E462846FFF7E9FF2278002AF5D1D9
:100D700070BD70B50D461446A0F11006FFF7E6FEF3
:100D800006E006F11000641C06462946FFF7D6FF70
:100D90002278002AF5D170BD10B50446FFF7D6FEC3
:100DA0002046BDE810406CA20021E2E72DE9F05F8B
:100DB000DFF898A10F46C0F5A070BAF80410851AA4
:100DC00048F6891BBCB2DDF828805945164699467D
:100DD000214614D1442000F020FA4FF4B85000EB23
:100DE0000720384381B2442000F017FAA9B2452009
:100DF00000F013FAA819401E81B246200FE05020DF
:100E000000F00BFA1737B9B2512000F006FAA9B278
:100E1000522000F002FAA819401E81B2532000F0BF
:100E2000FCF9BAF8041008FB06F059454FEA90287F
:100E30005746214605D14E2000F0EFF9A9B24F20C8
:100E400004E0202000F0E9F9A9B2212000F0E5F942
:100E5000DFF8FCA04FF4800B5446CAF81CB02220E7
:100E600000F0B0F94FF40000A06100250BE0741E03
:100E700008D4444501D3788800E0388800F0C2F9EE
:100E8000641EF6D56D1C4D45F1D3CAF818B05BE66B
:100E90002DE9F047C0F5A070871A2C488846164601
:100EA00081881846A1F509421FFA88F4089D9A46E0
:100EB00008EB0009893A21461ED1442000F0ADF923
:100EC0006FF0FF0101EB092040EA080081B24420E5
:100ED00000F0A3F9B9B28846452000F09EF9B81990
:100EE000401E81B2462000F098F921464E2000F0C5
:100EF00094F941464F2019E0502000F08EF9A9F1F5
:100F0000010081B2512000F088F9B9B28846522020
:100F100000F083F9B819401E81B2532000F07DF92A
:100F20002146202000F079F94146212000F075F992
:100F3000DFF81C804FF480094446C8F81C9022203A
:100F400000F040F94FF40000A06111E00C00001027
:100F500000C00920CE1200002020202020202020C8
:100F60002020202020202020202020200000000001
:100F700000270FE005EB4604A41E002504E034F82A
:100F8000020900F03FF96D1CB542F8D304EB4605A9
:100F9000AD1C7F1C5745EDD3C8F81890BDE8F0870D
:100FA0002DE9F05FC0F5A070851AB6480F461646C9
:100FB0008188BCB2A1F50942DDF828A0984607EB6C
:100FC0000309893A21461DD1442000F026F96FF02B
:100FD000FF0101EB0920384381B2442000F01DF9E4
:100FE000A9B20F46452000F018F9A819401E81B299
:100FF000462000F012F921464E2000F00EF9394645
:101000004F2019E0502000F008F9A9F1010081B249
:10101000512000F002F9A9B20F46522000F0FDF86D
:10102000A819401E81B2532000F0F7F82146202075
:1010300000F0F3F83946212000F0EFF8DFF848928D
:101040004FF4800B4C46C9F81CB0222000F0BAF8CF
:101050004FF40000A06108FB06F10AEB4105AD1E4C
:10106000002709E0002404E035F8020900F0CAF87E
:10107000641CB442F8D37F1C4745F3D3C9F818B0B9
:1010800062E52DE9F05F80460F46DDE90A067D49FD
:10109000924699460880761E904510D1A8EB5605D9
:1010A00008EB560B09E03C4604E021462846FFF7D2
:1010B00078FD641C4C45F8D96D1CAB45F3D84F4501
:1010C00011D14546A7EB560807EB560609E0444602
:1010D00004E021462846FFF764FD641CA642F8D8C8
:1010E0006D1C5545F3D92FE52DE9FE4F0D4692466F
:1010F00011460322B1FBF2F8B3FBF2F9DDE90C264D
:101100000446EF18A7F10A000092CDE9016004EB54
:10111000080005F10A018B460246029BFFF7B1FF6A
:101120000C9ACDE9002604EB480002465946029B82
:10113000FFF7A7FF0C9A04EB0A08CDE9002605EBA0
:101140000901A8F10A0B04F10A0082460B465A462F
:10115000FFF797FF0C9ACDE9002605EB49010B46F6
:101160005A465046FFF78DFFB31C0C9ACDE9002379
:101170003B46224629462046FFF783FFB31C0C9AC4
:10118000CDE900233B46424629464046FFF779FF1A
:10119000B31C0C9ACDE900232B4642462946204633
:1011A000FFF76FFFB31C0C9ACDE900233B46424684
:1011B00039462046FFF765FFBDE8FE8F8004401EDC
:1011C000FDD2704770B5304C4FF40001E1618900E9
:1011D000A161FFF7B4F84FF08075E561FEF784FF79
:1011E000A56170BD70B5284C4FF40001A161890064
:1011F000A161FFF7A4F84FF08075E561FEF774FF79
:10120000A56170BD70B5FFF79AF81F4C4FF080755F
:10121000E561FEF769FFA56170BD70B51A4C4FF42A
:1012200080050E46E561FFF7CDFF3046FFF7DAFF98
:10123000A56170BD70B5144C4FF48005E561C0B276
:10124000FFF7C0FF6800A0614000A0614100E161BC
:10125000206C20F0FF0020640A11E2618B11E36131
:101260005020401EFDD2606DA361C6B25020401ECA
:10127000FDD2606DA26166F31F2080B2A161A561FD
:1012800070BD00000C00001000C00920064C074D86
:1012900006E0E06840F0010394E807009847103446
:1012A000AC42F6D3FEF716FFD0270000F02700006F
:1012B00002E008C8121F08C1002AFAD1704770471F
:1012C000002001E001C1121F002AFBD1704700007D
:1012D000000000000000000000000000000000000E
:1012E00000000000000000000000000000000000FE
:1012F00000000000000000000000000000000000EE
:1013000080018001800180018001800180018001D5
:1013100080018001800180018001000000008001C7
:10132000800100000000000000000000000000003C
:101330000000CC00CC00CC00CC00CC00CC000000E5
:10134000000000000000000000000000000000009D
:10135000000000000000000000000000000000008D
:1013600000000000000000000000600C600C600C39
:1013700030063006FE1FFE1F300638071803FE1F1A
:10138000FE1F180318038C018C018C010000000063
:101390008000E003F80F9C0E8C1C8C188C009800C9
:1013A000F801E007800E801C8C188C189C18B80C73
:1013B000F00FE0038000800000000000000000004B
:1013C000000000000E181B0C110C11061106110371
:1013D00011039B018E01C038C06C604460443044EE
:1013E00030441844186C0C38000000000000000065
:1013F000E001F0033807180618063003F001F0008A
:10140000F8009C310E33061E061C061C063FFC73BA
:10141000F0210000000000000000000000000000BB
:1014200000000C000C000C000C000C000C00000074
:1014300000000000000000000000000000000000AC
:10144000000000000000000000000000000000009C
:10145000000200038001C000C00060006000300096
:1014600030003000300030003000300030006000CC
:101470006000C000C0008001000300020000000006
:1014800020006000C000800180010003000300060E
:10149000000600060006000600060006000600031F
:1014A000000380018001C0006000200000000000F7
:1014B00000000000000000000000C000C000D806CE
:1014C000F807E001300338070000000000000000CA
:1014D000000000000000000000000000000000000C
:1014E0000000000000000000000080018001800179
:1014F00080018001FC3FFC3F800180018001800170
:10150000800100000000000000000000000000005A
:1015100000000000000000000000000000000000CB
:1015200000000000000000000000000000000000BB
:101530008001800100010001800000000000000027
:10154000000000000000000000000000000000009B
:10155000000000000000E007E007000000000000BD
:10156000000000000000000000000000000000007B
:10157000000000000000000000000000000000006B
:10158000000000000000000000000000000000005B
:10159000C000C000000000000000000000000000CB
:1015A000000C000C00060006000600030003000308
:1015B0008003800180018001C000C000C000600085
:1015C00060000000000000000000000000000000BB
:1015D000E003F007380E180C0C180C180C180C1837
:1015E0000C180C180C180C180C18180C380EF007E6
:1015F000E003000000000000000000000000000008
:1016000000018001C001F001980188018001800182
:1016100080018001800180018001800180018001C2
:101620008001000000000000000000000000000039
:10163000E003F80F180C0C180C1800180018000C18
:10164000000600038001C000600030001800FC1F8D
:10165000FC1F00000000000000000000000000006F
:10166000E001F807180E0C0C0C0C000C0006C0036F
:10167000C007000C001800180C180C18180CF807FC
:10168000E003000000000000000000000000000077
:10169000000C000E000F000F800DC00C600C600CE1
:1016A000300C180C0C0CFC3FFC3F000C000C000C28
:1016B000000C00000000000000000000000000001E
:1016C000F80FF80F180018000C00EC03FC071C0EB4
:1016D000001C0018001800180C181C0C180EF80735
:1016E000E003000000000000000000000000000017
:1016F000C007F00F381C181818000C00CC03EC0FB2
:101700003C0E1C1C0C180C180C18181C380EF0077A
:10171000E0030000000000000000000000000000E6
:10172000FC1FFC1F000C0006000600038003800164
:10173000C001C000E00060006000700030003000B8
:101740003000000000000000000000000000000069
:10175000E003F007380E180C180C180C3806F007C8
:10176000F007180C0C180C180C180C18380CF80F83
:10177000E003000000000000000000000000000086
:10178000E003F007380E1C0C0C180C180C181C1C6D
:10179000381EF81BE0190018000C000C1C0EF8078E
:1017A000F001000000000000000000000000000048
:1017B0000000000000000000000080018001000027
:1017C0000000000000000000000000000000800198
:1017D0008001000000000000000000000000000088
:1017E00000000000000000000000800180010000F7
:1017F0000000000000000000000000000000800168
:1018000080010001000180000000000000000000D5
:1018100000000000000000000000000000000010B8
:10182000001C800FE003F8001800F800E003800FB0
:10183000001C00100000000000000000000000007C
:101840000000000000000000000000000000F81F81
:10185000000000000000F81F000000000000000071
:101860000000000000000000000000000000000078
:101870000000000000000000000000000000080060
:101880003800F001C007001F0018001FC007F0015A
:101890003800080000000000000000000000000008
:1018A000E003F80F180C0C180C180018000C0006B8
:1018B00000038001C000C000C00000000000C000A4
:1018C000C000000000000000000000000000000058
:1018D0000000E00718180420C229224A11440944D4
:1018E0000944094409221113E20C0240042018188B
:1018F000E007000000000000000000000000000001
:1019000080038003C006C006C006600C600C30185F
:1019100030183018F83FF83F1C700C600C6006C09F
:1019200006C00000000000000000000000000000F1
:10193000FC03FC0F0C0C0C180C180C180C0CFC07FE
:10194000FC0F0C180C300C300C300C300C18FC1F39
:10195000FC07000000000000000000000000000084
:10196000C007F01F38381C300C70066006000600F7
:10197000060006000600060006600C701C30F01F12
:10198000E007000000000000000000000000000070
:10199000FE03FE0F060E0618061806300630063047
:1019A000063006300630063006180618060EFE0F02
:1019B000FE03000000000000000000000000000026
:1019C000FC3FFC3F0C000C000C000C000C00FC1F4A
:1019D000FC1F0C000C000C000C000C000C00FC3F69
:1019E000FC3F0000000000000000000000000000BC
:1019F000F83FF83F18001800180018001800F81FEA
:101A0000F81F180018001800180018001800180017
:101A100018000000000000000000000000000000AE
:101A2000E00FF83F3C780E6006E007C003000300BB
:101A300003FE03FE03C007C006C00EC03CF0F83F23
:101A4000E00F0000000000000000000000000000A7
:101A50000C300C300C300C300C300C300C30FC3FA7
:101A6000FC3F0C300C300C300C300C300C300C3097
:101A70000C3000000000000000000000000000002A
:101A8000800180018001800180018001800180014E
:101A9000800180018001800180018001800180013E
:101AA00080010000000000000000000000000000B5
:101AB00000060006000600060006000600060006F6
:101AC0000006000600060006180618063807F00390
:101AD000E001000000000000000000000000000025
:101AE00006300618060C060606038601C6006600C8
:101AF0007600DE008E0106030606060C0618063088
:101B0000066000000000000000000000000000006F
:101B10001800180018001800180018001800180005
:101B20001800180018001800180018001800F81FF6
:101B3000F81F00000000000000000000000000008E
:101B40000EE01EF01EF01EF036D836D836D836D845
:101B500066CC66CC66CCC6C6C6C6C6C6C6C686C376
:101B600086C300000000000000000000000000002C
:101B70000C301C303C303C306C306C30CC30CC30D5
:101B80008C310C330C330C360C360C3C0C3C0C38C2
:101B90000C30000000000000000000000000000009
:101BA000E007F81F1C380E70066003C003C003C0B6
:101BB00003C003C003C003C006600E701C38F81FCA
:101BC000E00700000000000000000000000000002E
:101BD000FC0FFC1F0C380C300C300C300C300C1887
:101BE000FC1FFC070C000C000C000C000C000C008F
:101BF0000C000000000000000000000000000000D9
:101C0000E007F81F1C380E70066003E003C003C035
:101C100003C003C003C007E006630E3F1C3CF83F4F
:101C2000E0F700C00000000000000000000000001D
:101C3000FE0FFE1F06380630063006300638FE1F3F
:101C4000FE0706030606060C0618061806300630C0
:101C5000066000000000000000000000000000001E
:101C6000E003F80F1C0C0C180C180C001C00F803F7
:101C7000E00F001E0038063006300E301C1CF80F36
:101C8000E00700000000000000000000000000006D
:101C9000FE7FFE7F80018001800180018001800144
:101CA000800180018001800180018001800180012C
:101CB00080010000000000000000000000000000A3
:101CC0000C300C300C300C300C300C300C300C3034
:101CD0000C300C300C300C300C300C301818F81F55
:101CE000E00700000000000000000000000000000D
:101CF00003600630063006300C180C180C18180C4F
:101D0000180C380E30063006700760036003C001FF
:101D1000C001000000000000000000000000000002
:101D20000360C361C361C361663366336633663380
:101D3000663366336C1B6C1B6C1B2C1A3C1E380EF6
:101D4000380E00000000000000000000000000004D
:101D50000FE00C7018303018700C600EC007800354
:101D60008003C003E006700C301C18180C300E60A5
:101D700007E000000000000000000000000000007C
:101D800003C006600C301C383818300C6006E007C1
:101D9000C0038001800180018001800180018001F9
:101DA00080010000000000000000000000000000B2
:101DB000FC7FFC7F006000300018000C0006000370
:101DC0008001C0006000300018000C000600FE7F9B
:101DD000FE7F000000000000000000000000000086
:101DE000E003E003600060006000600060006000ED
:101DF00060006000600060006000600060006000E3
:101E00006000600060006000E003E003000000008C
:101E100030003000600060006000C000C000C00002
:101E2000C00180018001800100030003000300065F
:101E3000000600000000000000000000000000009C
:101E4000E003E003000300030003000300030003BA
:101E5000000300030003000300030003000300036A
:101E60000003000300030003E003E00300000000A0
:101E70000000C001C001600360036003300630064B
:101E8000180C180C0000000000000000000000000A
:101E90000000000000000000000000000000000042
:101EA0000000000000000000000000000000000032
:101EB0000000000000000000000000000000000022
:101EC000FFFFFFFF00000000000000000000000016
:101ED0000C000C000C000C000C000C0000000000BA
:101EE00000000000000000000000000000000000F2
:101EF00000000000000000000000000000000000E2
:101F000000000000000000000000F003F8071C0CB7
:101F10000C0C000FF00FF80C0C0C0C0C1C0FF80F35
:101F2000F0180000000000000000000000000000A9
:101F300018001800180018001800D803F80F380C03
:101F4000181818181818181818181818380CF80F26
:101F5000D8030000000000000000000000000000A6
:101F600000000000000000000000C003F007300E79
:101F7000180C1800180018001800180C300EF00784
:101F8000C00300000000000000000000000000008E
:101F900000180018001800180018C01BF01F301C93
:101FA000181818181818181818181818301CF01FB6
:101FB000C01B000000000000000000000000000046
:101FC00000000000000000000000C003F00F300C13
:101FD0001818F81FF81F180018003818301CF00FD8
:101FE000C00700000000000000000000000000002A
:101FF000800FC00FC000C000C000F007F007C00095
:10200000C000C000C000C000C000C000C000C000D0
:10201000C000000000000000000000000000000000
:1020200000000000000000000000E00DF80F180E96
:102030000C0C0C0C0C0C0C0C0C0C0C0C180EF80FE3
:10204000E00D000C0C0C1C06F807F001000000006D
:1020500018001800180018001800D807F80F381CCE
:1020600018181818181818181818181818181818F0
:102070001818000000000000000000000000000030
:10208000C000C000000000000000C000C000C00090
:10209000C000C000C000C000C000C000C000C00040
:1020A000C000000000000000000000000000000070
:1020B000C000C000000000000000C000C000C00060
:1020C000C000C000C000C000C000C000C000C00010
:1020D000C000C000C000C000F80078000000000090
:1020E0000C000C000C000C000C000C0C0C060C037B
:1020F0008C01CC006C00FC009C018C030C030C06D2
:102100000C0C0000000000000000000000000000B7
:10211000C000C000C000C000C000C000C000C000BF
:10212000C000C000C000C000C000C000C000C000AF
:10213000C0000000000000000000000000000000DF
:10214000000000000000000000007C3CFF7EC7E3B0
:1021500083C183C183C183C183C183C183C183C15F
:1021600083C100000000000000000000000000002B
:10217000000000000000000000009807F80F381C65
:1021800018181818181818181818181818181818CF
:10219000181800000000000000000000000000000F
:1021A00000000000000000000000C003F00F300C31
:1021B000181818181818181818181818300CF00FC4
:1021C000C00300000000000000000000000000004C
:1021D00000000000000000000000D803F80F380CD9
:1021E000181818181818181818181818380CF80F84
:1021F000D80318001800180018001800000000008C
:1022000000000000000000000000C01BF01F301C98
:10221000181818181818181818181818301CF01F43
:10222000C01B00180018001800180018000000005B
:1022300000000000000000000000B007F003700084
:10224000300030003000300030003000300030000E
:10225000300000000000000000000000000000004E
:1022600000000000000000000000E003F003380E52
:10227000180C3800F003C007000C180C380EF007DB
:10228000E00300000000000000000000000000006B
:1022900000008000C000C000C000F007F007C000D0
:1022A000C000C000C000C000C000C000C000C00727
:1022B0008007000000000000000000000000000097
:1022C000000000000000000000001818181818187E
:1022D000181818181818181818181818381CF01F7B
:1022E000E0190000000000000000000000000000F5
:1022F000000000000000000000000C18180C180C72
:10230000180C300630063006600360036003C0011D
:10231000C0010000000000000000000000000000FC
:1023200000000000000000000000C141C141C36185
:102330006363636363633636363636361C1C1C1C97
:102340001C1C000000000000000000000000000055
:10235000000000000000000000001C38381C300C99
:102360006006C003C003C003C0036006300C381C05
:102370001C38000000000000000000000000000009
:102380000000000000000000000018303018301875
:102390007018600C600CE00CC006C006800380035F
:1023A000800380018001C001F00070000000000087
:1023B00000000000000000000000FC1FFC1F000CDB
:1023C000000600038001C000600030001800FC1F00
:1023D000FC1F0000000000000000000000000000E2
:1023E00000038001C000C000C000C000C000C000E9
:1023F00060006000300060004000C000C000C0000D
:10240000C000C000C0008001000300000000000008
:1024100080018001800180018001800180018001B4
:1024200080018001800180018001800180018001A4
:102430008001800180018001800180010000000096
:102440006000C000C0018001800180018001800126
:1024500000030003000600030001800180018001E9
:10246000800180018001C0006000000000000000C9
:102470000000000000000000000000000000F0105C
:10248000F81F080F0000000000000000000000001E
:10249000000000000000000000000000000000003C
:1024A000000000000000000000000000000000002C
:1024B000000000000000000000000000000000001C
:1024C000000000000000000000000000000000000C
:1024D0000000000000000000C003300C08100420C1
:1024E0000420024002400240024002400420042036
:1024F0000810300CC00300000000000000000000C5
:102500000000000000000000C003F00FF81FFC3FB7
:10251000FC3FFE7FFE7FFE7FFE7FFE7FFC3FFC3F99
:10252000F81FF00FC00300000000000000000000D2
:10253000000000000000000000000000E007F00FB5
:10254000181818181818181818181818F00FE00785
:10255000000000000000000000000000000000007B
:10256000000000000000000000000000E007F00F85
:10257000F81FF81FF81FF81FF81FF81FF00FE007EB
:10258000000000000000000000000000000000004B
:10259000000000000000000000000000000000003B
:1025A0000000000000008001C0036006300C181815
:1025B0001818F81FF81F00000000000000000000BD
:1025C000000000000000000000000000000000000B
:1025D0000000000000008001C003E007F00FF81FBA
:1025E000F81FF81FF81F00000000000000000000A6
:1025F000000000000000F81FF81F18181818300C11
:102600006006C00380010000000000000000000020
:1026100000000000000000000000000000000000BA
:10262000000000000000F81FF81FF81FF81FF00F4F
:10263000E007C0038001000000000000000000006F
:10264000000000000000000000000000000000008A
:10265000000000000000000000000000E001F001A8
:1026600098018C01860186018C019801F001E0013E
:10267000000000000000000000000000000000005A
:10268000000000000000000000000000E001F00178
:10269000F801FC01FE01FE01FC01F801F001E0017E
:1026A000000000000000000000000000000000002A
:1026B0000000000000000000000000008007800F04
:1026C000801980318061806180318019800F80079E
:1026D00000000000000000000000000000000000FA
:1026E0000000000000000000000000008007800FD4
:1026F000801F803F807F807F803F801F800F80070A
:1027000000000000000000000000000000000000C9
:10271000C00120022002400130060808080808080D
:1027200008080808080808082002200220022002E1
:1027300020022002200220022002200200000000CD
:10274000C001E003E003C001F007D80DD80DD80D9B
:10275000D80DD80DD80DD80D600360036003600359
:102760006003600360036003600360030000000017
:10277000C0012002200240013006080808080808AD
:102780000410022002204001200220021004080848
:102790000808041004100420044000000000000099
:1027A000C001E003E003C001F007D80DD80DD80D3B
:1027B000CC19C631C261C001600360037006380CD9
:1027C000180C0C180C180C300C60000000000000F5
:1027D000F02700000000001014000000B0120000FC
:1027E000042800001400001004020000C0120000C1
:1027F00000093D0000000000000000000000FFFF95
:0428000000000000D4
:04000005000000CD2A
:00000001FF
