:020000040000FA
:10000000600200105101000055010000570100007E
:10001000590100005B0100005D01000000000000CC
:100020000000000000000000000000005F01000070
:100030006101000000000000630100006501000094
:100040006701000067010000670100006701000010
:100050006701000067010000670100006701000000
:1000600067010000670100006701000067010000F0
:1000700067010000670100006701000067010000E0
:1000800067010000670100006701000067010000D0
:1000900067010000670100006701000067010000C0
:1000A00067010000670100006701000067010000B0
:1000B00067010000670100006701000067010000A0
:1000C00067010000670100006701000000F002F80E
:1000D00000F02EF80AA090E8000C82448344AAF1B4
:1000E0000107DA4501D100F023F8AFF2090EBAE8B2
:1000F0000F0013F0010F18BFFB1A43F0010318475C
:10010000E02B0000F02B0000002300240025002637
:10011000103A28BF78C1FBD8520728BF30C148BF6A
:100120000B6070471FB502F0DCFA1FBD10B510BDA3
:1001300002F09CFA1146FFF7F5FF00F023F802F0F9
:10014000BAFA03B4FFF7F2FF03BC02F0C3FA0000EF
:1001500008480047FEE7FEE7FEE7FEE7FEE7FEE7AA
:10016000FEE7FEE7FEE7FEE703480449024A044BC8
:1001700070470000CD000000600000106002001019
:100180006000001008B500F087F94FF4784002F0E5
:1001900029F84FF4784300934FF6FF7308A290219B
:1001A000382002F039FA4FF4784300934FF6FF738A
:1001B00008A2A021342002F02FFA00BFFEE70000C1
:1001C00048592D4C616E6454696765722056322E11
:1001D00030000000446576656C6F706D656E74204C
:1001E000426F61726400000070B505460C46A4F1D0
:1001F0002000044A02EB00111022284600F004F807
:1002000070BD0000F0260000032A40F2308010F09C
:10021000030C00F0158011F8013BBCF1020F6244A1
:1002200098BF11F801CB00F8013B38BF11F8013B32
:10023000A2F1040298BF00F801CB38BF00F8013BDF
:1002400011F0030300F02880083AC0F0088051F84C
:10025000043B083A51F804CBA0E80810F5E7121D5A
:100260005CBF51F8043B40F8043BAFF30080D20779
:1002700024BF11F8013B11F801CB48BF11F8012B45
:1002800024BF00F8013B00F801CB48BF00F8012B68
:10029000704770477047704710B5203AC0F00B8028
:1002A000B1E81850203AA0E81850B1E81850A0E87A
:1002B0001850BFF4F5AF5FEA027C24BFB1E81850D4
:1002C000A0E8185044BF18C918C0BDE810405FEA44
:1002D000827C24BF51F8043B40F8043B08BF7047C0
:1002E000D20728BF31F8023B48BF11F8012B28BFC5
:1002F00020F8023B48BF00F8012B7047FFFFFFFFCB
:10030000FF48006840F07E70FD4908604FF07E7045
:100310008861704700BF0100A0F10100FBD1704768
:1003200070B505460C4600BF00BF4FF48000F4498D
:10033000C8614000C8618000886100BF0846006C49
:1003400040F0FF0008644FF4001088618010C8611D
:100350004E2048654FF480108861C8614E2000121D
:10036000486500BF1920FFF7D5FF4FF08070E449C2
:10037000C8610120FFF7CEFF4FF08070E04988612F
:100380008010886100BF00BFC8614000886100BF65
:100390000846006C40F0FF0008644FF400108861CC
:1003A0008010C861084645654FF480108861C861B7
:1003B0002812486500BF4FF08070C8610120FFF728
:1003C000A9FF4FF08070CE4988618010886100BF1E
:1003D00000BF00BF00BFC8614000C86180008861E5
:1003E00000BF0846006C40F0FF0008644FF40010A6
:1003F00088618010C8614F2048654FF48010886183
:10040000C8614F200012486500BF1920FFF782FF26
:100410004FF08070BA49C8610120FFF77BFF4FF0B1
:100420008070B74988618010886100BF00BFC861D3
:100430004000886100BF0846006C40F0FF0008647F
:100440004FF4001088618010C861084644654FF47D
:1004500080108861C8612012486500BF4FF080702D
:10046000C8610120FFF756FF4FF08070A4498861F2
:100470008010886100BF00BF70BD002109E000222C
:1004800001E0531C9AB240F275439A42F9DB4B1CCF
:1004900099B28142F3DB704710B5FFF731FF64205A
:1004A000FFF7EBFF00BF00BF4FF480009449C86125
:1004B0004000C8618000886100BF0846006C40F0C1
:1004C000FF0008644FF4001088618010C8610020AC
:1004D00048654FF480108861C861002000124865AB
:1004E00000BF1920FFF716FF4FF080708449C861E4
:1004F0000120FFF70FFF4FF0807081498861801065
:10050000886100BF00BFC8614000886100BF084625
:10051000006C40F0FF0008644FF400108861801008
:10052000C8610120486500058861C861012000128A
:10053000486500BF4FF08070C8610120FFF7EAFEF8
:100540004FF080706E4988618010886100BF00BFE5
:100550003220FFF792FF00BF00BF4FF480006849D0
:10056000C8614000C8618000886100BF0846006C17
:1005700040F0FF0008644FF4001088618010C861EB
:10058000032048654FF480108861C8610320001281
:10059000486500BF1920FFF7BDFE4FF08070584935
:1005A000C8610120FFF7B6FE4FF0807054498861A2
:1005B0008010886100BF00BFC8614000886100BF33
:1005C0000846006C40F0FF0008644FF4001088619A
:1005D0008010C8614AF6A40048654FF48010886115
:1005E000C8614AF6A4000012486500BF4FF0807051
:1005F000C8610120FFF78EFE4FF08070404988618E
:100600008010886100BF00BF3220FFF736FF00BFB7
:1006100000BF4FF480003A49C8614000C8618000C3
:10062000886100BF0846006C40F0FF0008644FF48A
:10063000001088618010C8610C2048654FF480105C
:100640008861C8610C200012486500BF1920FFF7BF
:1006500061FE4FF080702A49C8610120FFF75AFE01
:100660004FF08070264988618010886100BF00BF0C
:10067000C8614000886100BF0846006C40F0FF0080
:1006800008644FF4001088618010C861002048653C
:100690004FF480108861C86100200012486500BFD7
:1006A0004FF08070C8610120FFF734FE4FF080707A
:1006B000134988618010886100BF00BF3220FFF7B6
:1006C000DCFE00BF00BF4FF480000D49C861400050
:1006D000C8618000886100BF0846006C40F0FF00E0
:1006E00008644FF4001088618010C8610D204865CF
:1006F0004FF480108861C8610D200012486501E048
:1007000000C0092000BF1920FFF704FE4FF08070E1
:10071000FF49C8610120FFF7FDFD4FF08070FC49E3
:1007200088618010886100BF00BFC8614000886197
:1007300000BF0846006C40F0FF0008644FF4001052
:1007400088618010C86140F60C0048654FF4801045
:100750008861C86140F60C000012486500BF4FF088
:100760008070C8610120FFF7D5FD4FF08070E84927
:1007700088618010886100BF00BF3220FFF77DFED6
:1007800000BF00BF4FF48000E149C8614000C8616C
:100790008000886100BF0846006C40F0FF000864DC
:1007A0004FF4001088618010C8610E2048654FF436
:1007B00080108861C8610E200012486500BF1920B2
:1007C000FFF7A8FD4FF08070D149C8610120FFF705
:1007D000A1FD4FF08070CE4988618010886100BF14
:1007E00000BFC8614000886100BF0846006C40F04F
:1007F000FF0008644FF4001088618010C8614FF456
:100800002C5048654FF480108861C8614FF42C501B
:100810000012486500BF4FF08070C8610120FFF7EB
:1008200079FD4FF08070BA4988618010886100BFFF
:1008300000BF3220FFF721FE00BF00BF4FF4800051
:10084000B349C8614000C8618000886100BF0846A4
:10085000006C40F0FF0008644FF4001088618010C5
:10086000C8611E2048654FF480108861C8611E2051
:100870000012486500BF1920FFF74CFD4FF0807053
:10088000A349C8610120FFF745FD4FF08070A049E2
:1008900088618010886100BF00BFC8614000886126
:1008A00000BF0846006C40F0FF0008644FF40010E1
:1008B00088618010C861B02048654FF4801088615D
:1008C000C861B0200012486500BF4FF08070C86159
:1008D0000120FFF71FFD4FF080708D498861801067
:1008E000886100BF00BF3220FFF7C7FD00BF00BF17
:1008F0004FF480008649C8614000C861800088616B
:1009000000BF0846006C40F0FF0008644FF4001080
:1009100088618010C8610120486500058861C86150
:1009200001200012486500BF1920FFF7F3FC4FF0CB
:1009300080707749C8610120FFF7ECFC4FF08070B0
:10094000734988618010886100BF00BFC8614000A2
:10095000886100BF0846006C40F0FF0008644FF457
:10096000001088618010C86142F63F3048654FF43E
:1009700080108861C86142F63F300012486500BFB0
:100980004FF08070C8610120FFF7C4FC4FF0807009
:100990005F4988618010886100BF00BF3220FFF787
:1009A0006CFD00BF00BF4FF480005949C861400092
:1009B000C8618000886100BF0846006C40F0FF00FD
:1009C00008644FF4001088618010C86102204865F7
:1009D000C0048861C86102200012486500BF192068
:1009E000FFF798FC4FF080704949C8610120FFF77C
:1009F00091FC4FF08070464988618010886100BF8B
:100A000000BFC8614000886100BF0846006C40F02C
:100A1000FF0008644FF4001088618010C8614FF433
:100A2000C06048654FF480108861C8614FF4C060B1
:100A30000012486500BF4FF08070C8610120FFF7C9
:100A400069FC4FF08070324988618010886100BF76
:100A500000BF3220FFF711FD00BF00BF4FF4800040
:100A60002B49C8614000C8618000886100BF08460A
:100A7000006C40F0FF0008644FF4001088618010A3
:100A8000C8611020486500048861C8611020001208
:100A9000486500BF1920FFF73DFC4FF080701C49EE
:100AA000C8610120FFF736FC4FF08070184988615B
:100AB0008010886100BF00BFC8614000886100BF2E
:100AC0000846006C40F0FF0008644FF40010886195
:100AD0008010C861002048654FF480108861C861AB
:100AE00000200012486500BF4FF08070C8610120EF
:100AF000FFF710FC4FF08070054988618010886115
:100B000000BF00BF3220FFF7B8FC00BF00BF01E00C
:100B100000C009204FF48000FF49C8614000C8614F
:100B20008000886100BF0846006C40F0FF00086448
:100B30004FF4001088618010C861112048654FF49F
:100B400080108861C86111200012486500BF19201B
:100B5000FFF7E0FB4FF08070EF49C8610120FFF71D
:100B6000D9FB4FF08070EC4988618010886100BF2C
:100B700000BFC8614000886100BF0846006C40F0BB
:100B8000FF0008644FF4001088618010C86146F2CD
:100B9000700048654FF480108861C86146F27000AB
:100BA0000012486500BF4FF08070C8610120FFF758
:100BB000B1FB4FF08070D84988618010886100BF18
:100BC00000BF3220FFF759FC00BF00BF4FF4800088
:100BD000D149C8614000C8618000886100BF0846F3
:100BE000006C40F0FF0008644FF400108861801032
:100BF000C861052048654FF480108861C8610520F0
:100C00000012486500BF1920FFF784FB4FF0807089
:100C1000C149C8610120FFF77DFB4FF08070BE49DC
:100C200088618010886100BF00BFC8614000886192
:100C300000BF0846006C40F0FF0008644FF400104D
:100C400088618010C861002048654FF48010886179
:100C5000C86100200012486500BF4FF08070C86175
:100C60000120FFF757FB4FF08070AB49886180107F
:100C7000886100BF00BF3220FFF7FFFB00BF00BF4D
:100C80004FF48000A449C8614000C86180008861B9
:100C900000BF0846006C40F0FF0008644FF40010ED
:100CA00088618010C861062048654FF48010886113
:100CB000C86106200012486500BF1920FFF72AFB13
:100CC0004FF080709449C8610120FFF723FB4FF07B
:100CD0008070914988618010886100BF00BFC86141
:100CE0004000886100BF0846006C40F0FF000864C7
:100CF0004FF4001088618010C861002048654FF4EF
:100D000080108861C86100200012486500BF4FF064
:100D10008070C8610120FFF7FDFA4FF080707E49B6
:100D200088618010886100BF00BF3220FFF7A5FBFB
:100D300000BF00BF4FF480007749C8614000C86120
:100D40008000886100BF0846006C40F0FF00086426
:100D50004FF4001088618010C861162048654FF478
:100D600080108861C86116200012486500BF1920F4
:100D7000FFF7D0FA4FF080706749C8610120FFF794
:100D8000C9FA4FF08070644988618010886100BFA3
:100D900000BFC8614000886100BF0846006C40F099
:100DA000FF0008644FF4001088618010C8614EF69F
:100DB0001C7048654FF480108861C8614EF61C7045
:100DC0000012486500BF4FF08070C8610120FFF736
:100DD000A1FA4FF08070504988618010886100BF8F
:100DE00000BF3220FFF749FB00BF00BF4FF4800077
:100DF0004949C8614000C8618000886100BF084659
:100E0000006C40F0FF0008644FF40010886180100F
:100E1000C861172048654FF480108861C8611720A9
:100E20000012486500BF1920FFF774FA4FF0807078
:100E30003949C8610120FFF76DFA4FF080703649DB
:100E400088618010886100BF00BFC8614000886170
:100E500000BF0846006C40F0FF0008644FF400102B
:100E600088618010C861032048654FF48010886154
:100E7000C86103200012486500BF4FF08070C86150
:100E80000120FFF747FA4FF08070234988618010F6
:100E9000886100BF00BF3220FFF7EFFA00BF00BF3C
:100EA0004FF480001C49C8614000C861800088611F
:100EB00000BF0846006C40F0FF0008644FF40010CB
:100EC00088618010C861072048654FF480108861F0
:100ED000C86107200012486500BF1920FFF71AFA01
:100EE0004FF080700C49C8610120FFF713FA4FF0F2
:100EF0008070094988618010886100BF00BFC861A7
:100F00004000886100BF0846006C40F0FF000864A4
:100F10004FF40010886101E000C009208010C86112
:100F200040F2331048654FF480108861C86140F288
:100F300033100012486500BF4FF08070C861012077
:100F4000FFF7E8F94FF08070FF49886180108861F1
:100F500000BF00BF3220FFF790FA00BF00BF4FF480
:100F60008000F949C8614000C8618000886100BF05
:100F70000846006C40F0FF0008644FF400108861E0
:100F80008010C8610B2048654FF480108861C861EB
:100F90000B200012486500BF1920FFF7BBF94FF086
:100FA0008070E949C8610120FFF7B4F94FF0807003
:100FB000E54988618010886100BF00BFC8614000BA
:100FC000886100BF0846006C40F0FF0008644FF4E1
:100FD000001088618010C861002048654FF48010BF
:100FE0008861C86100200012486500BF4FF0807022
:100FF000C8610120FFF78EF94FF08070D2498861F7
:101000008010886100BF00BF3220FFF736FA00BFB2
:1010100000BF4FF48000CC49C8614000C861800027
:10102000886100BF0846006C40F0FF0008644FF480
:10103000001088618010C8610F2048654FF480104F
:101040008861C8610F200012486500BF1920FFF7B2
:1010500061F94FF08070BC49C8610120FFF75AF96F
:101060004FF08070B84988618010886100BF00BF70
:10107000C8614000886100BF0846006C40F0FF0076
:1010800008644FF4001088618010C8610020486532
:101090004FF480108861C86100200012486500BFCD
:1010A0004FF08070C8610120FFF734F94FF0807075
:1010B000A54988618010886100BF00BF3220FFF71A
:1010C000DCF900BF00BF4FF480009F49C8614000B9
:1010D000C8618000886100BF0846006C40F0FF00D6
:1010E00008644FF4001088618010C8614120486591
:1010F0004FF480108861C86141200012486500BF2C
:101100001920FFF707F94FF080708F49C86101205F
:10111000FFF700F94FF080708B498861801088617B
:1011200000BF00BFC8614000886100BF0846006C76
:1011300040F0FF0008644FF4001088618010C8611F
:10114000002048654FF480108861C86100200012BB
:10115000486500BF4FF08070C8610120FFF7DAF8E2
:101160004FF08070784988618010886100BF00BFAF
:101170003220FFF782F900BF00BF4FF480007249B0
:10118000C8614000C8618000886100BF0846006CEB
:1011900040F0FF0008644FF4001088618010C861BF
:1011A000422048654FF480108861C86142200012D7
:1011B000486500BF1920FFF7ADF84FF08070624915
:1011C000C8610120FFF7A6F84FF080705E49886182
:1011D0008010886100BF00BFC8614000886100BF07
:1011E0000846006C40F0FF0008644FF4001088616E
:1011F0008010C861002048654FF480108861C86184
:1012000000200012486500BF4FF08070C8610120C7
:10121000FFF780F84FF080704B498861801088613B
:1012200000BF00BF3220FFF728F900BF00BF4FF416
:1012300080004549C8614000C8618000886100BFE6
:101240000846006C40F0FF0008644FF4001088610D
:101250008010C861482048654FF480108861C861DB
:1012600048200012486500BF1920FFF753F84FF0DF
:1012700080703549C8610120FFF74CF84FF080704D
:10128000314988618010886100BF00BFC86140009B
:10129000886100BF0846006C40F0FF0008644FF40E
:1012A000001088618010C861002048654FF48010EC
:1012B0008861C86100200012486500BF4FF080704F
:1012C000C8610120FFF726F84FF080701E49886141
:1012D0008010886100BF00BF3220FFF7CEF800BF4A
:1012E00000BF4FF480001849C8614000C861800009
:1012F000886100BF0846006C40F0FF0008644FF4AE
:10130000001088618010C861492048654FF4801042
:101310008861C86149200012486500BF1920FEF7A6
:10132000F9FF4FF080700849C8610120FEF7F2FF15
:101330004FF08070044988618010886100BF00BF51
:10134000C8614000886101E000C0092000BF084674
:10135000006C40F0FF0008644FF4001088618010BA
:10136000C86140F23F1048654FF480108861C86141
:1013700040F23F100012486500BF4FF08070C86116
:101380000120FEF7C7FF4FF08070FF498861801091
:10139000886100BF00BF3220FFF76FF800BF00BFB9
:1013A0004FF48000F849C8614000C861800088613E
:1013B00000BF0846006C40F0FF0008644FF40010C6
:1013C00088618010C8614A2048654FF480108861A8
:1013D000C8614A200012486500BF1920FEF79AFF35
:1013E0004FF08070E849C8610120FEF793FF4FF08D
:1013F0008070E54988618010886100BF00BFC861C6
:101400004000886100BF0846006C40F0FF0008649F
:101410004FF4001088618010C861002048654FF4C7
:1014200080108861C86100200012486500BF4FF03D
:101430008070C8610120FEF76DFF4FF08070D249C7
:1014400088618010886100BF00BF3220FFF715F867
:1014500000BF00BF4FF48000CB49C8614000C861A5
:101460008000886100BF0846006C40F0FF000864FF
:101470004FF4001088618010C8614B2048654FF41C
:1014800080108861C8614B200012486500BF192098
:10149000FEF740FF4FF08070BB49C8610120FEF7A6
:1014A00039FF4FF08070B84988618010886100BFB3
:1014B00000BFC8614000886100BF0846006C40F072
:1014C000FF0008644FF4001088618010C86100209C
:1014D00048654FF480108861C8610020001248659B
:1014E00000BF4FF08070C8610120FEF713FF4FF07E
:1014F0008070A54988618010886100BF00BF3220DC
:10150000FEF7BBFF00BF00BF4FF480009E49C861DB
:101510004000C8618000886100BF0846006C40F050
:10152000FF0008644FF4001088618010C8614420F7
:1015300048654FF480108861C861442000124865F6
:1015400000BF1920FEF7E6FE4FF080708E49C8619B
:101550000120FEF7DFFE4FF080708B49886180101C
:10156000886100BF00BFC8614000886100BF0846B5
:10157000006C40F0FF0008644FF400108861801098
:10158000C8614FF46F4048654FF480108861C861AE
:101590004FF46F400012486500BF4FF08070C86183
:1015A0000120FEF7B7FE4FF0807077498861801008
:1015B000886100BF00BF3220FEF75FFF00BF00BFA1
:1015C0004FF480007049C8614000C86180008861A4
:1015D00000BF0846006C40F0FF0008644FF40010A4
:1015E00088618010C861452048654FF4801088618B
:1015F000C86145200012486500BF1920FEF78AFE29
:101600004FF080706049C8610120FEF783FE4FF003
:1016100080705D4988618010886100BF00BFC8612B
:101620004000886100BF0846006C40F0FF0008647D
:101630004FF4001088618010C861002048654FF4A5
:1016400080108861C86100200012486500BF4FF01B
:101650008070C8610120FEF75DFE4FF080704A493E
:1016600088618010886100BF00BF3220FEF705FF4F
:1016700000BF00BF4FF480004349C8614000C8610B
:101680008000886100BF0846006C40F0FF000864DD
:101690004FF4001088618010C861462048654FF4FF
:1016A00080108861C86146200012486500BF19207B
:1016B000FEF730FE4FF080703349C8610120FEF71D
:1016C00029FE4FF08070304988618010886100BF2A
:1016D00000BFC8614000886100BF0846006C40F050
:1016E000FF0008644FF4001088618010C86140F268
:1016F0003F1048654FF480108861C86140F23F1088
:101700000012486500BF4FF08070C8610120FEF7ED
:1017100001FE4FF080701C4988618010886100BF15
:1017200000BF3220FEF7A9FE00BF00BF4FF48000CB
:101730001549C8614000C8618000886100BF084643
:10174000006C40F0FF0008644FF4001088618010C6
:10175000C861302048654FF480108861C86130202E
:101760000012486500BF1920FEF7D4FD4FF08070CD
:101770000549C8610120FEF7CDFD4FF08070024998
:1017800088618010886101E000C0092000BF00BFAF
:10179000C8614000886100BF0846006C40F0FF004F
:1017A00008644FF4001088618010C86140F207702F
:1017B00048654FF480108861C86140F207700012DC
:1017C000486500BF4FF08070C8610120FEF7A2FDA0
:1017D0004FF08070FF4988618010886100BF00BFB2
:1017E0003220FEF74AFE00BF00BF4FF48000F949E7
:1017F000C8614000C8618000886100BF0846006C75
:1018000040F0FF0008644FF4001088618010C86148
:10181000312048654FF480108861C8613120001282
:10182000486500BF1920FEF775FD4FF08070E9494B
:10183000C8610120FEF76EFD4FF08070E5498861B8
:101840008010886100BF00BFC8614000886100BF90
:101850000846006C40F0FF0008644FF400108861F7
:101860008010C8614FF4017048654FF480108861A2
:10187000C8614FF401700012486500BF4FF08070DE
:10188000C8610120FEF746FD4FF08070D1498861A4
:101890008010886100BF00BF3220FEF7EEFD00BF60
:1018A00000BF4FF48000CB49C8614000C861800090
:1018B000886100BF0846006C40F0FF0008644FF4E8
:1018C000001088618010C861322048654FF4801094
:1018D0008861C86132200012486500BF1920FEF7F8
:1018E00019FD4FF08070BB49C8610120FEF712FD61
:1018F0004FF08070B74988618010886100BF00BFD9
:10190000C8614000886100BF0846006C40F0FF00DD
:1019100008644FF4001088618010C8614FF40170B2
:1019200048654FF480108861C8614FF4017000125F
:10193000486500BF4FF08070C8610120FEF7EAFCE7
:101940004FF08070A34988618010886100BF00BF9C
:101950003220FEF792FD00BF00BF4FF480009D498A
:10196000C8614000C8618000886100BF0846006C03
:1019700040F0FF0008644FF4001088618010C861D7
:10198000332048654FF480108861C861332000120D
:10199000486500BF1920FEF7BDFC4FF080708D49EF
:1019A000C8610120FEF7B6FC4FF08070894988615C
:1019B0008010886100BF00BFC8614000886100BF1F
:1019C0000846006C40F0FF0008644FF40010886186
:1019D0008010C86140F2025048654FF48010886161
:1019E000C86140F202500012486500BF4FF080709D
:1019F000C8610120FEF78EFC4FF080707549886148
:101A00008010886100BF00BF3220FEF736FD00BFA6
:101A100000BF4FF480006F49C8614000C86180007A
:101A2000886100BF0846006C40F0FF0008644FF476
:101A3000001088618010C861342048654FF4801020
:101A40008861C86134200012486500BF1920FEF784
:101A500061FC4FF080705F49C8610120FEF75AFCBD
:101A60004FF080705B4988618010886100BF00BFC3
:101A7000C8614000886100BF0846006C40F0FF006C
:101A800008644FF4001088618010C86140F207506C
:101A900048654FF480108861C86140F20750001219
:101AA000486500BF4FF08070C8610120FEF732FC2E
:101AB0004FF08070474988618010886100BF00BF87
:101AC0003220FEF7DAFC00BF00BF4FF4800041492E
:101AD000C8614000C8618000886100BF0846006C92
:101AE00040F0FF0008644FF4001088618010C86166
:101AF000352048654FF480108861C8613520001298
:101B0000486500BF1920FEF705FC4FF08070314991
:101B1000C8610120FEF7FEFB4FF080702D498861FF
:101B20008010886100BF00BFC8614000886100BFAD
:101B30000846006C40F0FF0008644FF40010886114
:101B40008010C8614FF4017048654FF480108861BF
:101B5000C8614FF401700012486500BF4FF08070FB
:101B6000C8610120FEF7D6FB4FF0807019498861EB
:101B70008010886100BF00BF3220FEF77EFC00BFEE
:101B800000BF4FF480001349C8614000C861800065
:101B9000886100BF0846006C40F0FF0008644FF405
:101BA000001088618010C861362048654FF48010AD
:101BB0008861C86136200012486500BF1920FEF711
:101BC000A9FB4FF080700349C8610120FEF7A2FB1A
:101BD00002E0000000C009204FF08070FF498861DA
:101BE0008010886100BF00BFC8614000886100BFED
:101BF0000846006C40F0FF0008644FF40010886154
:101C00008010C8614FF4017048654FF480108861FE
:101C1000C8614FF401700012486500BF4FF080703A
:101C2000C8610120FEF776FB4FF08070EB498861B8
:101C30008010886100BF00BF3220FEF71EFC00BF8D
:101C400000BF4FF48000E549C8614000C8618000D2
:101C5000886100BF0846006C40F0FF0008644FF444
:101C6000001088618010C861372048654FF48010EB
:101C70008861C86137200012486500BF1920FEF74F
:101C800049FB4FF08070D549C8610120FEF742FB47
:101C90004FF08070D14988618010886100BF00BF1B
:101CA000C8614000886100BF0846006C40F0FF003A
:101CB00008644FF4001088618010C86140F202503F
:101CC00048654FF480108861C86140F202500012EC
:101CD000486500BF4FF08070C8610120FEF71AFB15
:101CE0004FF08070BD4988618010886100BF00BFDF
:101CF0003220FEF7C2FB00BF00BF4FF48000B7499F
:101D0000C8614000C8618000886100BF0846006C5F
:101D100040F0FF0008644FF4001088618010C86133
:101D20003A2048654FF480108861C8613A2000125B
:101D3000486500BF1920FEF7EDFA4FF08070A74903
:101D4000C8610120FEF7E6FA4FF08070A349886170
:101D50008010886100BF00BFC8614000886100BF7B
:101D60000846006C40F0FF0008644FF400108861E2
:101D70008010C86140F2023048654FF480108861DD
:101D8000C86140F202300012486500BF4FF0807019
:101D9000C8610120FEF7BEFA4FF080708F4988615C
:101DA0008010886100BF00BF3220FEF766FB00BFD5
:101DB00000BF4FF480008949C8614000C8618000BD
:101DC000886100BF0846006C40F0FF0008644FF4D3
:101DD000001088618010C8613B2048654FF4801076
:101DE0008861C8613B200012486500BF1920FEF7DA
:101DF00091FA4FF080707949C8610120FEF78AFAA4
:101E00004FF08070754988618010886100BF00BF05
:101E1000C8614000886100BF0846006C40F0FF00C8
:101E200008644FF4001088618010C86140F20230ED
:101E300048654FF480108861C86140F2023000129A
:101E4000486500BF4FF08070C8610120FEF762FA5C
:101E50004FF08070614988618010886100BF00BFC9
:101E60003220FEF70AFB00BF00BF4FF480005B4941
:101E7000C8614000C8618000886100BF0846006CEE
:101E800040F0FF0008644FF4001088618010C861C2
:101E9000232048654FF480108861C8612320001218
:101EA000486500BF1920FEF735FA4FF080704B49A6
:101EB000C8610120FEF72EFA4FF080704749886113
:101EC0008010886100BF00BFC8614000886100BF0A
:101ED0000846006C40F0FF0008644FF40010886171
:101EE0008010C861002048654FF480108861C86187
:101EF00000200012486500BF4FF08070C8610120CB
:101F0000FEF708FA4FF080703449886180108861CC
:101F100000BF00BF3220FEF7B0FA00BF00BF4FF491
:101F200080002E49C8614000C8618000886100BF00
:101F30000846006C40F0FF0008644FF40010886110
:101F40008010C861242048654FF480108861C86102
:101F500024200012486500BF1920FEF7DBF94FF07E
:101F600080701E49C8610120FEF7D4F94FF08070DF
:101F70001A4988618010886100BF00BFC8614000B5
:101F8000886100BF0846006C40F0FF0008644FF411
:101F9000001088618010C861002048654FF48010EF
:101FA0008861C86100200012486500BF4FF0807052
:101FB000C8610120FEF7AEF94FF0807007498861D3
:101FC0008010886100BF00BF3220FEF756FA00BFC4
:101FD00000BF4FF480000149C86101E000C0092042
:101FE0004000C8618000886100BF0846006C40F076
:101FF000FF0008644FF4001088618010C86125203C
:1020000048654FF480108861C8612520001248653A
:1020100000BF1920FEF77EF94FF08070FF49C861BC
:102020000120FEF777F94FF08070FC49886180103D
:10203000886100BF00BFC8614000886100BF0846DA
:10204000006C40F0FF0008644FF4001088618010BD
:10205000C8610011486540018861C86140110012E3
:10206000486500BF4FF08070C8610120FEF752F94B
:102070004FF08070E94988618010886100BF00BF1F
:102080003220FEF7FAF900BF00BF4FF48000E349A9
:10209000C8614000C8618000886100BF0846006CCC
:1020A00040F0FF0008644FF4001088618010C861A0
:1020B0004F2048654FF480108861C8614F2000129E
:1020C000486500BF1920FEF725F94FF08070D3490D
:1020D000C8610120FEF71EF94FF08070CF4988617A
:1020E0008010886100BF00BFC8614000886100BFE8
:1020F0000846006C40F0FF0008644FF4001088614F
:102100008010C861002048654FF480108861C86164
:1021100000200012486500BF4FF08070C8610120A8
:10212000FEF7F8F84FF08070BC4988618010886134
:1021300000BF00BF00BF00BFC8614000C861800091
:10214000886100BF0846006C40F0FF0008644FF44F
:10215000001088618010C8614E2048654FF48010DF
:102160008861C8614E200012486500BF1920FEF743
:10217000D1F84FF08070A949C8610120FEF7CAF874
:102180004FF08070A54988618010886100BF00BF52
:10219000C8614000886100BF0846006C40F0FF0045
:1021A00008644FF4001088618010C8610020486501
:1021B0004FF480108861C86100200012486500BF9C
:1021C0004FF08070C8610120FEF7A4F84FF08070D6
:1021D000924988618010886100BF00BF3220FEF7FD
:1021E0004CF910BD70B5044600210846FEF798F87A
:1021F00000BF4FF480008949C8614000C861800079
:10220000886100BF0846006C40F0FF0008644FF48E
:10221000001088618010C861222048654FF480104A
:102220008861C86122200012486500BF1920FEF7AE
:1022300071F84FF080707949C8610120FEF76AF8A3
:102240004FF08070754988618010886100BF00255B
:1022500028E000BF4FF480007049C86140008861E9
:1022600000BF0846006C40F0FF0008644FF4001007
:1022700088618010C861084644654FF48010886109
:10228000C8612012486500BF4FF08070C86101200E
:10229000FEF740F84FF080706049886180108861D7
:1022A00000BF6D1CB5F5963FD3D370BD2DE9F0414D
:1022B00005460E4631462846FEF732F800BF4FF479
:1022C00080005649C8614000C8618000886100BF35
:1022D0000846006C40F0FF0008644FF4001088616D
:1022E0008010C861222048654FF480108861C86161
:1022F00022200012486500BF1920FEF70BF84FF0AE
:1023000080704649C8610120FEF704F84FF08070E4
:10231000424988618010886100BF00BFC8614000E9
:102320008861400088614000C86100BF0846006CB9
:1023300020F0FF0008644FF40010C8618010C861ED
:102340001E20FDF7E7FF364804784FF4002033499C
:1023500088614FF01E00FDF7DDFF304890F8540013
:1023600040EA04244FF400102C49886100BFA046C5
:1023700000018861C010886100BF474600BFC86186
:1023800040008861400088614000C86100BF084685
:10239000006C20F0FF0008644FF40010C86180104A
:1023A000C8611E20FDF7B6FF1D4804784FF40020D9
:1023B0001A4988614FF01E00FDF7ACFF174890F8EE
:1023C000540040EA04244FF400101449886100BF0F
:1023D000A04600018861C010886100BF47463846AA
:1023E000BDE8F08170B506460D461446F02E02DABF
:1023F000B5F5A07F00DB70BD29463046FDF790FFA4
:1024000000BF00BF4FF480000449C8614000C861AC
:102410008000886100BF0846006C03E000C009200E
:1024200054C0092040F0FF0008644FF40010886198
:102430008010C861222048654FF480108861C8610F
:1024400022200012486500BF1920FDF763FF4FF0FE
:1024500080708549C8610120FDF75CFF4FF08070F6
:10246000814988618010886100BF00BFC861400059
:10247000886100BF0846006C40F0FF0008644FF41C
:10248000001088618010C861084644654FF48010D0
:102490008861C8612012486500BF4FF08070C86134
:1024A0000120FDF737FF4FF080706F498861801081
:1024B000886100BF00BF00BF9DE72DE9F05F0446C3
:1024C0000D4691469A46DDF828B04C4503DD0FFADB
:1024D00089F7A146BCB2554503DD0FFA8AF7AA4633
:1024E000BDB2A9EB04000FFA80F8AAEB050006B212
:1024F000B8F1000F0BD100BF5A4629462046FFF71E
:1025000071FF681C85B2AA45F6DABDE8F09F56B99E
:1025100000BF5A4629462046FFF764FF601C84B27C
:10252000A145F6DAF1E7B04521DDC8EB460007B278
:1025300015E05A4629462046FFF754FF601C84B236
:10254000002F08DD681C85B27000022101FB180015
:10255000384407B203E0022000FB067007B24C4586
:10256000E7D15A4629462046FFF73CFF20E0C6EB5C
:10257000480007B215E05A4629462046FFF732FFC9
:10258000681C85B2002F08DD601C84B27000022137
:1025900001FB1800384407B203E0022000FB06707C
:1025A00007B25545E7D15A4629462046FFF71AFF9C
:1025B00000BFAAE72DE9FF5F06460F469046994601
:1025C000DDF838B041466846FDF70EFE00241FE0F6
:1025D0001DF804A0002517E0C5F107004AFA00F035
:1025E00010F0010F07D03A1991B2721990B24A4611
:1025F000FFF7F8FE06E03A1991B2721990B25A4606
:10260000FFF7F0FE681C85B2082DE5DB601C84B284
:10261000102CDDDBBDE8FF9F2DE9F84305460E4693
:1026200014469846DDF8209000BF14F8017B43461D
:102630003A4631462846CDF80090FFF7BBFFE82D1B
:1026400003DA05F1080085B209E0B6F5987F04DAEF
:10265000002506F1100086B201E000250026207852
:102660000028E2D1BDE8F88300C00920754600F0DB
:1026700029F8AE4605006946534620F00700854616
:1026800018B020B5FDF770FDBDE820404FF0000602
:102690004FF000074FF000084FF0000B21F007014A
:1026A000AC46ACE8C009ACE8C009ACE8C009ACE88D
:1026B000C0098D4670470446AFF300802046FDF701
:1026C00040FD0000004870470000001000487047BF
:1026D0000400001001491820ABBEFEE726000200EE
:1026E000704710B5FFF7F2FF4FF00001016010BD19
:1026F00000000000000000000000000000000000DA
:10270000000000183C3C3C1818001818000000009D
:102710000000006666660000000000000000000087
:1027200000000036367F3636367F36360000000031
:102730000018183C666030180C06663C181800003B
:10274000000070D8DA760C18306E5B1B0E000000AB
:10275000000000386C6C38606F66663B000000005B
:102760000000001818180000000000000000000021
:102770000000000C1818303030303018180C0000F1
:102780000000003018180C0C0C0C0C18183000004D
:102790000000000000361C7F1C3600000000000016
:1027A000000000000018187E18180000000000004B
:1027B000000000000000000000001C1C0C180000BD
:1027C000000000000000007E00000000000000008B
:1027D000000000000000000000001C1C00000000C1
:1027E00000000006060C0C18183030606000000075
:1027F0000000001E333737333B3B331E0000000020
:102800000000000C1C7C0C0C0C0C0C0C00000000DC
:102810000000003C6666060C1830607E0000000078
:102820000000003C6666061C0666663C0000000070
:102830000000003030363636667F060600000000A5
:102840000000007E6060607C06060C7800000000DE
:102850000000001C18307C666666663C00000000C4
:102860000000007E060C0C1818303030000000000C
:102870000000003C6666763C6E66663C0000000028
:102880000000003C666666663E0C183800000000DA
:1028900000000000001C1C0000001C1C00000000C8
:1028A00000000000001C1C0000001C1C0C18000094
:1028B000000000060C18306030180C060000000004
:1028C0000000000000007E007E000000000000000C
:1028D0000000006030180C060C183060000000008A
:1028E0000000003C66660C18180018180000000074
:1028F0000000007EC3C3CFDBDBCFC07F0000000041
:10290000000000183C6666667E6666660000000091
:102910000000007C6666667C6666667C00000000DF
:102920000000003C666660606066663C0000000077
:10293000000000786C66666666666C7800000000D1
:102940000000007E6060607C6060607E00000000CF
:102950000000007E6060607C6060606000000000DD
:102960000000003C666660606E66663E0000000027
:10297000000000666666667E6666666600000000A9
:102980000000003C181818181818183C0000000027
:1029900000000006060606060666663C000000000B
:1029A00000000066666C6C786C6C66660000000067
:1029B00000000060606060606060607E0000000099
:1029C0000000006363776B6B6B6363630000000060
:1029D0000000006363737B6F676363630000000044
:1029E0000000003C666666666666663C00000000A5
:1029F0000000007C6666667C60606060000000002D
:102A00000000003C666666666666663C0C06000072
:102A10000000007C6666667C6C66666600000000EE
:102A20000000003C666030180C06663C00000000A8
:102A30000000007E18181818181818180000000058
:102A400000000066666666666666663C000000001A
:102A5000000000666666666666663C180000000058
:102A60000000006363636B6B6B363636000000005A
:102A700000000066663418182C66666600000000C8
:102A8000000000666666663C181818180000000012
:102A90000000007E06060C183060607E000000001A
:102AA0000000003C303030303030303030303C00CE
:102AB0000000006060303018180C0C0606000000A2
:102AC0000000003C0C0C0C0C0C0C0C0C0C0C3C0016
:102AD00000183C660000000000000000000000003C
:102AE0000000000000000000000000000000FF00E7
:102AF000000000181818000000000000000000008E
:102B000000000000003C06063E66663E0000000035
:102B100000000060607C66666666667C00000000FF
:102B200000000000003C66606060663C0000000041
:102B300000000006063E66666666663E000000000F
:102B400000000000003C66667E60603C0000000003
:102B50000000001E3030307E303030300000000089
:102B600000000000003E66666666663E06067C0063
:102B700000000060607C66666666666600000000B5
:102B800000001818007818181818187E00000000A7
:102B900000000C0C003C0C0C0C0C0C0C0C0C780009
:102BA000000000606066666C786C6666000000007D
:102BB00000000078181818181818187E0000000077
:102BC00000000000007E6B6B6B6B6B63000000000D
:102BD00000000000007C6666666666660000000015
:102BE00000000000003C66666666663C000000006F
:102BF00000000000007C66666666667C60606000BF
:102C000000000000003E66666666663E0606060038
:102C10000000000000666E706060606000000000F0
:102C200000000000003E60603C06067C00000000E2
:102C300000000030307E30303030301E00000000A8
:102C400000000000006666666666663E00000000E2
:102C5000000000000066666666663C180000000022
:102C60000000000000636B6B6B6B363600000000E9
:102C7000000000000066663C183C6666000000002C
:102C800000000000006666666666663C0C18F00090
:102C900000000000007E060C1830607E000000007E
:102CA0000000000C1818183060301818180C0000BC
:102CB00000000018181818181818181818181800F4
:102CC000000000301818180C060C181818300000F6
:102CD00000000071DB8E000000000000000000001A
:102CE000F02C00000000001060020000080100004D
:0400000500000151A5
:00000001FF
