:020000040000FA
:10000000B0020010ED000000F1000000F30000005D
:10001000F5000000F7000000F900000000000000FB
:10002000000000000000000000000000FB000000D5
:10003000FD00000000000000FF00000001030000C0
:1000400003010000030100000301000003010000A0
:100050000301000003010000030100000301000090
:100060000301000003010000030100000301000080
:100070000301000003010000030100000301000070
:100080000301000003010000030100000301000060
:100090000301000003010000030100000301000050
:1000A0000301000003010000030100000301000040
:1000B0000301000003010000030100000301000030
:1000C000030100000301000003010000DFF80CD071
:1000D00001F01EFF0048004761020000B00200105E
:1000E00040BA7047C0BA704700BF70470548004724
:1000F000FEE7FEE7FEE7FEE7FEE7FEE7FEE7FEE7D8
:10010000FEE7FEE7CD00000030B54D492020C1F8E4
:10011000A001D1F8A0014006FBD501F18001032523
:10012000C1F884504FF00002C1F82821C1F82C21F9
:100130004FF00100C1F88C00424B4B6008604FF05B
:10014000AA03CB604FF05504CC60A1F18001D1F837
:1001500088004001FBD541F8805FCB60CC60C1F8DE
:10016000882039484864C1F848218868A1F1800195
:100170006FEA10608007354AD1F80C0100F00300E7
:1001800007D0E8B3012845D0022849D0032850D130
:100190003AE028B1012813D0022822D0032848D100
:1001A00051F8880FC0F30740CB6F401CDBB25B1CDB
:1001B000584351F88839264CC3F30E035B1C0EE0FC
:1001C00051F8880FC0F30740CB6F401CDBB25B1CBB
:1001D000584351F888391F4CC3F30E035B1C63432B
:1001E00024E051F8880FC0F30740CB6F401CDBB20E
:1001F0005B1C584351F88839C3F30E035B1C00E0C5
:1002000002E04FF47A44EAE7D1F80401124BC0B29D
:10021000401C0BE0D1F80401104BC0B2401C05E0BB
:10022000D1F804014FF4FA43C0B2401CB3FBF0F024
:100230001060086820F4704040F48040086030BDD1
:1002400000C00F4063000500DE8728040000001096
:1002500000127A0000366E0100093D00001BB70055
:100260001CB5142001F036FF0446FFF74DFF00F0E7
:1002700078F80F2000F0C4FC0F2000F0BEFC032330
:100280004FF47842CDE90023C8231A4612213C20BE
:1002900001F03CF801F0A2F909480021491C814213
:1002A000FCDB01F0E4F94388028806A1204601F056
:1002B00041FE00212246084600F05BFD00201CBDE7
:1002C000008793032564202564000000D2B201E07A
:1002D00000F8012B491EFBD270470022F6E710B54B
:1002E00004460846114602462046FFF7EFFF204627
:1002F00010BD70470000000000000000FFFFFFFF7E
:100300000C4901224868401C48600A280ED006DCCF
:1003100003280DD0052809D0082808D108E00D28A9
:1003200006D00F2803D1002048608A700A707047F9
:100330004A70704704000010401EFDD27047FF490C
:100340000A6C42F0FF020A644FF400128A619210B4
:10035000CA61486552008A61CA61000A4865012085
:1003600070472DE9F05FF548016841F07E7101604A
:100370004FF07E718161052000F0F6FE002000F054
:100380002FFFEF4CA0F58A414FF48075A08041F219
:10039000300940F2022A4FF4837B40F23F1640F2CC
:1003A000023731397DD10121002000F00CFF4FF4DC
:1003B000C561102000F007FF0621122000F003FFA6
:1003C00040F63221132000F0FEFE4021112000F003
:1003D000FAFE5021152000F0F6FE1621122000F042
:1003E000F2FE0F2000F0C0FE45F26061102000F028
:1003F000EAFE0F2000F0B8FE42F64E21132000F076
:10040000E2FE2946012000F0DEFEB91E022000F0C7
:10041000DAFE4946032000F0D6FE5146082000F0DF
:10042000D2FE00210A2000F0CEFE0021302000F094
:10043000CAFE40F20241312000F0C5FE594632208A
:1004400000F0C1FE4FF4E061332000F0BCFE291D36
:10045000342000F0B8FE791E352000F0B4FE40F2E2
:100460000771362000F0AFFEF91C372000F0ABFE1C
:100470004FF40271382000F0A6FE40F60B713920CF
:1004800000F0A1FE0F2000F06FFE0221412000F0DD
:100490009AFE4FF41C51602000F095FE012161206E
:1004A00000E01EE000F08FFE40F21911902000F0F5
:1004B0008AFE4FF48571922000F085FE042193207E
:1004C00000F081FE2946A02000F07DFE0F2000F004
:1004D0004BFE0021A02000F076FE142000F044FE28
:1004E000F7E1A0F513414FF4887825397ED110212A
:1004F000E72000F068FE0121002000F064FE29469C
:10050000012000F060FE4FF4E061022000F05BFE8D
:100510004946032000F057FE0021042000F053FE5E
:1005200040F20721082000F04EFE0021092000F0D3
:100530004AFE00210A2000F046FE01210C2000F0B6
:1005400042FE00210D2000F03EFE00210F2000F0B1
:100550003AFE0021102000F036FE0721112000F0A5
:1005600032FE0021122000F02EFE0021132000F0A8
:100570002AFE0F2000F0F8FD41F29051102000F00B
:1005800022FE40F22721112000F01DFE0F2000F076
:10059000EBFD9C21122000F016FE0F2000F0E4FD80
:1005A0004FF4C851132000F00EFE2321292000F043
:1005B0000AFE0E212B2000F006FE0F2000F0D4FDD5
:1005C0000021202000F0FFFD0021212000F0FBFD94
:1005D0000F2000F0C9FD0721302000F0F4FD40F2AB
:1005E0000771312000F0EFFD062100E07EE03220AF
:1005F00000F0E9FD40F20471352000F0E4FD41F621
:100600000471362000F0DFFD0421372000F0DBFD0F
:100610000021382000F0D7FD40F20671392000F0AB
:10062000D2FD40F201713C2000F0CDFD0F213D20B4
:1006300000F0C9FD0F2000F097FD0021502000F0D0
:10064000C2FDEF21512000F0BEFD0021522000F03C
:10065000BAFD3146532000F0B6FD4FF4274160202B
:1006600000F0B1FD0121612000F0ADFD00216A2004
:1006700000F0A9FD0021802000F0A5FD00218120CF
:1006800000F0A1FD0021822000F09DFD00218320CB
:1006900000F099FD0021842000F095FD00218520C7
:1006A00000F091FD1021902000F08DFD002192209E
:1006B00000F089FD0321932000F085FD414695203F
:1006C00000F081FD0021972000F07DFD00219820A1
:1006D00000F079FD40F23311072000F074FD002195
:1006E000202000F070FD00212120F0E0A0F5134152
:1006F00020397ED14FF40041E52000F064FD012156
:10070000002000F060FD2946012000F05CFD4FF460
:10071000E061022000F057FD4946032000F053FD40
:100720000021042000F04FFD5146082000F04BFD51
:100730000021092000F047FD002103E000C009204E
:100740000C0000100A2000F03EFD00210C2000F0FB
:100750003AFD00210D2000F036FD00210F2000F0B1
:1007600032FD0021102000F02EFD0021112000F0AC
:100770002AFD0021122000F026FD0021132000F0A8
:1007800022FD142000F0F0FC41F2B071102000F0C6
:100790001AFD40F23711112000F015FD052000F080
:1007A000E3FC40F23911122000F00DFD052000F0AD
:1007B000DBFC4FF4E851132000F005FD1321292044
:1007C00000F001FD052000F0CFFC0021202000F00A
:1007D000FAFC0021212000F0F6FC0621302000F078
:1007E000F2FC40F20111312000F0EDFC0321322037
:1007F00000E06EE000F0E7FC5946352000F0E3FC35
:1008000040F60231362000F0DEFC3946372000F099
:10081000DAFC40F20771382000F0D5FC07213920BE
:1008200000F0D1FC4FF4C0613C2000F0CCFC40F261
:100830000B213D2000F0C7FC0021502000F0C3FC3C
:10084000EF21512000F0BFFC0021522000F0BBFC42
:100850003146532000F0B7FC4FF41C51602000F0EB
:10086000B2FC0121612000F0AEFC00216A2000F002
:10087000AAFC0021802000F0A6FC0021812000F0CD
:10088000A2FC0021822000F09EFC0021832000F0C9
:100890009AFC0021842000F096FC0021852000F0C5
:1008A00092FC1021902000F08EFC0021922000F09C
:1008B0008AFC0321932000F086FC4146952000F03D
:1008C00082FC0021972000F07EFC0021982000F09F
:1008D0007AFC41F23801032000F075FC40F27311FC
:1008E000072000F070FCA088A0F5094189397DD16E
:1008F0000121002000F067FC052000F035FC4AF6DD
:10090000A401032000F05FFC052000F02DFC002175
:100910000C2000F058FC052000F026FC40F60C01ED
:100920000D2000F050FC052000F01EFC4FF42C516F
:100930000E2000F048FC052000F016FCB0211E201F
:1009400000F041FC052000F00FFC42F63F31012091
:1009500000F039FC052000F007FC4FF4C0610220D4
:1009600000F031FC052000F0FFFB0021102000F01A
:100970002AFC052000F0F8FB46F27801112000F077
:1009800022FC052000F0F0FB0021052000F01BFCFC
:10099000052000F0E9FB0021062000F014FC0520F2
:1009A00000F0E2FB4EF61C71162000F00CFC052056
:1009B00000F0DAFB0321172000F005FC052000F011
:1009C000D3FB40F23321072000F0FDFB052000F0AF
:1009D000CBFB00210B2000F0F6FB052000F0C4FB50
:1009E00000210F2000F0EFFB052000E0ACE000F05C
:1009F000BBFB0021412000F0E6FB052000F0B4FB2A
:100A00000021422000F0DFFB052000F0ADFB0021BB
:100A1000482000F0D8FB052000F0A6FB3146492015
:100A200000F0D1FB052000F09FFB00214A2000F0E0
:100A3000CAFB052000F098FB00214B2000F0C3FB0F
:100A4000052000F091FB4FF46F41442000F0BBFB08
:100A5000052000F089FB0021452000F0B4FB0520B3
:100A600000F082FB3146462000F0ADFB052000F08F
:100A70007BFB40F20771302000F0A5FB052000F061
:100A800073FB4FF401742146312000F09CFB0520DC
:100A900000F06AFB2146322000F095FB052000F0B3
:100AA00063FB40F202552946332000F08CFB052001
:100AB00000F05AFB691D342000F085FB052000F092
:100AC00053FB2146352000F07EFB052000F04CFB57
:100AD0002146362000F077FB052000F045FB294633
:100AE000372000F070FB052000F03EFB39463A202D
:100AF00000F069FB052000F037FB39463B2000F091
:100B000062FB052000F030FB0021232000F05BFB9E
:100B1000052000F029FB0021242000F054FB0520D3
:100B200000F022FB4FF40041252000F04CFB052093
:100B300000F01AFB00214F2000F045FBBDE8F05FFC
:100B400000214E2000F03FBBBDE8F09FFF4810B5EC
:100B5000808840F23F14A0F50942893A4FF0000125
:100B60000ED1442000F02FFB4FF46F41442000F0E1
:100B70002AFB0021452000F026FB214646200CE000
:100B8000502000F020FBEF21512000F01CFB002141
:100B9000522000F018FB21465320BDE8104000F021
:100BA00012BB70B504460E46FFF7D0FFE74DA4F226
:100BB0003F146342AA88B1B2A2F509409CB28938B9
:100BC00005D14E2000F0FFFA21464F2004E02020FE
:100BD00000F0F9FA2146212000F0F5FADC4E4FF43E
:100BE0008004F461222000F0C3FA288800F0D0FAD3
:100BF000B46170BDD54908807047D44948807047BA
:100C00002DE9F0418046FFF7A1FFD0488088A0F58C
:100C1000094189394FF0000105D14E2000F0D3FA87
:100C200000214F2004E0202000F0CDFA00212120F7
:100C300000F0C9FAC64D4FF48006EE61222000F0A4
:100C400097FA7000A86100244FF49637404600F0F0
:100C5000AFFA641CBC42F9D3AE61BDE8F0812DE966
:100C6000F05FDFF8E892C0F598740F46B9F8040019
:100C7000BEB2A0F50941893915464FF0000831464A
:100C80001CD1442000F09FFA4FF4B85000EB07202D
:100C9000384381B2442000F096FAA1B20F464520B5
:100CA00000F091FA0F34A1B2462000F08CFA3146E0
:100CB0004E2000F088FA39464F2017E0502000F00F
:100CC00082FA1737B9B2512000F07DFAA1B20F466F
:100CD000522000F078FA0F34A1B2532000F073FADA
:100CE0003146202000F06FFA3946212000F06BFADF
:100CF000DFF85CA24FF4800B5446CAF81CB02220E7
:100D000000F036FA4FF40000A06100264F460F2491
:100D10004FF0010935F8181009FA04F001420BD020
:100D2000388800F045FA641EF4D5AD1C761C182EE8
:100D3000EDDBCAF818B007E77888F2E7203AD2B2BC
:100D4000844B02EB420203EB021288E770B50546C2
:100D50001446A1F11806FFF7F9FE06E006F11801A6
:100D6000641C0E462846FFF7E9FF2278002AF5D1D9
:100D700070BD70B50D461446A0F11006FFF7E6FEF3
:100D800006E006F11000641C06462946FFF7D6FF70
:100D90002278002AF5D170BD10B50446FFF7D6FEC3
:100DA0002046BDE810406CA20021E2E72DE9F05F8B
:100DB000DFF898A10F46C0F5A070BAF80410851AA4
:100DC00048F6891BBCB2DDF828805945164699467D
:100DD000214614D1442000F0F6F94FF4B85000EB4E
:100DE0000720384381B2442000F0EDF9A9B2452034
:100DF00000F0E9F9A819401E81B246200FE050200A
:100E000000F0E1F91737B9B2512000F0DCF9A9B2CE
:100E1000522000F0D8F9A819401E81B2532000F0EA
:100E2000D2F9BAF8041008FB06F059454FEA9028A9
:100E30005746214605D14E2000F0C5F9A9B24F20F2
:100E400004E0202000F0BFF9A9B2212000F0BBF996
:100E5000DFF8FCA04FF4800B5446CAF81CB02220E7
:100E600000F086F94FF40000A06100250BE0741E2D
:100E700008D4444501D3788800E0388800F098F918
:100E8000641EF6D56D1C4D45F1D3CAF818B05BE66B
:100E90002DE9F047C0F5A070871A2C488846164601
:100EA00081881846A1F509421FFA88F4089D9A46E0
:100EB00008EB0009893A21461ED1442000F083F94D
:100EC0006FF0FF0101EB092040EA080081B24420E5
:100ED00000F079F9B9B28846452000F074F9B819E4
:100EE000401E81B2462000F06EF921464E2000F0EF
:100EF0006AF941464F2019E0502000F064F9A9F149
:100F0000010081B2512000F05EF9B9B2884652204A
:100F100000F059F9B819401E81B2532000F053F97E
:100F20002146202000F04FF94146212000F04BF9E6
:100F3000DFF81C804FF480094446C8F81C9022203A
:100F400000F016F94FF40000A06111E00C00001051
:100F500000C0092040210000202020202020202047
:100F60002020202020202020202020200000000001
:100F700000270FE005EB4604A41E002504E034F82A
:100F8000020900F015F96D1CB542F8D304EB4605D3
:100F9000AD1C7F1C5745EDD3C8F81890BDE8F0870D
:100FA0002DE9F05FC0F5A070851AA1480F461646DE
:100FB0008188BCB2A1F50942DDF828A0984607EB6C
:100FC0000309893A21461DD1442000F0FCF86FF056
:100FD000FF0101EB0920384381B2442000F0F3F80F
:100FE000A9B20F46452000F0EEF8A819401E81B2C4
:100FF000462000F0E8F821464E2000F0E4F839469B
:101000004F2019E0502000F0DEF8A9F1010081B274
:10101000512000F0D8F8A9B20F46522000F0D3F8C2
:10102000A819401E81B2532000F0CDF8214620209F
:1010300000F0C9F83946212000F0C5F8DFF8F49136
:101040004FF4800B4C46C9F81CB0222000F090F8F9
:101050004FF40000A06108FB06F10AEB4105AD1E4C
:10106000002709E0002404E035F8020900F0A0F8A8
:10107000641CB442F8D37F1C4745F3D3C9F818B0B9
:1010800062E52DE9F05F80460F46DDE90A06684912
:10109000924699460880761E904510D1A8EB5605D9
:1010A00008EB560B09E03C4604E021462846FFF7D2
:1010B00078FD641C4C45F8D96D1CAB45F3D84F4501
:1010C00011D14546A7EB560807EB560609E0444602
:1010D00004E021462846FFF764FD641CA642F8D8C8
:1010E0006D1C5545F3D92FE52DE9F0478246504850
:1010F000089E884603800D46761E01EB020910E02B
:101100000AEB0501A1EB0800A0EB560400EB560723
:1011100004E029462046FFF744FD641CA742F8D2AC
:101120006D1CA945ECD239E72DE9F04782464048CD
:10113000089E884603800D46761E01EB020910E0EA
:10114000AAEB050101EB0800A0EB560400EB5607E3
:1011500004E029462046FFF724FD641CA742F8D28C
:101160006D1CA945ECD219E78004401EFDD27047E2
:1011700070B5304C4FF40001E1618900A161FFF7C7
:10118000DEF84FF08075E561FEF7AEFFA56170BD3A
:1011900070B5284C4FF40001A1618900A161FFF7EF
:1011A000CEF84FF08075E561FEF79EFFA56170BD3A
:1011B00070B5FFF7C4F81F4C4FF08075E561FEF77E
:1011C00093FFA56170BD70B51A4C4FF480050E46B3
:1011D000E561FFF7CDFF3046FFF7DAFFA56170BD8F
:1011E00070B5144C4FF48005E561C0B2FFF7C0FF45
:1011F0006800A0614000A0614100E161206C20F026
:10120000FF0020640A11E2618B11E3615020401E4F
:10121000FDD2606DA361C6B25020401EFDD2606D4C
:10122000A26166F31F2080B2A161A56170BD0000BC
:101230000C00001000C00920002100E0491C814280
:10124000FCDB704730B5D34C2568A36902FB035221
:10125000A2EB53036568E269083B01FB0251A1EB75
:1012600052010C39C0E9003130BDF0B505ACB4E82D
:10127000E050C84C84E8EF500122114604F12400EC
:10128000FFF7E0FF202584F82C500222012104F111
:101290003000FFF7D7FF84F838500322012104F112
:1012A0003C00FFF7CFFF84F844500122022104F1F3
:1012B0004800FFF7C7FF022284F85050114604F19E
:1012C0005400FFF7BFFF84F85C500322022104F1B1
:1012D0006000FFF7B7FF84F868500122032104F192
:1012E0006C00FFF7AFFF84F874500222032104F171
:1012F0007800FFF7A7FF032284F88050114604F11D
:101300008400FFF79FFF84F88C50F0BD2DE9F04F6B
:101310000D4603210446B3FBF1F085B0B2FBF1F8B2
:101320001F460A230F9ECDE90303CDE901680E9BFA
:101330008146009392463B4629462046FFF795FF9B
:101340000E9A2F44A7F10A000092CDE9016004EB48
:10135000080005F10A018B460246029BFFF791FE49
:101360000E9ACDE9002604EB480002465946029B3E
:10137000FFF787FE0E9A04EB0A08CDE9002605EB7D
:101380000901A8F10A0B04F10A0082460B465A46ED
:10139000FFF777FE0E9ACDE9002605EB49010B46D3
:1013A0005A465046FFF76DFEB31C0E9ACDE9002356
:1013B0003B46224629462046FFF763FEB31C0E9AA1
:1013C000CDE900233B46424629464046FFF759FEF9
:1013D000B31C0E9ACDE900232B46424629462046EF
:1013E000FFF74FFEB31C0E9ACDE900233B46424661
:1013F00039462046FFF745FE05B0BDE8F08F2DE9E0
:10140000FC471400DFF88C8100EBC00208EB820679
:101410004FF04F0796F82C20384600D158205D4BEE
:1014200001EB41014FF6E07903EB810582421ED1C9
:1014300096F838203846394604B958218A4216D1E0
:1014400096F8441004B95820814210D1002152A2CC
:101450000846FFF78EFC0523CDE90093A96AF26BDD
:10146000706A0C31183208380B46FFF70AFE95F8FF
:101470002C104646384604B9582081421ED195F8B2
:1014800050203846394604B958218A4216D195F879
:10149000741004B95820814210D1002141A208469D
:1014A000FFF754FC0523CDE90093686A2B6FA96A06
:1014B000083024330C390246FFF7E3FD96F82C1070
:1014C000384604B9582081421AD196F85C103D463E
:1014D000384604B95820814212D196F88C0004B9DC
:1014E0005825A8420CD1002131A20846FFF72EFC56
:1014F000052300934B46A52223214820FFF7F4FD46
:1015000096F87410384604B95820814219D196F8DB
:101510005C10384604B95820814212D196F8440034
:1015200004B95827B8420CD1002124A20846FFF77D
:101530000DFC052300934B46A5222321F520FFF740
:10154000F3FDBDE8FC872DE9F0410F46064600EBB0
:10155000C00110481D4600EB810007EB470100EB7E
:10156000810494F82C00202811D190B2FFF742FB9F
:101570004F2205B9582284F82C20D4E90901FFF73D
:10158000DDFB2A4639463046BDE8F04137E7BDE885
:10159000F081000020000010486F72697A6F6E744D
:1015A000616C2100566572746963616C21000000F2
:1015B000446961676F6E616C21000000416E74695F
:1015C000646961676F6E616C2100000000F0FE00CD
:1015D000022800D20220FD4908617047FC480168DA
:1015E00041F040010160016C01644021816100F023
:1015F000C5B9F649CA68D206FCD48860C868C00676
:10160000FCD4C8684007FCD58868C0B2704770B584
:10161000EF4D4024EC61012000F0E7F99020FFF746
:10162000E8FF012000F0E1F900F0ECF9AC6170BDD9
:1016300070B5E74D4024EC61012000F0D6F9D020D0
:10164000FFF7D7FF012000F0D0F900F0DBF9AC6123
:1016500070BD70B505460E46FFF7D9FF0446012060
:1016600000F0C3F9FFF7E4FF2C60306070BDF0B507
:1016700095B0002448216846FEF72FFED44E6D46F3
:1016800013A912A8FFF7E5FF129845F8240005EB0F
:1016900084011398486204F10104706DE4B280047F
:1016A00001D4092CECD3092C71D1DDE900010844E7
:1016B000029903270844DDE903121144059A90FBBF
:1016C000F7F0114491FBF7F2DDE906131944089B8A
:1016D000861A194491FBF7F1541A0D1A002E00DCFA
:1016E0007642002C00DC6442002D00DC6D42022EAC
:1016F00003DD022C01DD022D49DCB64BA64205DAE2
:10170000B54201DA084404E0104402E0A542F9DBE6
:10171000501800EBD07040101880DDE90901084432
:101720000B990844DDE90C1211440E9A90FBF7F076
:10173000114491FBF7F2DDE90F142144119C21447F
:1017400091FBF7F1841A551A0E1A002C00DC644242
:10175000002D00DC6D42002E00DC7642022C03DD01
:10176000022D01DD022E12DCAC4205DAA64201DABE
:10177000084404E0104402E0AE42F9DB501800EBEC
:10178000D07040105880934815B0F0BDFFE700209E
:10179000FAE72DE9F0470C460546098820891646E8
:1017A0000A1AE38861894FF000095B1A5A43A3883B
:1017B000C01A6388591A00FB012000F0B7FA002212
:1017C0001346C6E90C0100F0E7FA02D14FF0010917
:1017D0007EE029882889E3880A1A61895B1A5A43BE
:1017E000AB88C01A6388591A00FB012000F09EFAEA
:1017F000C6E9000121882089AB880A1A29895B1A69
:101800005A432B88C91AA388181A01FB002000F03C
:101810008DFAC6E902012389B5F80480A1882889D8
:1018200003FB08F201FB1027628857432288944685
:101830004243288803FB10224143E3880CFB181025
:1018400002FB0373618900FB013000F06FFAC6E907
:10185000040169886889E3880A1A61895B1A5A4316
:10186000EB88C01A6388591A00FB012000F05EFA69
:10187000C6E9060121882089EB880A1A69895B1A62
:101880005A436B88C91AA388181A01FB002000F07C
:101890004DFAC6E908012189B5F806C0A2886B890E
:1018A00001FB0CF002FB130760886D88474320881A
:1018B0006A43434301FB1531E38800FB1C2001FB15
:1018C0000371628900FB021000F030FAC6E90A01D8
:1018D0004846BDE8F0872DE9F047144680460D469E
:1018E0004FF00009D4E90C014A464B4600F054FA87
:1018F00040D0688800F02BFAD4E9022300F036F9D2
:1019000006460F46288800F022FAD4E9002300F0AA
:101910002DF932463B4600F084F8D4E9042300F068
:1019200080F8D4E90C2300F092F900F01DFAA8F831
:101930000000688800F00BFAD4E9082300F016F9DB
:1019400006460F46288800F002FAD4E9062300F084
:101950000DF932463B4600F064F8D4E90A2300F062
:1019600060F8D4E90C2300F072F900F0FDF9A8F852
:10197000020001E04FF001094846AAE7164800B509
:1019800050F8681C41F4806140F8681C13490A68EB
:1019900022F47C220A600A6842F428220A60C16F9D
:1019A00021F44011C167C16F41F48011C167074A3A
:1019B0004FF0070010604FF0020050604FF024001D
:1019C000FFF704FED068C006FCD40AE00000034024
:1019D00000C00920120000102CC10F4000C00240BE
:1019E0009068D0684007FBD400BD002207E00C21BE
:1019F0000B00A1F10101C9B2FAD1521C92B282428C
:101A0000F5D3704710B50020FFF7F3FD0402012065
:101A1000FFF7EBFF0020FFF7ECFD0443C4F3CB001E
:101A200010BD2DE9FE4F074681EA0300C00F0E46A8
:101A3000019021F0004123F00044B81AA14105D2E1
:101A40003846314617461E460B46024623F00040F4
:101A5000104304D13846314603B0BDE8F08F350D50
:101A6000C5F30A00C3F30A510290401A00904028BF
:101A700067DAC3F3130040F4801B0198924620B14B
:101A80000023D2EB030A63EB0B0B00985946C0F11D
:101A90004002504600F0AAF980460C46504659468E
:101AA000009A00F0C2F9C0197141EF1785EA11538D
:101AB0003B433FD0019A4AB3009A012A11DC00222D
:101AC000801A61EB05514FF0004303EA0555CDE95B
:101AD0000025801841F580114246234600F0C4F9E4
:101AE000BAE72E050025401B61EB0601401941F5C0
:101AF0008012001852412818A6F5001343EB02018A
:101B000040EAD47018EB0808644113E064084FEA17
:101B100038084FF0000244EAC0744FEA0553801AB7
:101B200061EB0301801841F5801149084FEA30004C
:101B3000801859414246234603B0BDE8F04F00F0FB
:101B400086B90198012240000023D0EB020263EB2A
:101B5000E07301984FEAE074381A66EB0401EBE792
:101B600083F000435DE781F000415AE72DE9FE4F25
:101B700081EA030421F0004504F0004423F0004111
:101B80004FF0000A009450EA050302D052EA010324
:101B900004D10020014603B0BDE8F08FC1F30A5321
:101BA000C5F30A542344A3F2F3330193A0FB02B319
:101BB000C5F3130545F4801CC1F3130141F48018EB
:101BC0000CFB023300FB083E810A930A41EA8C5168
:101BD00043EA8853A1FB03474FEA9C2505FB0373A7
:101BE0004FEA982601FB06373D05260545EA1435E0
:101BF000BBEB06016EEB0503850E920E45EA8C15D4
:101C000042EA8812A5FB0206261E67EB00070C0DB0
:101C100044EA0334A61947EB1350C1F313044FF001
:101C200000031946E5FB02014FEA033545EA145566
:101C3000019B4FEA0432009CA3F10C03CDE900A400
:101C400045EA060502932B4600F00EF9A3E72DE9BD
:101C5000F04D81EA030404F0004B21F000471446E4
:101C60004FF0000A23F0004150EA070220D054EA66
:101C700001021DD0C1F30A550246C1F31300C7F398
:101C80000A56C7F3130340F4801143F48013A6EB04
:101C90000508101BD64608F2FD3873EB010002D38D
:101CA00008F1010801E092185B41B8F1000F03DA76
:101CB00000200146BDE8F08D00204FF48015064657
:101CC00007460EE0B2EB040C73EB010C04D3121BBD
:101CD000064363EB01032F436D084FEA300092186F
:101CE0005B4150EA050CEDD152EA030012D082EAC2
:101CF000040083EA0105284303D100224FF000438A
:101D000008E0101B8B4102D20122002302E06FF099
:101D1000010253101AEB060047EB085110EB0A00C2
:101D200041EB0B01BDE8F04D00F091B80EB5C10FCD
:101D300080EAE0700844CA07002140F233438DE88E
:101D40000E000A460B4600F08FF803B000BD0EB53A
:101D5000002240F23343CDE900220293134611469C
:101D600000F082F803B000BDC1F30A52C1F31301C1
:101D700040F2FF3341F480119A4201DA00207047AB
:101D800040F233439A42A2F2334202DC524200F064
:101D90003CB890407047000030B5002904DB4FF09C
:101DA0000044404264EB0101002B04DB4FF000448F
:101DB000524264EB03038B4208BF824230BD0000F5
:101DC00030B50B46014600202022012409E021FA0B
:101DD00002F59D4205D303FA02F5491B04FA02F508
:101DE0002844151EA2F10102F1DC30BD202A04DBDB
:101DF000203A00FA02F1002070479140C2F120031E
:101E000020FA03F3194390407047202A04DB203A5C
:101E100021FA02F00021704721FA02F3D040C2F10A
:101E200020029140084319467047202A06DBCB1751
:101E3000203A41FA02F043EAE07306E041FA02F385
:101E4000D040C2F12002914008431946704710B5B6
:101E5000002B08DA401C41F1000192185B411A4343
:101E600001D120F0010010BD2DE9FF4D934611B1C5
:101E7000B1FA81F202E0B0FA80F220329246FFF726
:101E8000B5FF039A0746884640EA0B0011435B46BC
:101E9000084304D13846414604B0BDE8F08D1146F0
:101EA00053EA020016D0CAF140025846FFF7ADFFD0
:101EB00004460D464FF00106584652460399FFF777
:101EC00095FF084300D10026344345EAE6752743D1
:101ED00045EA08080E984FF00005A0EB0A014FEA0A
:101EE000D7200A314FEA47532A4640EA48504FEA82
:101EF000D82402D500200146CEE7281844EB015132
:101F0000DDE90C45001904B06941BDE8F04D9EE7DC
:101F1000064C074D06E0E06840F0010394E8070036
:101F200098471034AC42F6D3FEF7D4F840360000A0
:101F3000603600000FB4084B10B504A902AA03983C
:101F400000F01AF8044602A9002000F0BDF820466F
:101F500010BC5DF814FB0000C920000002E008C8B6
:101F6000121F08C1002AFAD17047002001E001C108
:101F7000121F002AFBD170472DE9FF4F89B004469C
:101F80009B46002596E0252833D10027641C4D4A46
:101F9000B84601212378203B01FA03F0104202D019
:101FA0000743641CF6E720782E2819D114F8010F96
:101FB00047F004072A280ED06FF02F022078A0F1F6
:101FC000300109290CD808EB880102EB410100EB34
:101FD0000108641CF2E70A98641C50F8048B0A900C
:101FE000207800286AD0642808D0692806D075288F
:101FF0001FD05A460B9990476D1C5AE00A994FF032
:102000000A0901C90A91002804DAC0F100004FF062
:102010002D0102E0390504D52B218DF82010012176
:1020200004E0F90701D02021F7E700218A4608AE35
:102030000CE00A994FF00A0901C90A91F5E74946EF
:10204000FFF7BEFE01F1300106F8011D0028F6D1B0
:10205000ADEB060000F12009780701D44FF001082C
:10206000002041464A46C84500DD881A80460027C0
:1020700006E008A85A46C05D0B9990476D1C7F1C6E
:102080005745F6DB04E030205A460B9990476D1C0B
:10209000B8F10001A8F10108F5DC05E016F8010B24
:1020A0005A460B9990476D1CB9F10001A9F101093D
:1020B000F4DC641C207800287FF465AF0DB028465E
:1020C000BDE8F08F092801000A68531C0B601070EE
:1020D00070470000F0B50026154F0B3020F00701C7
:1020E000144A0FE003688B420BD38B4205D95C1A6C
:1020F00043184568C3E9004500E04368136002C027
:1021000004E0021D10680028ECD13046002802D1FE
:10211000386808B10020F0BD064A07481060074A39
:10212000121A22F00702C0E9002601203860D7E722
:102130001C00001018000010B4000010B0000010C7
:10214000000000000000000000000000000000008F
:10215000000000000000000000000000000000007F
:10216000000000000000000000000000000000006F
:1021700000008001800180018001800180018001D8
:102180008001800180018001800180010000000049
:10219000800180010000000000000000000000003D
:1021A00000000000CC00CC00CC00CC00CC00CC0067
:1021B000000000000000000000000000000000001F
:1021C000000000000000000000000000000000000F
:1021D000000000000000000000000000600C600C27
:1021E000600C30063006FE1FFE1F3006380718034D
:1021F000FE1FFE1F180318038C018C018C010000C8
:1022000000008000E003F80F9C0E8C1C8C188C00E2
:102210009800F801E007800E801C8C188C189C1820
:10222000B80CF00FE0038000800000000000000008
:102230000000000000000E181B0C110C1106110606
:10224000110311039B018E01C038C06C60446044CF
:10225000304430441844186C0C3800000000000072
:102260000000E001F0033807180618063003F001FB
:10227000F000F8009C310E33061E061C061C063FBB
:10228000FC73F021000000000000000000000000CE
:10229000000000000C000C000C000C000C000C00F6
:1022A000000000000000000000000000000000002E
:1022B000000000000000000000000000000000001E
:1022C0000000000200038001C000C0006000600048
:1022D000300030003000300030003000300030007E
:1022E00060006000C000C000800100030002000028
:1022F000000020006000C000800180010003000396
:10230000000600060006000600060006000600069D
:102310000003000380018001C00060002000000075
:10232000000000000000000000000000C000C0002D
:10233000D806F807E001300338070000000000006D
:10234000000000000000000000000000000000008D
:10235000000000000000000000000000800180017B
:10236000800180018001FC3FFC3F800180018001F1
:10237000800180010000000000000000000000005B
:10238000000000000000000000000000000000004D
:10239000000000000000000000000000000000003D
:1023A00000008001800100010001800000000000A9
:1023B000000000000000000000000000000000001D
:1023C0000000000000000000E007E007000000003F
:1023D00000000000000000000000000000000000FD
:1023E00000000000000000000000000000000000ED
:1023F00000000000000000000000000000000000DD
:102400000000C000C000000000000000000000004C
:102410000000000C000C000600060006000300038C
:1024200000038003800180018001C000C000C00063
:1024300060006000000000000000000000000000DC
:102440000000E003F007380E180C0C180C180C18DC
:102450000C180C180C180C180C180C18180C380E3A
:10246000F007E00300000000000000000000000092
:10247000000000018001C001F00198018801800185
:102480008001800180018001800180018001800144
:10249000800180010000000000000000000000003A
:1024A0000000E003F80F180C0C180C1800180018A6
:1024B000000C000600038001C0006000300018001E
:1024C000FC1FFC1F000000000000000000000000D6
:1024D0000000E001F807180E0C0C0C0C000C0006B4
:1024E000C003C007000C001800180C180C18180CBA
:1024F000F807E003000000000000000000000000FA
:102500000000000C000E000F000F800DC00C600CCE
:10251000600C300C180C0C0CFC3FFC3F000C000C49
:10252000000C000C00000000000000000000000093
:102530000000F80FF80F180018000C00EC03FC075F
:102540001C0E001C0018001800180C181C0C180E8B
:10255000F807E00300000000000000000000000099
:102560000000C007F00F381C181818000C00CC032E
:10257000EC0F3C0E1C1C0C180C180C18181C380EF8
:10258000F007E00300000000000000000000000071
:102590000000FC1FFC1F000C000600060003800367
:1025A0008001C001C000E0006000600070003000E9
:1025B00030003000000000000000000000000000BB
:1025C0000000E003F007380E180C180C180C380641
:1025D000F007F007180C0C180C180C180C18380C15
:1025E000F80FE00300000000000000000000000001
:1025F0000000E003F007380E1C0C0C180C180C1827
:102600001C1C381EF81BE0190018000C000C1C0ED6
:10261000F807F001000000000000000000000000CA
:1026200000000000000000000000000080018001A8
:10263000000000000000000000000000000000009A
:102640008001800100000000000000000000000088
:102650000000000000000000000000008001800178
:10266000000000000000000000000000000000006A
:1026700080018001000100018000000000000000D6
:10268000000000000000000000000000000000004A
:102690000010001C800FE003F8001800F800E003B1
:1026A000800F001C0010000000000000000000006F
:1026B000000000000000000000000000000000001A
:1026C000F81F000000000000F81F000000000000DC
:1026D00000000000000000000000000000000000FA
:1026E00000000000000000000000000000000000EA
:1026F00008003800F001C007001F0018001FC007C5
:10270000F001380008000000000000000000000098
:102710000000E003F80F180C0C180C180018000C3F
:10272000000600038001C000C000C00000000000DF
:10273000C000C00000000000000000000000000019
:1027400000000000E00718180420C229224A1144A2
:1027500009440944094409221113E20C02400420EF
:102760001818E00700000000000000000000000052
:10277000000080038003C006C006C006600C600C29
:10278000301830183018F83FF83F1C700C600C609F
:1027900006C006C0000000000000000000000000AD
:1027A0000000FC03FC0F0C0C0C180C180C180C0C83
:1027B000FC07FC0F0C180C300C300C300C300C18D3
:1027C000FC1FFC07000000000000000000000000EB
:1027D0000000C007F01F38381C300C70066006007F
:1027E0000600060006000600060006600C701C309D
:1027F000F01FE007000000000000000000000000E3
:102800000000FE03FE0F060E0618061806300630FE
:102810000630063006300630063006180618060E5A
:10282000FE0FFE030000000000000000000000009A
:102830000000FC3FFC3F0C000C000C000C000C00E6
:10284000FC1FFC1F0C000C000C000C000C000C000A
:10285000FC3FFC3F00000000000000000000000002
:102860000000F83FF83F1800180018001800180082
:10287000F81FF81F1800180018001800180018009A
:102880001800180000000000000000000000000018
:102890000000E00FF83F3C780E6006E007C0030040
:1028A000030003FE03FE03C007C006C00EC03CF0D9
:1028B000F83FE00F000000000000000000000000F2
:1028C00000000C300C300C300C300C300C300C3064
:1028D000FC3FFC3F0C300C300C300C300C300C301A
:1028E0000C300C3000000000000000000000000070
:1028F0000000800180018001800180018001800151
:1029000080018001800180018001800180018001BF
:1029100080018001000000000000000000000000B5
:10292000000000060006000600060006000600067D
:1029300000060006000600060006180618063807FE
:10294000F003E001000000000000000000000000B3
:10295000000006300618060C060606038601C600AF
:1029600066007600DE008E0106030606060C0618D9
:1029700006300660000000000000000000000000BB
:10298000000018001800180018001800180018009F
:102990001800180018001800180018001800180077
:1029A000F81FF81F000000000000000000000000F9
:1029B00000000EE01EF01EF01EF036D836D836D8D5
:1029C00036D866CC66CC66CCC6C6C6C6C6C6C6C633
:1029D00086C386C300000000000000000000000065
:1029E00000000C301C303C303C306C306C30CC3053
:1029F000CC308C310C330C330C360C360C3C0C3C8C
:102A00000C380C3000000000000000000000000046
:102A10000000E007F81F1C380E70066003C003C0FA
:102A200003C003C003C003C003C006600E701C389F
:102A3000F81FE00700000000000000000000000098
:102A40000000FC0FFC1F0C380C300C300C300C302C
:102A50000C18FC1FFC070C000C000C000C000C00F8
:102A60000C000C000000000000000000000000004E
:102A70000000E007F81F1C380E70066003E003C07A
:102A800003C003C003C003C007E006630E3F1C3C45
:102A9000F83FE0F700C00000000000000000000068
:102AA0000000FE0FFE1F06380630063006300638DE
:102AB000FE1FFE0706030606060C0618061806305B
:102AC000063006600000000000000000000000006A
:102AD0000000E003F80F1C0C0C180C180C001C0074
:102AE000F803E00F001E0038063006300E301C1CC4
:102AF000F80FE007000000000000000000000000E8
:102B00000000FE7FFE7F8001800180018001800146
:102B100080018001800180018001800180018001AD
:102B200080018001000000000000000000000000A3
:102B300000000C300C300C300C300C300C300C30F1
:102B40000C300C300C300C300C300C300C301818B1
:102B5000F81FE00700000000000000000000000077
:102B6000000003600630063006300C180C180C18F4
:102B7000180C180C380E300630067007600360031E
:102B8000C001C001000000000000000000000000C3
:102B900000000360C361C361C3616633663366339B
:102BA0006633663366336C1B6C1B6C1B2C1A3C1E25
:102BB000380E380E00000000000000000000000089
:102BC00000000FE00C7018303018700C600EC00759
:102BD00080038003C003E006700C301C18180C3012
:102BE0000E6007E000000000000000000000000090
:102BF000000003C006600C301C383818300C60062A
:102C0000E007C00380018001800180018001800114
:102C100080018001000000000000000000000000B2
:102C20000000FC7FFC7F006000300018000C0006F4
:102C300000038001C0006000300018000C00060096
:102C4000FE7FFE7F0000000000000000000000008A
:102C50000000E003E00360006000600060006000CE
:102C60006000600060006000600060006000600064
:102C700060006000600060006000E003E0030000AE
:102C8000000030003000600060006000C000C00044
:102C9000C000C00180018001800100030003000327
:102CA0000006000600000000000000000000000018
:102CB0000000E003E003000300030003000300033F
:102CC00000030003000300030003000300030003EC
:102CD00000030003000300030003E003E00300001F
:102CE00000000000C001C001600360036003300603
:102CF0003006180C180C0000000000000000000056
:102D000000000000000000000000000000000000C3
:102D100000000000000000000000000000000000B3
:102D200000000000000000000000000000000000A3
:102D30000000FFFFFFFF0000000000000000000097
:102D400000000C000C000C000C000C000C0000003B
:102D50000000000000000000000000000000000073
:102D60000000000000000000000000000000000063
:102D7000000000000000000000000000F003F80761
:102D80001C0C0C0C000FF00FF80C0C0C0C0C1C0F96
:102D9000F80FF01800000000000000000000000024
:102DA000000018001800180018001800D803F80FC9
:102DB000380C181818181818181818181818380C6B
:102DC000F80FD80300000000000000000000000021
:102DD000000000000000000000000000C003F00739
:102DE000300E180C1800180018001800180C300EBF
:102DF000F007C00300000000000000000000000019
:102E0000000000180018001800180018C01BF01F60
:102E1000301C181818181818181818181818301CFA
:102E2000F01FC01B000000000000000000000000B8
:102E3000000000000000000000000000C003F00FD0
:102E4000300C1818F81FF81F180018003818301C1C
:102E5000F00FC007000000000000000000000000AC
:102E60000000800FC00FC000C000C000F007F007D6
:102E7000C000C000C000C000C000C000C000C00052
:102E8000C000C000000000000000000000000000C2
:102E9000000000000000000000000000E00DF80F3E
:102EA000180E0C0C0C0C0C0C0C0C0C0C0C0C180E46
:102EB000F80FE00D000C0C0C1C06F807F0010000E8
:102EC000000018001800180018001800D807F80FA4
:102ED000381C18181818181818181818181818184E
:102EE0001818181800000000000000000000000082
:102EF0000000C000C000000000000000C000C000D2
:102F0000C000C000C000C000C000C000C000C000C1
:102F1000C000C00000000000000000000000000031
:102F20000000C000C000000000000000C000C000A1
:102F3000C000C000C000C000C000C000C000C00091
:102F4000C000C000C000C000C000F8007800000051
:102F500000000C000C000C000C000C000C0C0C060B
:102F60000C038C01CC006C00FC009C018C030C0356
:102F70000C060C0C00000000000000000000000027
:102F80000000C000C000C000C000C000C000C00001
:102F9000C000C000C000C000C000C000C000C00031
:102FA000C000C000000000000000000000000000A1
:102FB0000000000000000000000000007C3CFF7EDC
:102FC000C7E383C183C183C183C183C183C183C17B
:102FD00083C183C100000000000000000000000069
:102FE0000000000000000000000000009807F80F3B
:102FF000381C18181818181818181818181818182D
:103000001818181800000000000000000000000060
:10301000000000000000000000000000C003F00FEE
:10302000300C181818181818181818181818300C08
:10303000F00FC003000000000000000000000000CE
:10304000000000000000000000000000D803F80F9E
:10305000380C181818181818181818181818380CC8
:10306000F80FD80318001800180018001800000006
:10307000000000000000000000000000C01BF01F66
:10308000301C181818181818181818181818301C88
:10309000F01FC01B001800180018001800180000CE
:1030A000000000000000000000000000B007F00376
:1030B0007000300030003000300030003000300050
:1030C00030003000000000000000000000000000A0
:1030D000000000000000000000000000E003F0031A
:1030E000380E180C3800F003C007000C180C380E0E
:1030F000F007E003000000000000000000000000F6
:10310000000000008000C000C000C000F007F00711
:10311000C000C000C000C000C000C000C000C000AF
:10312000C007800700000000000000000000000051
:10313000000000000000000000000000181818182F
:103140001818181818181818181818181818381CDB
:10315000F01FE01900000000000000000000000067
:103160000000000000000000000000000C18180C17
:10317000180C180C3006300630066003600360033C
:10318000C001C001000000000000000000000000BD
:10319000000000000000000000000000C141C1412B
:1031A000C3616363636363633636363636361C1C2D
:1031B0001C1C1C1C0000000000000000000000009F
:1031C0000000000000000000000000001C38381C57
:1031D000300C6006C003C003C003C0036006300C9F
:1031E000381C1C3800000000000000000000000037
:1031F000000000000000000000000000183030183F
:1032000030187018600C600CE00CC006C00680031B
:103210008003800380018001C001F0007000000085
:10322000000000000000000000000000FC1FFC1F68
:10323000000C000600038001C00060003000180090
:10324000FC1FFC1F00000000000000000000000048
:10325000000000038001C000C000C000C000C0002A
:10326000C00060006000300060004000C000C0008E
:10327000C000C000C000C0008001000300000000CA
:1032800000008001800180018001800180018001B7
:103290008001800180018001800180018001800126
:1032A0008001800180018001800180018001000097
:1032B00000006000C000C001800180018001800129
:1032C000800100030003000600030001800180016B
:1032D0008001800180018001C000600000000000CA
:1032E00000000000000000000000000000000000DE
:1032F000F010F81F080F00000000000000000000A0
:1033000000000000000000000000000000000000BD
:1033100000000000000000000000000000000000AD
:10332000000000000000000000000000000000009D
:10333000000000000000000000000000000000008D
:1033400000000000000000000000C003300C081066
:1033500004200420024002400240024002400420B7
:1033600004200810300CC003000000000000000022
:1033700000000000000000000000C003F00FF81F74
:10338000FC3FFC3FFE7FFE7FFE7FFE7FFE7FFC3F1B
:10339000FC3FF81FF00FC003000000000000000019
:1033A0000000000000000000000000000000E00736
:1033B000F00F181818181818181818181818F00FEF
:1033C000E007000000000000000000000000000016
:1033D0000000000000000000000000000000E00706
:1033E000F00FF81FF81FF81FF81FF81FF81FF00F55
:1033F000E0070000000000000000000000000000E6
:1034000000000000000000000000000000000000BC
:1034100000000000000000008001C0036006300CC6
:1034200018181818F81FF81F00000000000000000E
:10343000000000000000000000000000000000008C
:1034400000000000000000008001C003E007F00F52
:10345000F81FF81FF81FF81F000000000000000010
:103460000000000000000000F81FF81F18181818CE
:10347000300C6006C0038001000000000000000066
:10348000000000000000000000000000000000003C
:103490000000000000000000F81FF81FF81FF81FD0
:1034A000F00FE007C00380010000000000000000F2
:1034B000000000000000000000000000000000000C
:1034C0000000000000000000000000000000E0011B
:1034D000F00198018C01860186018C019801F001B0
:1034E000E0010000000000000000000000000000FB
:1034F0000000000000000000000000000000E001EB
:10350000F001F801FC01FE01FE01FC01F801F001EF
:10351000E0010000000000000000000000000000CA
:103520000000000000000000000000000000800714
:10353000800F801980318061806180318019800F17
:1035400080070000000000000000000000000000F4
:1035500000000000000000000000000000008007E4
:10356000800F801F803F807F807F803F801F800F83
:1035700080070000000000000000000000000000C4
:103580000000C0012002200240013006080808089F
:103590000808080808080808080820022002200275
:1035A000200220022002200220022002200200002D
:1035B0000000C001E003E003C001F007D80DD80D02
:1035C000D80DD80DD80DD80DD80D60036003600359
:1035D0006003600360036003600360036003000036
:1035E0000000C0012002200240013006080808083F
:1035F00008080410022002204001200220021004CA
:10360000080808080410041004200440000000000A
:103610000000C001E003E003C001F007D80DD80DA1
:10362000D80DCC19C631C261C001600360037006B9
:10363000380C180C0C180C180C300C600000000032
:103640006036000000000010200000005C1F000039
:103650008036000020000010900200006A1F000069
:1036600000093D0000000000000000000000FFFF16
:10367000000000000000000000000000000000004A
:04000005000000CD2A
:00000001FF
